{
  "abi": [
    {
      "inputs": [
        {
          "internalType": "address",
          "name": "_admin",
          "type": "address"
        },
        {
          "internalType": "address",
          "name": "_relay",
          "type": "address"
        },
        {
          "internalType": "string",
          "name": "_version",
          "type": "string"
        },
        {
          "internalType": "contract IArbitrator",
          "name": "_arbitrator",
          "type": "address"
        },
        {
          "internalType": "bytes",
          "name": "_arbitratorExtraData",
          "type": "bytes"
        },
        {
          "internalType": "uint256",
          "name": "_buyerTimeout",
          "type": "uint256"
        },
        {
          "internalType": "uint256",
          "name": "_sellerTimeout",
          "type": "uint256"
        },
        {
          "internalType": "uint256",
          "name": "_sharedStakeMultiplier",
          "type": "uint256"
        },
        {
          "internalType": "uint256",
          "name": "_winnerStakeMultiplier",
          "type": "uint256"
        },
        {
          "internalType": "uint256",
          "name": "_loserStakeMultiplier",
          "type": "uint256"
        },
        {
          "internalType": "uint256",
          "name": "_tradeFeeRate",
          "type": "uint256"
        }
      ],
      "stateMutability": "nonpayable",
      "type": "constructor"
    },
    {
      "anonymous": false,
      "inputs": [
        {
          "indexed": true,
          "internalType": "address",
          "name": "previousAdmin",
          "type": "address"
        },
        {
          "indexed": true,
          "internalType": "address",
          "name": "newAdmin",
          "type": "address"
        }
      ],
      "name": "AdminTransferred",
      "type": "event"
    },
    {
      "anonymous": false,
      "inputs": [
        {
          "indexed": true,
          "internalType": "uint256",
          "name": "_orderID",
          "type": "uint256"
        },
        {
          "indexed": false,
          "internalType": "enum Unipeer.Party",
          "name": "_party",
          "type": "uint8"
        },
        {
          "indexed": false,
          "internalType": "address",
          "name": "_contributor",
          "type": "address"
        },
        {
          "indexed": false,
          "internalType": "uint256",
          "name": "_amount",
          "type": "uint256"
        }
      ],
      "name": "AppealContribution",
      "type": "event"
    },
    {
      "anonymous": false,
      "inputs": [
        {
          "indexed": true,
          "internalType": "uint256",
          "name": "orderID",
          "type": "uint256"
        },
        {
          "indexed": false,
          "internalType": "address",
          "name": "buyer",
          "type": "address"
        },
        {
          "indexed": false,
          "internalType": "uint16",
          "name": "paymentID",
          "type": "uint16"
        },
        {
          "indexed": false,
          "internalType": "address",
          "name": "seller",
          "type": "address"
        },
        {
          "indexed": false,
          "internalType": "contract IERC20",
          "name": "token",
          "type": "address"
        },
        {
          "indexed": false,
          "internalType": "uint256",
          "name": "amount",
          "type": "uint256"
        },
        {
          "indexed": false,
          "internalType": "uint256",
          "name": "feeAmount",
          "type": "uint256"
        },
        {
          "indexed": false,
          "internalType": "uint256",
          "name": "sellerFeeAmount",
          "type": "uint256"
        }
      ],
      "name": "BuyOrder",
      "type": "event"
    },
    {
      "anonymous": false,
      "inputs": [
        {
          "indexed": true,
          "internalType": "contract IArbitrator",
          "name": "_arbitrator",
          "type": "address"
        },
        {
          "indexed": true,
          "internalType": "uint256",
          "name": "_disputeID",
          "type": "uint256"
        },
        {
          "indexed": false,
          "internalType": "uint256",
          "name": "_metaEvidenceID",
          "type": "uint256"
        },
        {
          "indexed": false,
          "internalType": "uint256",
          "name": "_evidenceGroupID",
          "type": "uint256"
        }
      ],
      "name": "Dispute",
      "type": "event"
    },
    {
      "anonymous": false,
      "inputs": [
        {
          "indexed": true,
          "internalType": "contract IArbitrator",
          "name": "_arbitrator",
          "type": "address"
        },
        {
          "indexed": true,
          "internalType": "uint256",
          "name": "_evidenceGroupID",
          "type": "uint256"
        },
        {
          "indexed": true,
          "internalType": "address",
          "name": "_party",
          "type": "address"
        },
        {
          "indexed": false,
          "internalType": "string",
          "name": "_evidence",
          "type": "string"
        }
      ],
      "name": "Evidence",
      "type": "event"
    },
    {
      "anonymous": false,
      "inputs": [
        {
          "indexed": false,
          "internalType": "uint256",
          "name": "amount",
          "type": "uint256"
        }
      ],
      "name": "FeeWithdrawn",
      "type": "event"
    },
    {
      "anonymous": false,
      "inputs": [
        {
          "indexed": true,
          "internalType": "uint256",
          "name": "_orderID",
          "type": "uint256"
        },
        {
          "indexed": false,
          "internalType": "enum Unipeer.Party",
          "name": "_party",
          "type": "uint8"
        }
      ],
      "name": "HasPaidAppealFee",
      "type": "event"
    },
    {
      "anonymous": false,
      "inputs": [
        {
          "indexed": true,
          "internalType": "uint256",
          "name": "_metaEvidenceID",
          "type": "uint256"
        },
        {
          "indexed": false,
          "internalType": "string",
          "name": "_evidence",
          "type": "string"
        }
      ],
      "name": "MetaEvidence",
      "type": "event"
    },
    {
      "anonymous": false,
      "inputs": [
        {
          "indexed": true,
          "internalType": "uint256",
          "name": "orderID",
          "type": "uint256"
        }
      ],
      "name": "OrderComplete",
      "type": "event"
    },
    {
      "anonymous": false,
      "inputs": [
        {
          "indexed": true,
          "internalType": "uint256",
          "name": "orderID",
          "type": "uint256"
        }
      ],
      "name": "OrderResolved",
      "type": "event"
    },
    {
      "anonymous": false,
      "inputs": [
        {
          "indexed": true,
          "internalType": "uint256",
          "name": "orderID",
          "type": "uint256"
        }
      ],
      "name": "Paid",
      "type": "event"
    },
    {
      "anonymous": false,
      "inputs": [
        {
          "indexed": true,
          "internalType": "uint16",
          "name": "paymentID",
          "type": "uint16"
        },
        {
          "indexed": false,
          "internalType": "string",
          "name": "paymentName",
          "type": "string"
        },
        {
          "indexed": false,
          "internalType": "uint256",
          "name": "metaEvidenceID",
          "type": "uint256"
        }
      ],
      "name": "PaymentMethodUpdate",
      "type": "event"
    },
    {
      "anonymous": false,
      "inputs": [
        {
          "indexed": true,
          "internalType": "contract IArbitrator",
          "name": "_arbitrator",
          "type": "address"
        },
        {
          "indexed": true,
          "internalType": "uint256",
          "name": "_disputeID",
          "type": "uint256"
        },
        {
          "indexed": false,
          "internalType": "uint256",
          "name": "_ruling",
          "type": "uint256"
        }
      ],
      "name": "Ruling",
      "type": "event"
    },
    {
      "anonymous": false,
      "inputs": [
        {
          "indexed": true,
          "internalType": "address",
          "name": "sender",
          "type": "address"
        },
        {
          "indexed": false,
          "internalType": "contract IERC20",
          "name": "token",
          "type": "address"
        },
        {
          "indexed": false,
          "internalType": "uint256",
          "name": "amount",
          "type": "uint256"
        }
      ],
      "name": "SellerDeposit",
      "type": "event"
    },
    {
      "anonymous": false,
      "inputs": [
        {
          "indexed": true,
          "internalType": "address",
          "name": "sender",
          "type": "address"
        },
        {
          "indexed": false,
          "internalType": "uint16",
          "name": "paymentID",
          "type": "uint16"
        },
        {
          "indexed": false,
          "internalType": "string",
          "name": "paymentAddress",
          "type": "string"
        },
        {
          "indexed": false,
          "internalType": "uint256",
          "name": "feeRate",
          "type": "uint256"
        }
      ],
      "name": "SellerPaymentMethod",
      "type": "event"
    },
    {
      "anonymous": false,
      "inputs": [
        {
          "indexed": true,
          "internalType": "address",
          "name": "sender",
          "type": "address"
        },
        {
          "indexed": false,
          "internalType": "contract IERC20",
          "name": "token",
          "type": "address"
        },
        {
          "indexed": false,
          "internalType": "uint256",
          "name": "amount",
          "type": "uint256"
        }
      ],
      "name": "SellerWithdraw",
      "type": "event"
    },
    {
      "anonymous": false,
      "inputs": [
        {
          "indexed": true,
          "internalType": "uint256",
          "name": "orderID",
          "type": "uint256"
        }
      ],
      "name": "TimedOutByBuyer",
      "type": "event"
    },
    {
      "anonymous": false,
      "inputs": [
        {
          "indexed": true,
          "internalType": "uint256",
          "name": "orderID",
          "type": "uint256"
        }
      ],
      "name": "TimedOutBySeller",
      "type": "event"
    },
    {
      "inputs": [
        {
          "internalType": "string",
          "name": "_metaEvidence",
          "type": "string"
        }
      ],
      "name": "addMetaEvidence",
      "outputs": [
        {
          "internalType": "uint256",
          "name": "metaEvidenceID",
          "type": "uint256"
        }
      ],
      "stateMutability": "nonpayable",
      "type": "function"
    },
    {
      "inputs": [
        {
          "internalType": "string",
          "name": "_paymentName",
          "type": "string"
        },
        {
          "internalType": "uint256",
          "name": "_metaEvidenceID",
          "type": "uint256"
        },
        {
          "internalType": "contract IERC20",
          "name": "_initalEnabledToken",
          "type": "address"
        }
      ],
      "name": "addPaymentMethod",
      "outputs": [],
      "stateMutability": "nonpayable",
      "type": "function"
    },
    {
      "inputs": [],
      "name": "admin",
      "outputs": [
        {
          "internalType": "address",
          "name": "",
          "type": "address"
        }
      ],
      "stateMutability": "view",
      "type": "function"
    },
    {
      "inputs": [],
      "name": "arbitrator",
      "outputs": [
        {
          "internalType": "contract IArbitrator",
          "name": "",
          "type": "address"
        }
      ],
      "stateMutability": "view",
      "type": "function"
    },
    {
      "inputs": [],
      "name": "arbitratorExtraData",
      "outputs": [
        {
          "internalType": "bytes",
          "name": "",
          "type": "bytes"
        }
      ],
      "stateMutability": "view",
      "type": "function"
    },
    {
      "inputs": [
        {
          "internalType": "address payable",
          "name": "_beneficiary",
          "type": "address"
        },
        {
          "internalType": "uint256",
          "name": "_orderID",
          "type": "uint256"
        },
        {
          "internalType": "uint256",
          "name": "_cursor",
          "type": "uint256"
        },
        {
          "internalType": "uint256",
          "name": "_count",
          "type": "uint256"
        }
      ],
      "name": "batchRoundWithdraw",
      "outputs": [],
      "stateMutability": "nonpayable",
      "type": "function"
    },
    {
      "inputs": [
        {
          "internalType": "uint16",
          "name": "_paymentID",
          "type": "uint16"
        },
        {
          "internalType": "address",
          "name": "_seller",
          "type": "address"
        },
        {
          "internalType": "contract IERC20",
          "name": "_token",
          "type": "address"
        },
        {
          "internalType": "uint256",
          "name": "_amount",
          "type": "uint256"
        }
      ],
      "name": "buyOrder",
      "outputs": [],
      "stateMutability": "payable",
      "type": "function"
    },
    {
      "inputs": [],
      "name": "buyerTimeout",
      "outputs": [
        {
          "internalType": "uint256",
          "name": "",
          "type": "uint256"
        }
      ],
      "stateMutability": "view",
      "type": "function"
    },
    {
      "inputs": [
        {
          "internalType": "address",
          "name": "_newAdmin",
          "type": "address"
        }
      ],
      "name": "changeAdmin",
      "outputs": [],
      "stateMutability": "nonpayable",
      "type": "function"
    },
    {
      "inputs": [
        {
          "internalType": "contract IArbitrator",
          "name": "_arbitrator",
          "type": "address"
        },
        {
          "internalType": "bytes",
          "name": "_arbitratorExtraData",
          "type": "bytes"
        }
      ],
      "name": "changeArbitrator",
      "outputs": [],
      "stateMutability": "nonpayable",
      "type": "function"
    },
    {
      "inputs": [
        {
          "internalType": "uint256",
          "name": "_timeout",
          "type": "uint256"
        }
      ],
      "name": "changeBuyerTimeout",
      "outputs": [],
      "stateMutability": "nonpayable",
      "type": "function"
    },
    {
      "inputs": [
        {
          "internalType": "uint256",
          "name": "_feeRate",
          "type": "uint256"
        }
      ],
      "name": "changeFees",
      "outputs": [],
      "stateMutability": "nonpayable",
      "type": "function"
    },
    {
      "inputs": [
        {
          "internalType": "uint256",
          "name": "_timeout",
          "type": "uint256"
        }
      ],
      "name": "changeSellerTimeout",
      "outputs": [],
      "stateMutability": "nonpayable",
      "type": "function"
    },
    {
      "inputs": [
        {
          "internalType": "uint256",
          "name": "_orderID",
          "type": "uint256"
        }
      ],
      "name": "completeOrder",
      "outputs": [],
      "stateMutability": "nonpayable",
      "type": "function"
    },
    {
      "inputs": [
        {
          "internalType": "uint256",
          "name": "_orderID",
          "type": "uint256"
        }
      ],
      "name": "confirmPaid",
      "outputs": [],
      "stateMutability": "nonpayable",
      "type": "function"
    },
    {
      "inputs": [
        {
          "internalType": "uint16",
          "name": "_paymentID",
          "type": "uint16"
        },
        {
          "internalType": "contract IERC20",
          "name": "_token",
          "type": "address"
        },
        {
          "internalType": "uint256",
          "name": "_amount",
          "type": "uint256"
        }
      ],
      "name": "depositTokens",
      "outputs": [],
      "stateMutability": "nonpayable",
      "type": "function"
    },
    {
      "inputs": [
        {
          "internalType": "uint256",
          "name": "_orderID",
          "type": "uint256"
        }
      ],
      "name": "disputeOrder",
      "outputs": [],
      "stateMutability": "payable",
      "type": "function"
    },
    {
      "inputs": [
        {
          "internalType": "uint256",
          "name": "_orderID",
          "type": "uint256"
        },
        {
          "internalType": "enum Unipeer.Party",
          "name": "_side",
          "type": "uint8"
        }
      ],
      "name": "fundAppeal",
      "outputs": [],
      "stateMutability": "payable",
      "type": "function"
    },
    {
      "inputs": [
        {
          "internalType": "uint256",
          "name": "_orderID",
          "type": "uint256"
        },
        {
          "internalType": "uint256",
          "name": "_round",
          "type": "uint256"
        },
        {
          "internalType": "address",
          "name": "_contributor",
          "type": "address"
        }
      ],
      "name": "getContributions",
      "outputs": [
        {
          "internalType": "uint256[3]",
          "name": "contributions",
          "type": "uint256[3]"
        }
      ],
      "stateMutability": "view",
      "type": "function"
    },
    {
      "inputs": [],
      "name": "getCountOrders",
      "outputs": [
        {
          "internalType": "uint256",
          "name": "",
          "type": "uint256"
        }
      ],
      "stateMutability": "view",
      "type": "function"
    },
    {
      "inputs": [
        {
          "internalType": "uint256",
          "name": "_orderID",
          "type": "uint256"
        }
      ],
      "name": "getNumberOfRounds",
      "outputs": [
        {
          "internalType": "uint256",
          "name": "",
          "type": "uint256"
        }
      ],
      "stateMutability": "view",
      "type": "function"
    },
    {
      "inputs": [
        {
          "internalType": "uint256",
          "name": "_orderID",
          "type": "uint256"
        }
      ],
      "name": "getOrderFeeAmount",
      "outputs": [
        {
          "internalType": "uint256",
          "name": "fee",
          "type": "uint256"
        },
        {
          "internalType": "uint256",
          "name": "tradeAmount",
          "type": "uint256"
        }
      ],
      "stateMutability": "view",
      "type": "function"
    },
    {
      "inputs": [
        {
          "internalType": "uint16",
          "name": "_paymentID",
          "type": "uint16"
        },
        {
          "internalType": "address",
          "name": "_seller",
          "type": "address"
        }
      ],
      "name": "getPaymentMethodAddress",
      "outputs": [
        {
          "internalType": "string",
          "name": "",
          "type": "string"
        }
      ],
      "stateMutability": "view",
      "type": "function"
    },
    {
      "inputs": [
        {
          "internalType": "uint16",
          "name": "_paymentID",
          "type": "uint16"
        },
        {
          "internalType": "address",
          "name": "_seller",
          "type": "address"
        }
      ],
      "name": "getPaymentMethodSellerFeeRate",
      "outputs": [
        {
          "internalType": "uint256",
          "name": "fee",
          "type": "uint256"
        }
      ],
      "stateMutability": "view",
      "type": "function"
    },
    {
      "inputs": [
        {
          "internalType": "uint16",
          "name": "_paymentID",
          "type": "uint16"
        },
        {
          "internalType": "contract IERC20",
          "name": "_token",
          "type": "address"
        }
      ],
      "name": "getPaymentMethodToken",
      "outputs": [
        {
          "internalType": "bool",
          "name": "",
          "type": "bool"
        }
      ],
      "stateMutability": "view",
      "type": "function"
    },
    {
      "inputs": [
        {
          "internalType": "uint256",
          "name": "_orderID",
          "type": "uint256"
        },
        {
          "internalType": "uint256",
          "name": "_round",
          "type": "uint256"
        }
      ],
      "name": "getRoundInfo",
      "outputs": [
        {
          "internalType": "uint256[3]",
          "name": "paidFees",
          "type": "uint256[3]"
        },
        {
          "internalType": "enum Unipeer.Party",
          "name": "sideFunded",
          "type": "uint8"
        },
        {
          "internalType": "uint256",
          "name": "feeRewards",
          "type": "uint256"
        },
        {
          "internalType": "bool",
          "name": "appealed",
          "type": "bool"
        }
      ],
      "stateMutability": "view",
      "type": "function"
    },
    {
      "inputs": [],
      "name": "loserStakeMultiplier",
      "outputs": [
        {
          "internalType": "uint256",
          "name": "",
          "type": "uint256"
        }
      ],
      "stateMutability": "view",
      "type": "function"
    },
    {
      "inputs": [],
      "name": "metaEvidenceUpdates",
      "outputs": [
        {
          "internalType": "uint256",
          "name": "",
          "type": "uint256"
        }
      ],
      "stateMutability": "view",
      "type": "function"
    },
    {
      "inputs": [
        {
          "internalType": "uint16",
          "name": "",
          "type": "uint16"
        }
      ],
      "name": "paymentMethods",
      "outputs": [
        {
          "internalType": "uint256",
          "name": "metaEvidenceID",
          "type": "uint256"
        },
        {
          "internalType": "string",
          "name": "paymentName",
          "type": "string"
        }
      ],
      "stateMutability": "view",
      "type": "function"
    },
    {
      "inputs": [],
      "name": "protocolFeesSum",
      "outputs": [
        {
          "internalType": "uint256",
          "name": "",
          "type": "uint256"
        }
      ],
      "stateMutability": "view",
      "type": "function"
    },
    {
      "inputs": [],
      "name": "relay",
      "outputs": [
        {
          "internalType": "address",
          "name": "",
          "type": "address"
        }
      ],
      "stateMutability": "view",
      "type": "function"
    },
    {
      "inputs": [
        {
          "internalType": "uint256",
          "name": "_disputeID",
          "type": "uint256"
        },
        {
          "internalType": "uint256",
          "name": "_ruling",
          "type": "uint256"
        }
      ],
      "name": "rule",
      "outputs": [],
      "stateMutability": "nonpayable",
      "type": "function"
    },
    {
      "inputs": [],
      "name": "sellerTimeout",
      "outputs": [
        {
          "internalType": "uint256",
          "name": "",
          "type": "uint256"
        }
      ],
      "stateMutability": "view",
      "type": "function"
    },
    {
      "inputs": [],
      "name": "sharedStakeMultiplier",
      "outputs": [
        {
          "internalType": "uint256",
          "name": "",
          "type": "uint256"
        }
      ],
      "stateMutability": "view",
      "type": "function"
    },
    {
      "inputs": [
        {
          "internalType": "uint256",
          "name": "_orderID",
          "type": "uint256"
        },
        {
          "internalType": "string",
          "name": "_evidence",
          "type": "string"
        }
      ],
      "name": "submitEvidence",
      "outputs": [],
      "stateMutability": "nonpayable",
      "type": "function"
    },
    {
      "inputs": [
        {
          "internalType": "uint256",
          "name": "_orderID",
          "type": "uint256"
        }
      ],
      "name": "timeoutByBuyer",
      "outputs": [],
      "stateMutability": "nonpayable",
      "type": "function"
    },
    {
      "inputs": [
        {
          "internalType": "uint256",
          "name": "_orderID",
          "type": "uint256"
        }
      ],
      "name": "timeoutBySeller",
      "outputs": [],
      "stateMutability": "nonpayable",
      "type": "function"
    },
    {
      "inputs": [
        {
          "internalType": "address",
          "name": "",
          "type": "address"
        },
        {
          "internalType": "contract IERC20",
          "name": "",
          "type": "address"
        }
      ],
      "name": "tokenBalance",
      "outputs": [
        {
          "internalType": "uint256",
          "name": "",
          "type": "uint256"
        }
      ],
      "stateMutability": "view",
      "type": "function"
    },
    {
      "inputs": [],
      "name": "totalPaymentMethods",
      "outputs": [
        {
          "internalType": "uint16",
          "name": "",
          "type": "uint16"
        }
      ],
      "stateMutability": "view",
      "type": "function"
    },
    {
      "inputs": [],
      "name": "tradeFeeRate",
      "outputs": [
        {
          "internalType": "uint256",
          "name": "",
          "type": "uint256"
        }
      ],
      "stateMutability": "view",
      "type": "function"
    },
    {
      "inputs": [
        {
          "internalType": "uint16",
          "name": "_paymentID",
          "type": "uint16"
        },
        {
          "internalType": "uint256",
          "name": "_metaEvidenceID",
          "type": "uint256"
        }
      ],
      "name": "updatePaymentMetaEvidence",
      "outputs": [],
      "stateMutability": "nonpayable",
      "type": "function"
    },
    {
      "inputs": [
        {
          "internalType": "uint16",
          "name": "_paymentID",
          "type": "uint16"
        },
        {
          "internalType": "string",
          "name": "_paymentName",
          "type": "string"
        }
      ],
      "name": "updatePaymentName",
      "outputs": [],
      "stateMutability": "nonpayable",
      "type": "function"
    },
    {
      "inputs": [
        {
          "internalType": "uint16",
          "name": "_paymentID",
          "type": "uint16"
        },
        {
          "internalType": "string",
          "name": "_paymentAddress",
          "type": "string"
        },
        {
          "internalType": "uint256",
          "name": "_feeRate",
          "type": "uint256"
        }
      ],
      "name": "updateSellerPaymentMethod",
      "outputs": [],
      "stateMutability": "nonpayable",
      "type": "function"
    },
    {
      "inputs": [
        {
          "internalType": "uint16",
          "name": "_paymentID",
          "type": "uint16"
        },
        {
          "internalType": "contract IERC20",
          "name": "_token",
          "type": "address"
        },
        {
          "internalType": "bool",
          "name": "_enabled",
          "type": "bool"
        }
      ],
      "name": "updateTokenEnabled",
      "outputs": [],
      "stateMutability": "nonpayable",
      "type": "function"
    },
    {
      "inputs": [],
      "name": "winnerStakeMultiplier",
      "outputs": [
        {
          "internalType": "uint256",
          "name": "",
          "type": "uint256"
        }
      ],
      "stateMutability": "view",
      "type": "function"
    },
    {
      "inputs": [
        {
          "internalType": "uint256",
          "name": "_amount",
          "type": "uint256"
        },
        {
          "internalType": "address payable",
          "name": "_to",
          "type": "address"
        }
      ],
      "name": "withdrawFees",
      "outputs": [],
      "stateMutability": "nonpayable",
      "type": "function"
    },
    {
      "inputs": [
        {
          "internalType": "address payable",
          "name": "_beneficiary",
          "type": "address"
        },
        {
          "internalType": "uint256",
          "name": "_orderID",
          "type": "uint256"
        },
        {
          "internalType": "uint256",
          "name": "_round",
          "type": "uint256"
        }
      ],
      "name": "withdrawFeesAndRewards",
      "outputs": [],
      "stateMutability": "nonpayable",
      "type": "function"
    },
    {
      "inputs": [
        {
          "internalType": "contract IERC20",
          "name": "_token",
          "type": "address"
        },
        {
          "internalType": "uint256",
          "name": "_amount",
          "type": "uint256"
        }
      ],
      "name": "withdrawTokens",
      "outputs": [],
      "stateMutability": "nonpayable",
      "type": "function"
    }
  ],
  "bytecode": {
    "object": "0x60e06040523480156200001157600080fd5b5060405162004f1438038062004f14833981016040819052620000349162000189565b600080546001600160a01b03808e166001600160a01b031992831617909255600180548d8416908316179055600c8054928b1692909116919091179055600d6200007f8882620002fd565b5060079590955560089390935560809190915260a05260c05260035550620003c99350505050565b80516001600160a01b0381168114620000bf57600080fd5b919050565b634e487b7160e01b600052604160045260246000fd5b600082601f830112620000ec57600080fd5b81516001600160401b0380821115620001095762000109620000c4565b604051601f8301601f19908116603f01168101908282118183101715620001345762000134620000c4565b816040528381526020925086838588010111156200015157600080fd5b600091505b8382101562000175578582018301518183018401529082019062000156565b600093810190920192909252949350505050565b60008060008060008060008060008060006101608c8e031215620001ac57600080fd5b620001b78c620000a7565b9a50620001c760208d01620000a7565b60408d0151909a506001600160401b03811115620001e457600080fd5b620001f28e828f01620000da565b9950506200020360608d01620000a7565b60808d01519098506001600160401b038111156200022057600080fd5b6200022e8e828f01620000da565b97505060a08c0151955060c08c0151945060e08c015193506101008c015192506101208c015191506101408c015190509295989b509295989b9093969950565b600181811c908216806200028357607f821691505b602082108103620002a457634e487b7160e01b600052602260045260246000fd5b50919050565b601f821115620002f857600081815260208120601f850160051c81016020861015620002d35750805b601f850160051c820191505b81811015620002f457828155600101620002df565b5050505b505050565b81516001600160401b03811115620003195762000319620000c4565b62000331816200032a84546200026e565b84620002aa565b602080601f831160018114620003695760008415620003505750858301515b600019600386901b1c1916600185901b178555620002f4565b600085815260208120601f198616915b828110156200039a5788860151825594840194600190910190840162000379565b5085821015620003b95787850151600019600388901b60f8161c191681555b5050505050600190811b01905550565b60805160a05160c051614b066200040e600039600081816103ca01526110fc015260008181610645015261101a01526000818161045e015261104a0152614b066000f3fe6080604052600436106102935760003560e01c80637b9433831161015a578063b59589d1116100c1578063dd2cc3f31161007a578063dd2cc3f31461088a578063e8cfe7ac146108aa578063f07dbd00146108ca578063f851a440146108ea578063fbef70451461090a578063fc6f8f161461092057600080fd5b8063b59589d1146107bf578063b6694b7b146107df578063b6adaaff146107ff578063ba7079ca1461081f578063bc9ebc5f1461083f578063dc2a7e5f1461087457600080fd5b806398f1c1621161011357806398f1c162146107175780639e324aea1461072c578063a09970b21461074c578063a6a7f0eb1461075f578063abaa14ff1461077f578063ae1a38ed1461079f57600080fd5b80637b94338314610633578063870026f114610667578063889d7f15146106875780638a9bb02a146106a75780638f283970146106d757806396917abe146106f757600080fd5b806346639cca116101fe5780636b7e9eff116101b75780636b7e9eff1461053a5780636cc6cde11461055a5780636cda375b146105925780636cdc090f146105b25780636e99a23a146105c85780636ea8b5ea146105e857600080fd5b806346639cca146104805780634b2dd8f4146104ae5780634db092b4146104ce57806364ac92f2146104e457806368c76ffd146104f75780636b04b9cf1461052457600080fd5b806312b3a2c01161025057806312b3a2c0146103a55780631d512085146103b8578063311a6c56146103ec578063339ac67c1461040c578063382a2b861461042c578063416583411461044c57600080fd5b806301e6e5151461029857806306b091f9146102ba578063075a5415146102da5780630c7ac7b61461030f5780630cd4384d146103315780631049334f1461035f575b600080fd5b3480156102a457600080fd5b506102b86102b3366004613f3e565b610940565b005b3480156102c657600080fd5b506102b86102d5366004613f6f565b610af5565b3480156102e657600080fd5b506102fa6102f5366004613fb2565b610c4f565b60405190151581526020015b60405180910390f35b34801561031b57600080fd5b50610324610c84565b6040516103069190614039565b34801561033d57600080fd5b5061035161034c36600461404c565b610d12565b604051610306929190614067565b34801561036b57600080fd5b5061039761037a366004614080565b600960209081526000928352604080842090915290825290205481565b604051908152602001610306565b6102b86103b336600461409e565b610db7565b3480156103c457600080fd5b506103977f000000000000000000000000000000000000000000000000000000000000000081565b3480156103f857600080fd5b506102b86104073660046140c7565b611579565b34801561041857600080fd5b506102b86104273660046140e9565b6117a5565b34801561043857600080fd5b506102b8610447366004613f3e565b611943565b34801561045857600080fd5b506103977f000000000000000000000000000000000000000000000000000000000000000081565b34801561048c57600080fd5b5060045461049b9061ffff1681565b60405161ffff9091168152602001610306565b3480156104ba57600080fd5b506102b86104c9366004614124565b611ab2565b3480156104da57600080fd5b5061039760075481565b6102b86104f2366004614163565b611c35565b34801561050357600080fd5b506105176105123660046141b2565b6121de565b604051610306919061420e565b34801561053057600080fd5b5061039760035481565b34801561054657600080fd5b506102b861055536600461425e565b612279565b34801561056657600080fd5b50600c5461057a906001600160a01b031681565b6040516001600160a01b039091168152602001610306565b34801561059e57600080fd5b506102b86105ad366004613f3e565b6123b2565b3480156105be57600080fd5b5061039760065481565b3480156105d457600080fd5b506102b86105e33660046142bd565b612411565b3480156105f457600080fd5b50610397610603366004613fb2565b61ffff90911660009081526005602090815260408083206001600160a01b03909416835260049093019052205490565b34801561063f57600080fd5b506103977f000000000000000000000000000000000000000000000000000000000000000081565b34801561067357600080fd5b506102b8610682366004613f3e565b612558565b34801561069357600080fd5b506103246106a2366004613fb2565b61272d565b3480156106b357600080fd5b506106c76106c23660046140c7565b6127f0565b604051610306949392919061432a565b3480156106e357600080fd5b506102b86106f236600461435c565b6128ae565b34801561070357600080fd5b506102b8610712366004614379565b612906565b34801561072357600080fd5b50600b54610397565b34801561073857600080fd5b506102b86107473660046143d3565b6129d8565b6102b861075a366004613f3e565b612ab2565b34801561076b57600080fd5b506102b861077a3660046143ef565b612df3565b34801561078b57600080fd5b506102b861079a366004614449565b613066565b3480156107ab57600080fd5b506102b86107ba366004614487565b6130d6565b3480156107cb57600080fd5b5060015461057a906001600160a01b031681565b3480156107eb57600080fd5b506103976107fa3660046144c1565b613165565b34801561080b57600080fd5b506102b861081a366004613f3e565b6131c5565b34801561082b57600080fd5b506102b861083a366004614503565b613392565b34801561084b57600080fd5b5061085f61085a366004613f3e565b6133c8565b60408051928352602083019190915201610306565b34801561088057600080fd5b5061039760085481565b34801561089657600080fd5b506102b86108a5366004614523565b61340f565b3480156108b657600080fd5b506102b86108c5366004613f3e565b6134a9565b3480156108d657600080fd5b506102b86108e5366004613f3e565b6134b6565b3480156108f657600080fd5b5060005461057a906001600160a01b031681565b34801561091657600080fd5b5061039760025481565b34801561092c57600080fd5b5061039761093b366004613f3e565b6134c3565b600b54811061096a5760405162461bcd60e51b815260040161096190614548565b60405180910390fd5b6000600b828154811061097f5761097f614572565b90600052602060002090600b0201905061099761352f565b60068201546001600160a01b039081169116146109e35760405162461bcd60e51b815260206004820152600a60248201526927b7363c90213abcb2b960b11b6044820152606401610961565b60006009820154600160b01b900460ff166005811115610a0557610a056142f2565b14610a4a5760405162461bcd60e51b815260206004820152601560248201527413dc99195c94dd185d1d5cce880850dc99585d1959605a1b6044820152606401610961565b426007548260050154610a5d919061459e565b1015610aab5760405162461bcd60e51b815260206004820152601c60248201527f5061796d656e7420636f6e6669726d6174696f6e2074696d656f7574000000006044820152606401610961565b42600582015560098101805460ff60b01b1916600160b01b17905560405182907f581d416ae9dff30c9305c2b35cb09ed5991897ab97804db29ccf92678e95316090600090a25050565b8060096000610b0261352f565b6001600160a01b03908116825260208083019390935260409182016000908120918716815292529020541015610b7a5760405162461bcd60e51b815260206004820152601e60248201527f4e6f7420656e6f7567682062616c616e636520746f20776974686472617700006044820152606401610961565b8060096000610b8761352f565b6001600160a01b03166001600160a01b031681526020019081526020016000206000846001600160a01b03166001600160a01b031681526020019081526020016000206000828254610bd991906145b1565b90915550610bfb9050610bea61352f565b6001600160a01b0384169083613597565b610c0361352f565b604080516001600160a01b0385811682526020820185905292909216917f5c9993d2dd44f9c0f3ee9d50711f139df4c5139f8886d073d6666663a14fa639910160405180910390a25050565b61ffff821660009081526005602090815260408083206001600160a01b038516845260020190915290205460ff165b92915050565b600d8054610c91906145c4565b80601f0160208091040260200160405190810160405280929190818152602001828054610cbd906145c4565b8015610d0a5780601f10610cdf57610100808354040283529160200191610d0a565b820191906000526020600020905b815481529060010190602001808311610ced57829003601f168201915b505050505081565b60056020526000908152604090208054600182018054919291610d34906145c4565b80601f0160208091040260200160405190810160405280929190818152602001828054610d60906145c4565b8015610dad5780601f10610d8257610100808354040283529160200191610dad565b820191906000526020600020905b815481529060010190602001808311610d9057829003601f168201915b5050505050905082565b600b548210610dd85760405162461bcd60e51b815260040161096190614548565b6000600b8381548110610ded57610ded614572565b600091825260208220600b909102019150826002811115610e1057610e106142f2565b03610e4c5760405162461bcd60e51b815260206004820152600c60248201526b2bb937b733903830b93a3c9760a11b6044820152606401610961565b60046009820154600160b01b900460ff166005811115610e6e57610e6e6142f2565b14610eb25760405162461bcd60e51b8152602060048201526014602482015273139bc8191a5cdc1d5d19481d1bc8185c1c19585b60621b6044820152606401610961565b600881015460048083015460405163afe15cfb60e01b81529182015260009182916001600160a01b039091169063afe15cfb906024016040805180830381865afa158015610f04573d6000803e3d6000fd5b505050506040513d601f19601f82011682018060405250810190610f2891906145fe565b91509150814210158015610f3b57508042105b610f875760405162461bcd60e51b815260206004820181905260248201527f46756e64696e67206e6f742077697468696e2061707065616c20706572696f646044820152606401610961565b6008830154600480850154604051631c3db16d60e01b81529182015260009182916001600160a01b0390911690631c3db16d90602401602060405180830381865afa158015610fda573d6000803e3d6000fd5b505050506040513d601f19601f82011682018060405250810190610ffe9190614622565b9050856002811115611012576110126142f2565b8103611040577f0000000000000000000000000000000000000000000000000000000000000000915061111e565b80600003611070577f0000000000000000000000000000000000000000000000000000000000000000915061111e565b600261107c858561459e565b611086919061463b565b42106110fa5760405162461bcd60e51b815260206004820152603d60248201527f546865206c6f736572206d7573742070617920647572696e672074686520666960448201527f7273742068616c66206f66207468652061707065616c20706572696f640000006064820152608401610961565b7f000000000000000000000000000000000000000000000000000000000000000091505b60048501546000908152600a602090815260408083206001810154610100900461ffff168452600280820190935292206003810154909160ff9091169081111561116a5761116a6142f2565b88600281111561117c5761117c6142f2565b036111bb5760405162461bcd60e51b815260206004820152600f60248201526e105c1c19585b08199959481c185a59608a1b6044820152606401610961565b600887015460048089015460405163791f8b7360e11b81526000936001600160a01b03169263f23f16e6926111f7929091600a8e0191016146da565b602060405180830381865afa158015611214573d6000803e3d6000fd5b505050506040513d601f19601f820116820180604052508101906112389190614622565b9050600061271061124987846146f3565b611253919061463b565b61125d908361459e565b905060008061129a34868e6002811115611279576112796142f2565b6003811061128957611289614572565b015461129590866145b1565b6135ff565b9092509050816005860160006112ae61352f565b6001600160a01b03166001600160a01b031681526020019081526020016000208d60028111156112e0576112e06142f2565b600381106112f0576112f0614572565b016000828254611300919061459e565b90915550829050858d600281111561131a5761131a6142f2565b6003811061132a5761132a614572565b01600082825461133a919061459e565b909155508d90507f22039e79a27860a038aece214124c8ecef12fdc1334feb8e8a157a0ae16a1db48d61136b61352f565b8560405161137b9392919061470a565b60405180910390a280156113b95761139161352f565b6001600160a01b03166108fc829081150290604051600060405180830381858888f150505050505b50819050838b60028111156113d0576113d06142f2565b600381106113e0576113e0614572565b01541061156c576000600384015460ff166002811115611402576114026142f2565b03611432576003830180548b919060ff19166001836002811115611428576114286142f2565b0217905550611533565b8860080160009054906101000a90046001600160a01b03166001600160a01b03166349912f88838b600401548c600a016040518463ffffffff1660e01b815260040161147f9291906146da565b6000604051808303818588803b15801561149857600080fd5b505af11580156114ac573d6000803e3d6000fd5b50859350869250600291506114be9050565b600381106114ce576114ce614572565b015484600101546114df919061459e565b6114e991906145b1565b600484015560018481018054610100900461ffff169161150883614732565b825461ffff9182166101009390930a92830291909202199091161790555060038301805460ff191690555b8a7f213276d821d6205d87fa4f4658db4bf5a24a2323b0fdd8ffcd239c445f86a57b8b6040516115639190614753565b60405180910390a25b5050505050505050505050565b6000828152600a602052604081208054600b805492939290919081106115a1576115a1614572565b60009182526020909120600b9091020160088101549091506001600160a01b031633146116025760405162461bcd60e51b815260206004820152600f60248201526e27b7363c9030b93134ba3930ba37b960891b6044820152606401610961565b60056009820154600160b01b900460ff166005811115611624576116246142f2565b036116715760405162461bcd60e51b815260206004820152601960248201527f204469737075746520616c7265616479207265736f6c766564000000000000006044820152606401610961565b600182810154610100900461ffff166000908152600284016020526040902090600382015460ff1660028111156116aa576116aa6142f2565b036116c7576001838101805460ff191682805b0217905550611738565b6002600382015460ff1660028111156116e2576116e26142f2565b036116fe576001808401805460029260ff1990911690836116bd565b836002811115611710576117106142f2565b60018085018054909160ff1990911690836002811115611732576117326142f2565b02179055505b6117418561362c565b6008820154600184015486916001600160a01b0316907f394027a5fa6e098a1191094d1719d6929b9abc535fcc0c8f448d6a4e756222769060ff16600281111561178d5761178d6142f2565b60405190815260200160405180910390a35050505050565b6000600b84815481106117ba576117ba614572565b60009182526020909120600b90910201905060056009820154600160b01b900460ff1660058111156117ee576117ee6142f2565b1461183b5760405162461bcd60e51b815260206004820152601b60248201527f546865206f72646572206d757374206265207265736f6c7665642e00000000006044820152606401610961565b60048101546000908152600a60205260409020805485146118915760405162461bcd60e51b815260206004820152601060248201526f2ab73234b9b83aba32b21037b93232b960811b6044820152606401610961565b600181015460009060ff1660028111156118ad576118ad6142f2565b6001830154909150600090610100900461ffff16865b8181111580156118e357508615806118e357506118e0878961459e565b81105b15611912576118f48a8a83876139d0565b6118fe908461459e565b92508061190a81614761565b9150506118c3565b506040516001600160a01b038a169083156108fc029084906000818181858888f15050505050505050505050505050565b600b5481106119645760405162461bcd60e51b815260040161096190614548565b6000600b828154811061197957611979614572565b60009182526020909120600b90910201905060016009820154600160b01b900460ff1660058111156119ad576119ad6142f2565b146119ef5760405162461bcd60e51b815260206004820152601260248201527113dc99195c94dd185d1d5cce880854185a5960721b6044820152606401610961565b426008548260050154611a02919061459e565b10611a4f5760405162461bcd60e51b815260206004820152601e60248201527f436f6d706c6574696f6e20706572696f64204e4f542074696d65646f757400006044820152606401610961565b611a5881613b48565b60405182907fa08ae43f66b3bb6dc42d8d01b32cd576235826cfa50d940d0141e0c885df07c890600090a260405182907f18cc2626d53b298add3ec58253b2a64517d5ab3dca9c8eb4b078a2852705c3d890600090a25050565b60045461ffff90811690841610611adb5760405162461bcd60e51b81526004016109619061477a565b61ffff831660009081526005602090815260408083206001600160a01b0386168452600281019092529091205460ff161515600114611b5c5760405162461bcd60e51b815260206004820152601d60248201527f546f6b656e206e6f7420656e61626c656420666f722073656c6c696e670000006044820152606401610961565b8160096000611b6961352f565b6001600160a01b03166001600160a01b031681526020019081526020016000206000856001600160a01b03166001600160a01b031681526020019081526020016000206000828254611bbb919061459e565b90915550611bde9050611bcc61352f565b6001600160a01b038516903085613bf6565b611be661352f565b604080516001600160a01b0386811682526020820186905292909216917f223333d41820f8f24aa9d9555d0c8e92398a489801fe2bb8ba5d674530a9804291015b60405180910390a250505050565b60045461ffff90811690851610611c865760405162461bcd60e51b815260206004820152601560248201527414185e5b595b9d13595d1a1bd90e8808515e1a5cdd605a1b6044820152606401610961565b61ffff841660009081526005602090815260408083206001600160a01b0387168452600381019092529091208054611cbd906145c4565b9050600003611d075760405162461bcd60e51b81526020600482015260166024820152752830bcb6b2b73a26b2ba3437b21d1010a9b2b63632b960511b6044820152606401610961565b6001600160a01b038316600090815260028201602052604090205460ff161515600114611d6e5760405162461bcd60e51b81526020600482015260156024820152742830bcb6b2b73a26b2ba3437b21d1010aa37b5b2b760591b6044820152606401610961565b6001600160a01b03808516600090815260096020908152604080832093871683529290522054821115611de35760405162461bcd60e51b815260206004820152601960248201527f4e6f7420656e6f7567682073656c6c65722062616c616e6365000000000000006044820152606401610961565b600c5460405163f7434ea960e01b81526001600160a01b039091169063f7434ea990611e1490600d906004016147b1565b602060405180830381865afa158015611e31573d6000803e3d6000fd5b505050506040513d601f19601f82011682018060405250810190611e559190614622565b341015611ea05760405162461bcd60e51b8152602060048201526019602482015278105c989a5d1c985d1a5bdb881999595cc81b9bdd081c185a59603a1b6044820152606401610961565b6000611eae83600354613c2e565b506001600160a01b038616600090815260048401602052604081205491925090611ed9908590613c2e565b5090506000611ee882866145b1565b9050600b604051806101a001604052808381526020018581526020013481526020016000815260200160008152602001428152602001611f2661352f565b6001600160a01b0390811682528a81166020830152600c54811660408301528916606082015261ffff8b16608082015260a00160008152602001600d8054611f6d906145c4565b80601f0160208091040260200160405190810160405280929190818152602001828054611f99906145c4565b8015611fe65780601f10611fbb57610100808354040283529160200191611fe6565b820191906000526020600020905b815481529060010190602001808311611fc957829003601f168201915b50505091909252505081546001818101845560009384526020938490208351600b90930201918255928201519281019290925560408101516002830155606081015160038301556080810151600483015560a081015160058084019190915560c08201516006840180546001600160a01b039283166001600160a01b03199182161790915560e08401516007860180549184169183169190911790556101008401516008860180549184169190921617905561012083015160098501805461014086015161ffff16600160a01b026001600160b01b03199091169290931691909117919091178082556101608401519394939260ff60b01b1990911690600160b01b9084908111156120fa576120fa6142f2565b0217905550610180820151600a8201906121149082614828565b5050506001600160a01b038088166000908152600960209081526040808320938a168352929052908120805483929061214e9084906145b1565b9091555050600b54612162906001906145b1565b7f5f2eab4fa5f0102942677eabf209e7fbc8a080d4e0af370d91b4edbe816597d761218b61352f565b604080516001600160a01b03928316815261ffff8d1660208201528b831681830152918a1660608301526080820189905260a0820187905260c08201869052519081900360e00190a25050505050505050565b6121e6613f20565b6000600b85815481106121fb576121fb614572565b60009182526020808320600b9290920290910160048101548352600a825260408084208885526002810184528185206001600160a01b03891686526005810190945293819020815160608101928390529295509060039082845b81548152602001906001019080831161225557505050505093505050509392505050565b612281613c5d565b60065482106122cd5760405162461bcd60e51b8152602060048201526018602482015277125b9d985b1a590813595d1848115d9a59195b98d948125160421b6044820152606401610961565b60048054600091600591839161ffff90911690826122ea83614732565b91906101000a81548161ffff021916908361ffff16021790555061ffff1661ffff1681526020019081526020016000209050848482600101918261232f9291906148e8565b508281556001600160a01b03821660009081526002820160205260409020805460ff1916600190811790915560045461236c919061ffff166149a8565b61ffff167fa9623e6f99664313c60fa7d1499b5d8f01ef311fa403cb5e6b959e01e18e31568686866040516123a3939291906149f3565b60405180910390a25050505050565b6123ba613c5d565b61271081111561240c5760405162461bcd60e51b815260206004820152601d60248201527f666565732063616e6e6f74206265206d6f7265207468616e20313030250000006044820152606401610961565b600355565b6000600b838154811061242657612426614572565b60009182526020909120600b90910201905060056009820154600160b01b900460ff16600581111561245a5761245a6142f2565b146124a75760405162461bcd60e51b815260206004820152601b60248201527f546865206f72646572206d757374206265207265736f6c7665642e00000000006044820152606401610961565b60048101546000908152600a60205260409020805484146124fd5760405162461bcd60e51b815260206004820152601060248201526f2ab73234b9b83aba32b21037b93232b960811b6044820152606401610961565b60018101546000906125289087908790879060ff166002811115612523576125236142f2565b6139d0565b6040519091506001600160a01b0387169082156108fc029083906000818181858888f15050505050505050505050565b600b5481106125795760405162461bcd60e51b815260040161096190614548565b6000600b828154811061258e5761258e614572565b600091825260208220600b9091020191506009820154600160b01b900460ff1660058111156125bf576125bf6142f2565b146126045760405162461bcd60e51b815260206004820152601560248201527413dc99195c94dd185d1d5cce880850dc99585d1959605a1b6044820152606401610961565b426007548260050154612617919061459e565b106126645760405162461bcd60e51b815260206004820181905260248201527f436f6e6669726d6174696f6e20706572696f64204e4f542074696d65646f75746044820152606401610961565b80546002820180546000808555600185018190559182905560098085018054600360b01b60ff60b01b1982161790915560078601546001600160a01b0390811685526020928352604080862091909216855290915282208054919284926126cc90849061459e565b909155505060068301546040516001600160a01b039091169082156108fc029083906000818181858888f150506040518793507f91e3c154ff27b859a148421f882fdc69c8fa7ef2cdde96a9216fb2bd1f79528b925060009150a250505050565b61ffff821660009081526005602090815260408083206001600160a01b03851684526003810190925290912080546060929190612769906145c4565b80601f0160208091040260200160405190810160405280929190818152602001828054612795906145c4565b80156127e25780601f106127b7576101008083540402835291602001916127e2565b820191906000526020600020905b8154815290600101906020018083116127c557829003601f168201915b505050505091505092915050565b6127f8613f20565b600080600080600b878154811061281157612811614572565b60009182526020808320600b929092029091016004818101548452600a835260408085208b865260028101909452938490206003808201549282015460018601548751606081019889905295985095969295869560ff90951694919361010090910461ffff168e141592869182845b8154815260200190600101908083116128805750505050509350965096509650965050505092959194509250565b6128b6613c5d565b600080546001600160a01b038381166001600160a01b0319831681178455604051919092169283917ff8ccb027dfcd135e000e9d45e6cc2d662578a8825d4c45b5e32e0adf67e79ec69190a35050565b60045461ffff9081169085161061292f5760405162461bcd60e51b81526004016109619061477a565b600061293961352f565b61ffff861660009081526005602090815260408083206001600160a01b038516845260038101909252909120919250906129748587836148e8565b506001600160a01b038216600081815260048301602052604090819020859055517f819378d7e3dbb21d585c848b6f7a03879ff407ac1dcb84cff82a9956a562db05906129c8908990899089908990614a17565b60405180910390a2505050505050565b6129e0613c5d565b60045461ffff90811690831610612a095760405162461bcd60e51b81526004016109619061477a565b600654811115612a565760405162461bcd60e51b8152602060048201526018602482015277125b9d985b1a590813595d1848115d9a59195b98d948125160421b6044820152606401610961565b61ffff82166000818152600560205260409081902083815590519091907fa9623e6f99664313c60fa7d1499b5d8f01ef311fa403cb5e6b959e01e18e315690612aa59060018501908690614a46565b60405180910390a2505050565b600b548110612ad35760405162461bcd60e51b815260040161096190614548565b6000600b8281548110612ae857612ae8614572565b90600052602060002090600b02019050612b0061352f565b60078201546001600160a01b03908116911614612b4d5760405162461bcd60e51b815260206004820152600b60248201526a27b7363c9029b2b63632b960a91b6044820152606401610961565b60016009820154600160b01b900460ff166005811115612b6f57612b6f6142f2565b14612bb15760405162461bcd60e51b815260206004820152601260248201527113dc99195c94dd185d1d5cce880854185a5960721b6044820152606401610961565b426008548260050154612bc4919061459e565b1015612c125760405162461bcd60e51b815260206004820152601a60248201527f4f7264657220636f6d706c657465642062792074696d656f75740000000000006044820152606401610961565b600881015460405163f7434ea960e01b81526001600160a01b039091169063f7434ea990612c4790600a8501906004016147b1565b602060405180830381865afa158015612c64573d6000803e3d6000fd5b505050506040513d601f19601f82011682018060405250810190612c889190614622565b341015612cd35760405162461bcd60e51b8152602060048201526019602482015278105c989a5d1c985d1a5bdb881999595cc81b9bdd081c185a59603a1b6044820152606401610961565b346003820181905560098201805460ff60b01b1916600160b21b179055600882015460405163c13517e160e01b81526001600160a01b039091169163c13517e191612d2890600290600a8701906004016146da565b60206040518083038185885af1158015612d46573d6000803e3d6000fd5b50505050506040513d601f19601f82011682018060405250810190612d6b9190614622565b600482018181556000918252600a602090815260408084208681556009860154600160a01b900461ffff1685526005835293819020925460088601548454835190815293840188905290926001600160a01b03909116917f74baab670a4015ab2f1b467c5252a96141a2573f2908e58a92081e80d3cfde3d910160405180910390a350505050565b600b548310612e145760405162461bcd60e51b815260040161096190614548565b6000600b8481548110612e2957612e29614572565b6000918252602091829020604080516101a081018252600b9390930290910180548352600181015493830193909352600283015490820152600382015460608201526004820154608082015260058083015460a083015260068301546001600160a01b0390811660c08401526007840154811660e0840152600884015481166101008401526009840154908116610120840152600160a01b810461ffff16610140840152919291610160840191600160b01b90910460ff1690811115612ef157612ef16142f2565b6005811115612f0257612f026142f2565b8152602001600a82018054612f16906145c4565b80601f0160208091040260200160405190810160405280929190818152602001828054612f42906145c4565b8015612f8f5780601f10612f6457610100808354040283529160200191612f8f565b820191906000526020600020905b815481529060010190602001808311612f7257829003601f168201915b5050505050815250509050600580811115612fac57612fac6142f2565b8161016001516005811115612fc357612fc36142f2565b106130065760405162461bcd60e51b8152602060048201526013602482015272111a5cdc1d5d19481a5cc81c995cdbdb1d9959606a1b6044820152606401610961565b61300e61352f565b6001600160a01b0316848261010001516001600160a01b03167fdccf2f8b2cc26eafcd61905cba744cff4b81d14740725f6376390dc6298a6a3c8686604051613058929190614a68565b60405180910390a450505050565b61306e613c5d565b60045461ffff908116908416106130975760405162461bcd60e51b81526004016109619061477a565b61ffff90921660009081526005602090815260408083206001600160a01b0390941683526002909301905220805491151560ff19909216919091179055565b6130de613c5d565b60045461ffff908116908416106131075760405162461bcd60e51b81526004016109619061477a565b61ffff83166000908152600560205260409020600181016131298385836148e8565b50805460405161ffff8616917fa9623e6f99664313c60fa7d1499b5d8f01ef311fa403cb5e6b959e01e18e315691611c27916001860191614a46565b600061316f613c5d565b6006805490600061317f83614761565b919050559050807f61606860eb6c87306811e2695215385101daab53bd6ab4e9f9049aead9363c7d84846040516131b7929190614a68565b60405180910390a292915050565b600b5481106131e65760405162461bcd60e51b815260040161096190614548565b6000600b82815481106131fb576131fb614572565b90600052602060002090600b0201905061321361352f565b60078201546001600160a01b039081169116146132605760405162461bcd60e51b815260206004820152600b60248201526a27b7363c9029b2b63632b960a91b6044820152606401610961565b60026009820154600160b01b900460ff166005811115613282576132826142f2565b106132cf5760405162461bcd60e51b815260206004820152601860248201527f4f726465725374617475733a20213c436f6d706c6574656400000000000000006044820152606401610961565b60006009820154600160b01b900460ff1660058111156132f1576132f16142f2565b148061330e575042600854826005015461330b919061459e565b10155b61335a5760405162461bcd60e51b815260206004820152601a60248201527f4f7264657220636f6d706c657465642062792074696d656f75740000000000006044820152606401610961565b61336381613b48565b60405182907f18cc2626d53b298add3ec58253b2a64517d5ab3dca9c8eb4b078a2852705c3d890600090a25050565b61339a613c5d565b600c80546001600160a01b0319166001600160a01b038516179055600d6133c28284836148e8565b50505050565b6000806000600b84815481106133e0576133e0614572565b90600052602060002090600b020190508060010154925082816000015461340791906145b1565b915050915091565b613417613c5d565b6002548211156134695760405162461bcd60e51b815260206004820152601d60248201527f416d6f756e74206d6f7265207468616e206163637275656420666565730000006044820152606401610961565b816002600082825461347b91906145b1565b90915550506040516001600160a01b0382169083156108fc029084906000818181858888f150505050505050565b6134b1613c5d565b600855565b6134be613c5d565b600755565b600080600b83815481106134d9576134d9614572565b90600052602060002090600b020190506000600a60008360040154815260200190815260200160002090508060010160019054906101000a900461ffff1660016135239190614a7c565b61ffff16949350505050565b6001546000906001600160a01b0316330361359157600080368080601f0160208091040260200160405190810160405280939291908181526020018383808284376000920191909152505050503601516001600160a01b031691506135949050565b50335b90565b6040516001600160a01b0383166024820152604481018290526135fa90849063a9059cbb60e01b906064015b60408051601f198184030181529190526020810180516001600160e01b03166001600160e01b031990931692909217909152613ca6565b505050565b6000808383111561361557508290506000613625565b61361f83856145b1565b90508291505b9250929050565b6000818152600a602052604081208054600b8054929392909190811061365457613654614572565b600091825260208220600b909102018054600182015460028301546003840154939550919390929061368684866145b1565b60008088556001880181905560028801819055600388015560098701805491925060059160ff60b01b1916600160b01b8302179055506000600188015460ff1660028111156136d7576136d76142f2565b146136f45783600260008282546136ee919061459e565b90915550505b60018088015460ff16600281111561370e5761370e6142f2565b036137c15760068601546040516001600160a01b039091169084156108fc029085906000818181858888f1505050506009870154600688015460405163a9059cbb60e01b81526001600160a01b039182166004820152602481018590529116915063a9059cbb906044016020604051808303816000875af1158015613797573d6000803e3d6000fd5b505050506040513d601f19601f820116820180604052508101906137bb9190614a97565b5061399b565b6002600188015460ff1660028111156137dc576137dc6142f2565b036138565760078601546040516001600160a01b039091169083156108fc029084906000818181858888f150505060078801546001600160a01b039081166000908152600960208181526040808420928d0154909416835252908120805489945090925061384b90849061459e565b9091555061399b9050565b600060026138648585613d78565b61386e919061463b565b60068801546040519192506001600160a01b03169082156108fc029083906000818181858888f150505060078901546040516001600160a01b03909116925083156108fc02915083906000818181858888f193505050505060006002876138d5919061463b565b600989015460068a015460405163a9059cbb60e01b81526001600160a01b03918216600482015260248101849052929350169063a9059cbb906044016020604051808303816000875af1158015613930573d6000803e3d6000fd5b505050506040513d601f19601f820116820180604052508101906139549190614a97565b5060078801546001600160a01b039081166000908152600960208181526040808420928d0154909416835252908120805483929061399390849061459e565b909155505050505b86546040517f1e622a4d355fee568685ee98938ecae07ca1ab8ba9ec33832db0089485e987fa90600090a25050505050505050565b600080600b85815481106139e6576139e6614572565b600091825260208083206004600b90930201918201548352600a815260408084208885526002810183528185206001600160a01b038c1686526005810190935293206001840154929450909161ffff61010090910416808803613a5e5781600201548260010154613a57919061459e565b9550613b2c565b86613ac657600083600201548460010154613a79919061459e565b9050600083600201548460010154613a91919061459e565b905060008211613aa2576000613abd565b81856004015482613ab391906146f3565b613abd919061463b565b97505050613b2c565b6000838860038110613ada57613ada614572565b015411613ae8576000613b29565b828760038110613afa57613afa614572565b01548360040154838960038110613b1357613b13614572565b0154613b1f91906146f3565b613b29919061463b565b95505b6000826001015560008260020155509398975050505050505050565b8054600182015460028301546000613b6083856145b1565b600080875560018701819055600280880182905560098801805460ff60b01b1916600160b11b17905580549293508592909190613b9e90849061459e565b909155505060068501546040516001600160a01b039091169083156108fc029084906000818181858888f150505060068701546009880154613bef93506001600160a01b0390811692501683613597565b5050505050565b6040516001600160a01b03808516602483015283166044820152606481018290526133c29085906323b872dd60e01b906084016135c3565b600080612710613c3e84866146f3565b613c48919061463b565b9150613c5482856145b1565b90509250929050565b6000546001600160a01b03163314613ca45760405162461bcd60e51b815260206004820152600a60248201526927b7363c9020b236b4b760b11b6044820152606401610961565b565b6000613cfb826040518060400160405280602081526020017f5361666545524332303a206c6f772d6c6576656c2063616c6c206661696c6564815250856001600160a01b0316613d909092919063ffffffff16565b8051909150156135fa5780806020019051810190613d199190614a97565b6135fa5760405162461bcd60e51b815260206004820152602a60248201527f5361666545524332303a204552433230206f7065726174696f6e20646964206e6044820152691bdd081cdd58d8d9595960b21b6064820152608401610961565b6000818310613d875781613d89565b825b9392505050565b6060613d9f8484600085613da7565b949350505050565b606082471015613e085760405162461bcd60e51b815260206004820152602660248201527f416464726573733a20696e73756666696369656e742062616c616e636520666f6044820152651c8818d85b1b60d21b6064820152608401610961565b600080866001600160a01b03168587604051613e249190614ab4565b60006040518083038185875af1925050503d8060008114613e61576040519150601f19603f3d011682016040523d82523d6000602084013e613e66565b606091505b5091509150613e7787838387613e82565b979650505050505050565b60608315613ef1578251600003613eea576001600160a01b0385163b613eea5760405162461bcd60e51b815260206004820152601d60248201527f416464726573733a2063616c6c20746f206e6f6e2d636f6e74726163740000006044820152606401610961565b5081613d9f565b613d9f8383815115613f065781518083602001fd5b8060405162461bcd60e51b81526004016109619190614039565b60405180606001604052806003906020820280368337509192915050565b600060208284031215613f5057600080fd5b5035919050565b6001600160a01b0381168114613f6c57600080fd5b50565b60008060408385031215613f8257600080fd5b8235613f8d81613f57565b946020939093013593505050565b803561ffff81168114613fad57600080fd5b919050565b60008060408385031215613fc557600080fd5b613fce83613f9b565b91506020830135613fde81613f57565b809150509250929050565b60005b83811015614004578181015183820152602001613fec565b50506000910152565b60008151808452614025816020860160208601613fe9565b601f01601f19169290920160200192915050565b602081526000613d89602083018461400d565b60006020828403121561405e57600080fd5b613d8982613f9b565b828152604060208201526000613d9f604083018461400d565b6000806040838503121561409357600080fd5b8235613fce81613f57565b600080604083850312156140b157600080fd5b82359150602083013560038110613fde57600080fd5b600080604083850312156140da57600080fd5b50508035926020909101359150565b600080600080608085870312156140ff57600080fd5b843561410a81613f57565b966020860135965060408601359560600135945092505050565b60008060006060848603121561413957600080fd5b61414284613f9b565b9250602084013561415281613f57565b929592945050506040919091013590565b6000806000806080858703121561417957600080fd5b61418285613f9b565b9350602085013561419281613f57565b925060408501356141a281613f57565b9396929550929360600135925050565b6000806000606084860312156141c757600080fd5b833592506020840135915060408401356141e081613f57565b809150509250925092565b8060005b60038110156133c25781518452602093840193909101906001016141ef565b60608101610c7e82846141eb565b60008083601f84011261422e57600080fd5b50813567ffffffffffffffff81111561424657600080fd5b60208301915083602082850101111561362557600080fd5b6000806000806060858703121561427457600080fd5b843567ffffffffffffffff81111561428b57600080fd5b6142978782880161421c565b9095509350506020850135915060408501356142b281613f57565b939692955090935050565b6000806000606084860312156142d257600080fd5b83356142dd81613f57565b95602085013595506040909401359392505050565b634e487b7160e01b600052602160045260246000fd5b6003811061432657634e487b7160e01b600052602160045260246000fd5b9052565b60c0810161433882876141eb565b6143456060830186614308565b83608083015282151560a083015295945050505050565b60006020828403121561436e57600080fd5b8135613d8981613f57565b6000806000806060858703121561438f57600080fd5b61439885613f9b565b9350602085013567ffffffffffffffff8111156143b457600080fd5b6143c08782880161421c565b9598909750949560400135949350505050565b600080604083850312156143e657600080fd5b613f8d83613f9b565b60008060006040848603121561440457600080fd5b83359250602084013567ffffffffffffffff81111561442257600080fd5b61442e8682870161421c565b9497909650939450505050565b8015158114613f6c57600080fd5b60008060006060848603121561445e57600080fd5b61446784613f9b565b9250602084013561447781613f57565b915060408401356141e08161443b565b60008060006040848603121561449c57600080fd5b6144a584613f9b565b9250602084013567ffffffffffffffff81111561442257600080fd5b600080602083850312156144d457600080fd5b823567ffffffffffffffff8111156144eb57600080fd5b6144f78582860161421c565b90969095509350505050565b60008060006040848603121561451857600080fd5b83356144a581613f57565b6000806040838503121561453657600080fd5b823591506020830135613fde81613f57565b60208082526010908201526f125b9d985b1a590813dc99195c88125160821b604082015260600190565b634e487b7160e01b600052603260045260246000fd5b634e487b7160e01b600052601160045260246000fd5b80820180821115610c7e57610c7e614588565b81810381811115610c7e57610c7e614588565b600181811c908216806145d857607f821691505b6020821081036145f857634e487b7160e01b600052602260045260246000fd5b50919050565b6000806040838503121561461157600080fd5b505080516020909101519092909150565b60006020828403121561463457600080fd5b5051919050565b60008261465857634e487b7160e01b600052601260045260246000fd5b500490565b6000815461466a816145c4565b80855260206001838116801561468757600181146146a1576146cf565b60ff1985168884015283151560051b8801830195506146cf565b866000528260002060005b858110156146c75781548a82018601529083019084016146ac565b890184019650505b505050505092915050565b828152604060208201526000613d9f604083018461465d565b8082028115828204841417610c7e57610c7e614588565b606081016147188286614308565b6001600160a01b0393909316602082015260400152919050565b600061ffff80831681810361474957614749614588565b6001019392505050565b60208101610c7e8284614308565b60006001820161477357614773614588565b5060010190565b6020808252601e908201527f5061796d656e74206d6574686f6420646f6573206e6f742065786973742e0000604082015260600190565b602081526000613d89602083018461465d565b634e487b7160e01b600052604160045260246000fd5b601f8211156135fa57600081815260208120601f850160051c810160208610156148015750805b601f850160051c820191505b818110156148205782815560010161480d565b505050505050565b815167ffffffffffffffff811115614842576148426147c4565b6148568161485084546145c4565b846147da565b602080601f83116001811461488b57600084156148735750858301515b600019600386901b1c1916600185901b178555614820565b600085815260208120601f198616915b828110156148ba5788860151825594840194600190910190840161489b565b50858210156148d85787850151600019600388901b60f8161c191681555b5050505050600190811b01905550565b67ffffffffffffffff831115614900576149006147c4565b6149148361490e83546145c4565b836147da565b6000601f84116001811461494857600085156149305750838201355b600019600387901b1c1916600186901b178355613bef565b600083815260209020601f19861690835b828110156149795786850135825560209485019460019092019101614959565b50868210156149965760001960f88860031b161c19848701351681555b505060018560011b0183555050505050565b61ffff8281168282160390808211156149c3576149c3614588565b5092915050565b81835281816020850137506000828201602090810191909152601f909101601f19169091010190565b604081526000614a076040830185876149ca565b9050826020830152949350505050565b61ffff85168152606060208201526000614a356060830185876149ca565b905082604083015295945050505050565b604081526000614a59604083018561465d565b90508260208301529392505050565b602081526000613d9f6020830184866149ca565b61ffff8181168382160190808211156149c3576149c3614588565b600060208284031215614aa957600080fd5b8151613d898161443b565b60008251614ac6818460208701613fe9565b919091019291505056fea26469706673582212207016e05e657d3b6b7d614d47e5b566e5261af8f95f9a350e49f08a2513347cdd64736f6c63430008110033",
    "linkReferences": {}
  },
  "methodIdentifiers": {
    "addMetaEvidence(string)": "b6694b7b",
    "addPaymentMethod(string,uint256,address)": "6b7e9eff",
    "admin()": "f851a440",
    "arbitrator()": "6cc6cde1",
    "arbitratorExtraData()": "0c7ac7b6",
    "batchRoundWithdraw(address,uint256,uint256,uint256)": "339ac67c",
    "buyOrder(uint16,address,address,uint256)": "64ac92f2",
    "buyerTimeout()": "4db092b4",
    "changeAdmin(address)": "8f283970",
    "changeArbitrator(address,bytes)": "ba7079ca",
    "changeBuyerTimeout(uint256)": "f07dbd00",
    "changeFees(uint256)": "6cda375b",
    "changeSellerTimeout(uint256)": "e8cfe7ac",
    "completeOrder(uint256)": "b6adaaff",
    "confirmPaid(uint256)": "01e6e515",
    "depositTokens(uint16,address,uint256)": "4b2dd8f4",
    "disputeOrder(uint256)": "a09970b2",
    "fundAppeal(uint256,uint8)": "12b3a2c0",
    "getContributions(uint256,uint256,address)": "68c76ffd",
    "getCountOrders()": "98f1c162",
    "getNumberOfRounds(uint256)": "fc6f8f16",
    "getOrderFeeAmount(uint256)": "bc9ebc5f",
    "getPaymentMethodAddress(uint16,address)": "889d7f15",
    "getPaymentMethodSellerFeeRate(uint16,address)": "6ea8b5ea",
    "getPaymentMethodToken(uint16,address)": "075a5415",
    "getRoundInfo(uint256,uint256)": "8a9bb02a",
    "loserStakeMultiplier()": "1d512085",
    "metaEvidenceUpdates()": "6cdc090f",
    "paymentMethods(uint16)": "0cd4384d",
    "protocolFeesSum()": "fbef7045",
    "relay()": "b59589d1",
    "rule(uint256,uint256)": "311a6c56",
    "sellerTimeout()": "dc2a7e5f",
    "sharedStakeMultiplier()": "41658341",
    "submitEvidence(uint256,string)": "a6a7f0eb",
    "timeoutByBuyer(uint256)": "870026f1",
    "timeoutBySeller(uint256)": "382a2b86",
    "tokenBalance(address,address)": "1049334f",
    "totalPaymentMethods()": "46639cca",
    "tradeFeeRate()": "6b04b9cf",
    "updatePaymentMetaEvidence(uint16,uint256)": "9e324aea",
    "updatePaymentName(uint16,string)": "ae1a38ed",
    "updateSellerPaymentMethod(uint16,string,uint256)": "96917abe",
    "updateTokenEnabled(uint16,address,bool)": "abaa14ff",
    "winnerStakeMultiplier()": "7b943383",
    "withdrawFees(uint256,address)": "dd2cc3f3",
    "withdrawFeesAndRewards(address,uint256,uint256)": "6e99a23a",
    "withdrawTokens(address,uint256)": "06b091f9"
  },
  "id": 22
}