{
  "abi": [
    {
      "inputs": [
        {
          "internalType": "address",
          "name": "_admin",
          "type": "address"
        },
        {
          "internalType": "address",
          "name": "_relay",
          "type": "address"
        },
        {
          "internalType": "string",
          "name": "_version",
          "type": "string"
        },
        {
          "internalType": "contract IArbitrator",
          "name": "_arbitrator",
          "type": "address"
        },
        {
          "internalType": "bytes",
          "name": "_arbitratorExtraData",
          "type": "bytes"
        },
        {
          "internalType": "uint256",
          "name": "_buyerTimeout",
          "type": "uint256"
        },
        {
          "internalType": "uint256",
          "name": "_sellerTimeout",
          "type": "uint256"
        },
        {
          "internalType": "uint256",
          "name": "_sharedStakeMultiplier",
          "type": "uint256"
        },
        {
          "internalType": "uint256",
          "name": "_winnerStakeMultiplier",
          "type": "uint256"
        },
        {
          "internalType": "uint256",
          "name": "_loserStakeMultiplier",
          "type": "uint256"
        },
        {
          "internalType": "uint256",
          "name": "_tradeFeeRate",
          "type": "uint256"
        }
      ],
      "stateMutability": "nonpayable",
      "type": "constructor"
    },
    {
      "anonymous": false,
      "inputs": [
        {
          "indexed": true,
          "internalType": "address",
          "name": "previousAdmin",
          "type": "address"
        },
        {
          "indexed": true,
          "internalType": "address",
          "name": "newAdmin",
          "type": "address"
        }
      ],
      "name": "AdminTransferred",
      "type": "event"
    },
    {
      "anonymous": false,
      "inputs": [
        {
          "indexed": true,
          "internalType": "uint256",
          "name": "_orderID",
          "type": "uint256"
        },
        {
          "indexed": false,
          "internalType": "enum Unipeer.Party",
          "name": "_party",
          "type": "uint8"
        },
        {
          "indexed": false,
          "internalType": "address",
          "name": "_contributor",
          "type": "address"
        },
        {
          "indexed": false,
          "internalType": "uint256",
          "name": "_amount",
          "type": "uint256"
        }
      ],
      "name": "AppealContribution",
      "type": "event"
    },
    {
      "anonymous": false,
      "inputs": [
        {
          "indexed": true,
          "internalType": "contract IArbitrator",
          "name": "_arbitrator",
          "type": "address"
        },
        {
          "indexed": true,
          "internalType": "uint256",
          "name": "_disputeID",
          "type": "uint256"
        },
        {
          "indexed": false,
          "internalType": "uint256",
          "name": "_metaEvidenceID",
          "type": "uint256"
        },
        {
          "indexed": false,
          "internalType": "uint256",
          "name": "_evidenceGroupID",
          "type": "uint256"
        }
      ],
      "name": "Dispute",
      "type": "event"
    },
    {
      "anonymous": false,
      "inputs": [
        {
          "indexed": true,
          "internalType": "contract IArbitrator",
          "name": "_arbitrator",
          "type": "address"
        },
        {
          "indexed": true,
          "internalType": "uint256",
          "name": "_evidenceGroupID",
          "type": "uint256"
        },
        {
          "indexed": true,
          "internalType": "address",
          "name": "_party",
          "type": "address"
        },
        {
          "indexed": false,
          "internalType": "string",
          "name": "_evidence",
          "type": "string"
        }
      ],
      "name": "Evidence",
      "type": "event"
    },
    {
      "anonymous": false,
      "inputs": [
        {
          "indexed": true,
          "internalType": "contract IERC20",
          "name": "token",
          "type": "address"
        },
        {
          "indexed": false,
          "internalType": "uint256",
          "name": "amount",
          "type": "uint256"
        },
        {
          "indexed": false,
          "internalType": "address",
          "name": "to",
          "type": "address"
        }
      ],
      "name": "FeeWithdrawn",
      "type": "event"
    },
    {
      "anonymous": false,
      "inputs": [
        {
          "indexed": true,
          "internalType": "uint256",
          "name": "_orderID",
          "type": "uint256"
        },
        {
          "indexed": false,
          "internalType": "enum Unipeer.Party",
          "name": "_party",
          "type": "uint8"
        }
      ],
      "name": "HasPaidAppealFee",
      "type": "event"
    },
    {
      "anonymous": false,
      "inputs": [
        {
          "indexed": true,
          "internalType": "uint256",
          "name": "_metaEvidenceID",
          "type": "uint256"
        },
        {
          "indexed": false,
          "internalType": "string",
          "name": "_evidence",
          "type": "string"
        }
      ],
      "name": "MetaEvidence",
      "type": "event"
    },
    {
      "anonymous": false,
      "inputs": [
        {
          "indexed": true,
          "internalType": "uint256",
          "name": "orderID",
          "type": "uint256"
        },
        {
          "indexed": true,
          "internalType": "address",
          "name": "buyer",
          "type": "address"
        },
        {
          "indexed": true,
          "internalType": "address",
          "name": "seller",
          "type": "address"
        },
        {
          "indexed": false,
          "internalType": "uint256",
          "name": "paymentID",
          "type": "uint256"
        },
        {
          "indexed": false,
          "internalType": "string",
          "name": "paymentAddress",
          "type": "string"
        },
        {
          "indexed": false,
          "internalType": "contract IERC20",
          "name": "token",
          "type": "address"
        },
        {
          "indexed": false,
          "internalType": "uint256",
          "name": "amount",
          "type": "uint256"
        },
        {
          "indexed": false,
          "internalType": "uint256",
          "name": "feeAmount",
          "type": "uint256"
        },
        {
          "indexed": false,
          "internalType": "uint256",
          "name": "sellerFeeAmount",
          "type": "uint256"
        }
      ],
      "name": "OrderBuy",
      "type": "event"
    },
    {
      "anonymous": false,
      "inputs": [
        {
          "indexed": true,
          "internalType": "uint256",
          "name": "orderID",
          "type": "uint256"
        }
      ],
      "name": "OrderComplete",
      "type": "event"
    },
    {
      "anonymous": false,
      "inputs": [
        {
          "indexed": true,
          "internalType": "uint256",
          "name": "orderID",
          "type": "uint256"
        }
      ],
      "name": "OrderPaid",
      "type": "event"
    },
    {
      "anonymous": false,
      "inputs": [
        {
          "indexed": true,
          "internalType": "uint256",
          "name": "orderID",
          "type": "uint256"
        }
      ],
      "name": "OrderResolved",
      "type": "event"
    },
    {
      "anonymous": false,
      "inputs": [
        {
          "indexed": true,
          "internalType": "uint256",
          "name": "paymentID",
          "type": "uint256"
        },
        {
          "indexed": false,
          "internalType": "contract IERC20",
          "name": "token",
          "type": "address"
        }
      ],
      "name": "PaymentMethodTokenDisabled",
      "type": "event"
    },
    {
      "anonymous": false,
      "inputs": [
        {
          "indexed": true,
          "internalType": "uint256",
          "name": "paymentID",
          "type": "uint256"
        },
        {
          "indexed": false,
          "internalType": "contract IERC20",
          "name": "token",
          "type": "address"
        }
      ],
      "name": "PaymentMethodTokenEnabled",
      "type": "event"
    },
    {
      "anonymous": false,
      "inputs": [
        {
          "indexed": true,
          "internalType": "uint256",
          "name": "paymentID",
          "type": "uint256"
        },
        {
          "indexed": false,
          "internalType": "string",
          "name": "paymentName",
          "type": "string"
        },
        {
          "indexed": false,
          "internalType": "uint256",
          "name": "metaEvidenceID",
          "type": "uint256"
        }
      ],
      "name": "PaymentMethodUpdate",
      "type": "event"
    },
    {
      "anonymous": false,
      "inputs": [
        {
          "indexed": true,
          "internalType": "contract IArbitrator",
          "name": "_arbitrator",
          "type": "address"
        },
        {
          "indexed": true,
          "internalType": "uint256",
          "name": "_disputeID",
          "type": "uint256"
        },
        {
          "indexed": false,
          "internalType": "uint256",
          "name": "_ruling",
          "type": "uint256"
        }
      ],
      "name": "Ruling",
      "type": "event"
    },
    {
      "anonymous": false,
      "inputs": [
        {
          "indexed": true,
          "internalType": "address",
          "name": "sender",
          "type": "address"
        },
        {
          "indexed": false,
          "internalType": "contract IERC20",
          "name": "token",
          "type": "address"
        },
        {
          "indexed": false,
          "internalType": "uint256",
          "name": "amount",
          "type": "uint256"
        }
      ],
      "name": "SellerDeposit",
      "type": "event"
    },
    {
      "anonymous": false,
      "inputs": [
        {
          "indexed": true,
          "internalType": "address",
          "name": "sender",
          "type": "address"
        },
        {
          "indexed": false,
          "internalType": "uint256",
          "name": "paymentID",
          "type": "uint256"
        },
        {
          "indexed": false,
          "internalType": "string",
          "name": "paymentAddress",
          "type": "string"
        },
        {
          "indexed": false,
          "internalType": "uint256",
          "name": "feeRate",
          "type": "uint256"
        }
      ],
      "name": "SellerPaymentMethod",
      "type": "event"
    },
    {
      "anonymous": false,
      "inputs": [
        {
          "indexed": true,
          "internalType": "address",
          "name": "sender",
          "type": "address"
        },
        {
          "indexed": false,
          "internalType": "contract IERC20",
          "name": "token",
          "type": "address"
        },
        {
          "indexed": false,
          "internalType": "uint256",
          "name": "amount",
          "type": "uint256"
        }
      ],
      "name": "SellerWithdraw",
      "type": "event"
    },
    {
      "anonymous": false,
      "inputs": [
        {
          "indexed": true,
          "internalType": "uint256",
          "name": "orderID",
          "type": "uint256"
        }
      ],
      "name": "TimedOutByBuyer",
      "type": "event"
    },
    {
      "anonymous": false,
      "inputs": [
        {
          "indexed": true,
          "internalType": "uint256",
          "name": "orderID",
          "type": "uint256"
        }
      ],
      "name": "TimedOutBySeller",
      "type": "event"
    },
    {
      "inputs": [
        {
          "internalType": "string",
          "name": "_metaEvidence",
          "type": "string"
        }
      ],
      "name": "addMetaEvidence",
      "outputs": [
        {
          "internalType": "uint256",
          "name": "metaEvidenceID",
          "type": "uint256"
        }
      ],
      "stateMutability": "nonpayable",
      "type": "function"
    },
    {
      "inputs": [
        {
          "internalType": "string",
          "name": "_paymentName",
          "type": "string"
        },
        {
          "internalType": "uint256",
          "name": "_metaEvidenceID",
          "type": "uint256"
        },
        {
          "internalType": "contract IERC20",
          "name": "_initalEnabledToken",
          "type": "address"
        }
      ],
      "name": "addPaymentMethod",
      "outputs": [],
      "stateMutability": "nonpayable",
      "type": "function"
    },
    {
      "inputs": [],
      "name": "admin",
      "outputs": [
        {
          "internalType": "address",
          "name": "",
          "type": "address"
        }
      ],
      "stateMutability": "view",
      "type": "function"
    },
    {
      "inputs": [],
      "name": "arbitrator",
      "outputs": [
        {
          "internalType": "contract IArbitrator",
          "name": "",
          "type": "address"
        }
      ],
      "stateMutability": "view",
      "type": "function"
    },
    {
      "inputs": [],
      "name": "arbitratorExtraData",
      "outputs": [
        {
          "internalType": "bytes",
          "name": "",
          "type": "bytes"
        }
      ],
      "stateMutability": "view",
      "type": "function"
    },
    {
      "inputs": [
        {
          "internalType": "address payable",
          "name": "_beneficiary",
          "type": "address"
        },
        {
          "internalType": "uint256",
          "name": "_orderID",
          "type": "uint256"
        },
        {
          "internalType": "uint256",
          "name": "_cursor",
          "type": "uint256"
        },
        {
          "internalType": "uint256",
          "name": "_count",
          "type": "uint256"
        }
      ],
      "name": "batchRoundWithdraw",
      "outputs": [],
      "stateMutability": "nonpayable",
      "type": "function"
    },
    {
      "inputs": [
        {
          "internalType": "uint256",
          "name": "_paymentID",
          "type": "uint256"
        },
        {
          "internalType": "address",
          "name": "_seller",
          "type": "address"
        },
        {
          "internalType": "contract IERC20",
          "name": "_token",
          "type": "address"
        },
        {
          "internalType": "uint256",
          "name": "_amount",
          "type": "uint256"
        }
      ],
      "name": "buyOrder",
      "outputs": [],
      "stateMutability": "payable",
      "type": "function"
    },
    {
      "inputs": [],
      "name": "buyerTimeout",
      "outputs": [
        {
          "internalType": "uint256",
          "name": "",
          "type": "uint256"
        }
      ],
      "stateMutability": "view",
      "type": "function"
    },
    {
      "inputs": [
        {
          "internalType": "address",
          "name": "_newAdmin",
          "type": "address"
        }
      ],
      "name": "changeAdmin",
      "outputs": [],
      "stateMutability": "nonpayable",
      "type": "function"
    },
    {
      "inputs": [
        {
          "internalType": "contract IArbitrator",
          "name": "_arbitrator",
          "type": "address"
        },
        {
          "internalType": "bytes",
          "name": "_arbitratorExtraData",
          "type": "bytes"
        }
      ],
      "name": "changeArbitrator",
      "outputs": [],
      "stateMutability": "nonpayable",
      "type": "function"
    },
    {
      "inputs": [
        {
          "internalType": "uint256",
          "name": "_timeout",
          "type": "uint256"
        }
      ],
      "name": "changeBuyerTimeout",
      "outputs": [],
      "stateMutability": "nonpayable",
      "type": "function"
    },
    {
      "inputs": [
        {
          "internalType": "uint256",
          "name": "_feeRate",
          "type": "uint256"
        }
      ],
      "name": "changeFees",
      "outputs": [],
      "stateMutability": "nonpayable",
      "type": "function"
    },
    {
      "inputs": [
        {
          "internalType": "uint256",
          "name": "_timeout",
          "type": "uint256"
        }
      ],
      "name": "changeSellerTimeout",
      "outputs": [],
      "stateMutability": "nonpayable",
      "type": "function"
    },
    {
      "inputs": [
        {
          "internalType": "uint256",
          "name": "_orderID",
          "type": "uint256"
        }
      ],
      "name": "completeOrder",
      "outputs": [],
      "stateMutability": "nonpayable",
      "type": "function"
    },
    {
      "inputs": [
        {
          "internalType": "uint256",
          "name": "_orderID",
          "type": "uint256"
        }
      ],
      "name": "confirmPaid",
      "outputs": [],
      "stateMutability": "nonpayable",
      "type": "function"
    },
    {
      "inputs": [
        {
          "internalType": "uint256",
          "name": "_paymentID",
          "type": "uint256"
        },
        {
          "internalType": "contract IERC20",
          "name": "_token",
          "type": "address"
        },
        {
          "internalType": "uint256",
          "name": "_amount",
          "type": "uint256"
        }
      ],
      "name": "depositTokens",
      "outputs": [],
      "stateMutability": "nonpayable",
      "type": "function"
    },
    {
      "inputs": [
        {
          "internalType": "uint256",
          "name": "_orderID",
          "type": "uint256"
        }
      ],
      "name": "disputeOrder",
      "outputs": [],
      "stateMutability": "payable",
      "type": "function"
    },
    {
      "inputs": [
        {
          "internalType": "uint256",
          "name": "_orderID",
          "type": "uint256"
        },
        {
          "internalType": "enum Unipeer.Party",
          "name": "_side",
          "type": "uint8"
        }
      ],
      "name": "fundAppeal",
      "outputs": [],
      "stateMutability": "payable",
      "type": "function"
    },
    {
      "inputs": [
        {
          "internalType": "uint256",
          "name": "_orderID",
          "type": "uint256"
        },
        {
          "internalType": "uint256",
          "name": "_round",
          "type": "uint256"
        },
        {
          "internalType": "address",
          "name": "_contributor",
          "type": "address"
        }
      ],
      "name": "getContributions",
      "outputs": [
        {
          "internalType": "uint256[3]",
          "name": "contributions",
          "type": "uint256[3]"
        }
      ],
      "stateMutability": "view",
      "type": "function"
    },
    {
      "inputs": [
        {
          "internalType": "uint256",
          "name": "_orderID",
          "type": "uint256"
        }
      ],
      "name": "getNumberOfRounds",
      "outputs": [
        {
          "internalType": "uint256",
          "name": "",
          "type": "uint256"
        }
      ],
      "stateMutability": "view",
      "type": "function"
    },
    {
      "inputs": [
        {
          "internalType": "uint256",
          "name": "_orderID",
          "type": "uint256"
        }
      ],
      "name": "getOrderFeeNTradeAmount",
      "outputs": [
        {
          "internalType": "uint256",
          "name": "fee",
          "type": "uint256"
        },
        {
          "internalType": "uint256",
          "name": "amountAfterFee",
          "type": "uint256"
        }
      ],
      "stateMutability": "view",
      "type": "function"
    },
    {
      "inputs": [
        {
          "internalType": "uint256",
          "name": "_orderID",
          "type": "uint256"
        }
      ],
      "name": "getOrderSellerFee",
      "outputs": [
        {
          "internalType": "uint256",
          "name": "sellerFee",
          "type": "uint256"
        }
      ],
      "stateMutability": "view",
      "type": "function"
    },
    {
      "inputs": [],
      "name": "getOrdersCount",
      "outputs": [
        {
          "internalType": "uint256",
          "name": "",
          "type": "uint256"
        }
      ],
      "stateMutability": "view",
      "type": "function"
    },
    {
      "inputs": [
        {
          "internalType": "uint256",
          "name": "_paymentID",
          "type": "uint256"
        },
        {
          "internalType": "address",
          "name": "_seller",
          "type": "address"
        }
      ],
      "name": "getPaymentMethodAddress",
      "outputs": [
        {
          "internalType": "string",
          "name": "",
          "type": "string"
        }
      ],
      "stateMutability": "view",
      "type": "function"
    },
    {
      "inputs": [
        {
          "internalType": "uint256",
          "name": "_paymentID",
          "type": "uint256"
        },
        {
          "internalType": "address",
          "name": "_seller",
          "type": "address"
        }
      ],
      "name": "getPaymentMethodSellerFeeRate",
      "outputs": [
        {
          "internalType": "uint256",
          "name": "fee",
          "type": "uint256"
        }
      ],
      "stateMutability": "view",
      "type": "function"
    },
    {
      "inputs": [
        {
          "internalType": "uint256",
          "name": "_paymentID",
          "type": "uint256"
        },
        {
          "internalType": "contract IERC20",
          "name": "_token",
          "type": "address"
        }
      ],
      "name": "getPaymentMethodToken",
      "outputs": [
        {
          "internalType": "bool",
          "name": "",
          "type": "bool"
        }
      ],
      "stateMutability": "view",
      "type": "function"
    },
    {
      "inputs": [],
      "name": "getPaymentMethodsCount",
      "outputs": [
        {
          "internalType": "uint256",
          "name": "",
          "type": "uint256"
        }
      ],
      "stateMutability": "view",
      "type": "function"
    },
    {
      "inputs": [
        {
          "internalType": "uint256",
          "name": "_orderID",
          "type": "uint256"
        },
        {
          "internalType": "uint256",
          "name": "_round",
          "type": "uint256"
        }
      ],
      "name": "getRoundInfo",
      "outputs": [
        {
          "internalType": "uint256[3]",
          "name": "paidFees",
          "type": "uint256[3]"
        },
        {
          "internalType": "enum Unipeer.Party",
          "name": "sideFunded",
          "type": "uint8"
        },
        {
          "internalType": "uint256",
          "name": "feeRewards",
          "type": "uint256"
        },
        {
          "internalType": "bool",
          "name": "appealed",
          "type": "bool"
        }
      ],
      "stateMutability": "view",
      "type": "function"
    },
    {
      "inputs": [],
      "name": "loserStakeMultiplier",
      "outputs": [
        {
          "internalType": "uint256",
          "name": "",
          "type": "uint256"
        }
      ],
      "stateMutability": "view",
      "type": "function"
    },
    {
      "inputs": [],
      "name": "metaEvidenceUpdates",
      "outputs": [
        {
          "internalType": "uint256",
          "name": "",
          "type": "uint256"
        }
      ],
      "stateMutability": "view",
      "type": "function"
    },
    {
      "inputs": [
        {
          "internalType": "uint256",
          "name": "",
          "type": "uint256"
        }
      ],
      "name": "orders",
      "outputs": [
        {
          "internalType": "uint256",
          "name": "amount",
          "type": "uint256"
        },
        {
          "internalType": "uint256",
          "name": "fee",
          "type": "uint256"
        },
        {
          "internalType": "uint256",
          "name": "sellerFee",
          "type": "uint256"
        },
        {
          "internalType": "uint256",
          "name": "buyerCost",
          "type": "uint256"
        },
        {
          "internalType": "uint256",
          "name": "sellerCost",
          "type": "uint256"
        },
        {
          "internalType": "uint256",
          "name": "buyerTimeout",
          "type": "uint256"
        },
        {
          "internalType": "uint256",
          "name": "sellerTimeout",
          "type": "uint256"
        },
        {
          "internalType": "uint256",
          "name": "lastInteraction",
          "type": "uint256"
        },
        {
          "internalType": "address payable",
          "name": "buyer",
          "type": "address"
        },
        {
          "internalType": "address payable",
          "name": "seller",
          "type": "address"
        },
        {
          "internalType": "contract IERC20",
          "name": "token",
          "type": "address"
        },
        {
          "internalType": "uint256",
          "name": "paymentID",
          "type": "uint256"
        },
        {
          "internalType": "enum Unipeer.Status",
          "name": "status",
          "type": "uint8"
        }
      ],
      "stateMutability": "view",
      "type": "function"
    },
    {
      "inputs": [
        {
          "internalType": "uint256",
          "name": "",
          "type": "uint256"
        }
      ],
      "name": "paymentMethods",
      "outputs": [
        {
          "internalType": "uint256",
          "name": "metaEvidenceID",
          "type": "uint256"
        },
        {
          "internalType": "string",
          "name": "paymentName",
          "type": "string"
        }
      ],
      "stateMutability": "view",
      "type": "function"
    },
    {
      "inputs": [
        {
          "internalType": "contract IERC20",
          "name": "",
          "type": "address"
        }
      ],
      "name": "protocolFees",
      "outputs": [
        {
          "internalType": "uint256",
          "name": "",
          "type": "uint256"
        }
      ],
      "stateMutability": "view",
      "type": "function"
    },
    {
      "inputs": [],
      "name": "relay",
      "outputs": [
        {
          "internalType": "address",
          "name": "",
          "type": "address"
        }
      ],
      "stateMutability": "view",
      "type": "function"
    },
    {
      "inputs": [
        {
          "internalType": "uint256",
          "name": "_disputeID",
          "type": "uint256"
        },
        {
          "internalType": "uint256",
          "name": "_ruling",
          "type": "uint256"
        }
      ],
      "name": "rule",
      "outputs": [],
      "stateMutability": "nonpayable",
      "type": "function"
    },
    {
      "inputs": [],
      "name": "sellerTimeout",
      "outputs": [
        {
          "internalType": "uint256",
          "name": "",
          "type": "uint256"
        }
      ],
      "stateMutability": "view",
      "type": "function"
    },
    {
      "inputs": [],
      "name": "sharedStakeMultiplier",
      "outputs": [
        {
          "internalType": "uint256",
          "name": "",
          "type": "uint256"
        }
      ],
      "stateMutability": "view",
      "type": "function"
    },
    {
      "inputs": [
        {
          "internalType": "uint256",
          "name": "_orderID",
          "type": "uint256"
        },
        {
          "internalType": "string",
          "name": "_evidence",
          "type": "string"
        }
      ],
      "name": "submitEvidence",
      "outputs": [],
      "stateMutability": "nonpayable",
      "type": "function"
    },
    {
      "inputs": [
        {
          "internalType": "uint256",
          "name": "_orderID",
          "type": "uint256"
        }
      ],
      "name": "timeoutByBuyer",
      "outputs": [],
      "stateMutability": "nonpayable",
      "type": "function"
    },
    {
      "inputs": [
        {
          "internalType": "uint256",
          "name": "_orderID",
          "type": "uint256"
        }
      ],
      "name": "timeoutBySeller",
      "outputs": [],
      "stateMutability": "nonpayable",
      "type": "function"
    },
    {
      "inputs": [
        {
          "internalType": "address",
          "name": "",
          "type": "address"
        },
        {
          "internalType": "contract IERC20",
          "name": "",
          "type": "address"
        }
      ],
      "name": "tokenBalance",
      "outputs": [
        {
          "internalType": "uint256",
          "name": "",
          "type": "uint256"
        }
      ],
      "stateMutability": "view",
      "type": "function"
    },
    {
      "inputs": [],
      "name": "tradeFeeRate",
      "outputs": [
        {
          "internalType": "uint256",
          "name": "",
          "type": "uint256"
        }
      ],
      "stateMutability": "view",
      "type": "function"
    },
    {
      "inputs": [
        {
          "internalType": "uint256",
          "name": "_paymentID",
          "type": "uint256"
        },
        {
          "internalType": "uint256",
          "name": "_metaEvidenceID",
          "type": "uint256"
        }
      ],
      "name": "updatePaymentMetaEvidence",
      "outputs": [],
      "stateMutability": "nonpayable",
      "type": "function"
    },
    {
      "inputs": [
        {
          "internalType": "uint256",
          "name": "_paymentID",
          "type": "uint256"
        },
        {
          "internalType": "string",
          "name": "_paymentName",
          "type": "string"
        }
      ],
      "name": "updatePaymentName",
      "outputs": [],
      "stateMutability": "nonpayable",
      "type": "function"
    },
    {
      "inputs": [
        {
          "internalType": "uint256",
          "name": "_paymentID",
          "type": "uint256"
        },
        {
          "internalType": "string",
          "name": "_paymentAddress",
          "type": "string"
        },
        {
          "internalType": "uint256",
          "name": "_feeRate",
          "type": "uint256"
        }
      ],
      "name": "updateSellerPaymentMethod",
      "outputs": [],
      "stateMutability": "nonpayable",
      "type": "function"
    },
    {
      "inputs": [
        {
          "internalType": "uint256",
          "name": "_paymentID",
          "type": "uint256"
        },
        {
          "internalType": "contract IERC20",
          "name": "_token",
          "type": "address"
        },
        {
          "internalType": "bool",
          "name": "_enabled",
          "type": "bool"
        }
      ],
      "name": "updateTokenEnabled",
      "outputs": [],
      "stateMutability": "nonpayable",
      "type": "function"
    },
    {
      "inputs": [],
      "name": "winnerStakeMultiplier",
      "outputs": [
        {
          "internalType": "uint256",
          "name": "",
          "type": "uint256"
        }
      ],
      "stateMutability": "view",
      "type": "function"
    },
    {
      "inputs": [
        {
          "internalType": "address payable",
          "name": "_beneficiary",
          "type": "address"
        },
        {
          "internalType": "uint256",
          "name": "_orderID",
          "type": "uint256"
        },
        {
          "internalType": "uint256",
          "name": "_round",
          "type": "uint256"
        }
      ],
      "name": "withdrawFeesAndRewards",
      "outputs": [],
      "stateMutability": "nonpayable",
      "type": "function"
    },
    {
      "inputs": [
        {
          "internalType": "contract IERC20",
          "name": "_token",
          "type": "address"
        },
        {
          "internalType": "uint256",
          "name": "_amount",
          "type": "uint256"
        },
        {
          "internalType": "address",
          "name": "_to",
          "type": "address"
        }
      ],
      "name": "withdrawProtocolFees",
      "outputs": [],
      "stateMutability": "nonpayable",
      "type": "function"
    },
    {
      "inputs": [
        {
          "internalType": "contract IERC20",
          "name": "_token",
          "type": "address"
        },
        {
          "internalType": "uint256",
          "name": "_amount",
          "type": "uint256"
        }
      ],
      "name": "withdrawTokens",
      "outputs": [],
      "stateMutability": "nonpayable",
      "type": "function"
    }
  ],
  "bytecode": {
    "object": "0x60e06040523480156200001157600080fd5b5060405162004f5e38038062004f5e833981016040819052620000349162000189565b600080546001600160a01b03808e166001600160a01b031992831617909255600180548d8416908316179055600c8054928b1692909116919091179055600d6200007f8882620002fd565b5060069590955560079390935560809190915260a05260c05260035550620003c99350505050565b80516001600160a01b0381168114620000bf57600080fd5b919050565b634e487b7160e01b600052604160045260246000fd5b600082601f830112620000ec57600080fd5b81516001600160401b0380821115620001095762000109620000c4565b604051601f8301601f19908116603f01168101908282118183101715620001345762000134620000c4565b816040528381526020925086838588010111156200015157600080fd5b600091505b8382101562000175578582018301518183018401529082019062000156565b600093810190920192909252949350505050565b60008060008060008060008060008060006101608c8e031215620001ac57600080fd5b620001b78c620000a7565b9a50620001c760208d01620000a7565b60408d0151909a506001600160401b03811115620001e457600080fd5b620001f28e828f01620000da565b9950506200020360608d01620000a7565b60808d01519098506001600160401b038111156200022057600080fd5b6200022e8e828f01620000da565b97505060a08c0151955060c08c0151945060e08c015193506101008c015192506101208c015191506101408c015190509295989b509295989b9093969950565b600181811c908216806200028357607f821691505b602082108103620002a457634e487b7160e01b600052602260045260246000fd5b50919050565b601f821115620002f857600081815260208120601f850160051c81016020861015620002d35750805b601f850160051c820191505b81811015620002f457828155600101620002df565b5050505b505050565b81516001600160401b03811115620003195762000319620000c4565b62000331816200032a84546200026e565b84620002aa565b602080601f831160018114620003695760008415620003505750858301515b600019600386901b1c1916600185901b178555620002f4565b600085815260208120601f198616915b828110156200039a5788860151825594840194600190910190840162000379565b5085821015620003b95787850151600019600388901b60f8161c191681555b5050505050600190811b01905550565b60805160a05160c051614b506200040e600039600081816103e601526112e7015260008181610645015261120501526000818161049a01526112350152614b506000f3fe6080604052600436106102c95760003560e01c806386c4315911610175578063b5b3b051116100dc578063dc2a7e5f11610095578063e8cfe7ac1161006f578063e8cfe7ac14610926578063f07dbd0014610946578063f851a44014610966578063fc6f8f161461098657600080fd5b8063dc2a7e5f146108ae578063dcf844a7146108c4578063e4688104146108f157600080fd5b8063b5b3b05114610806578063b6694b7b1461081b578063b6adaaff1461083b578063ba7079ca1461085b578063c6ea76b91461087b578063c9df6f8b1461088e57600080fd5b8063a09970b21161012e578063a09970b21461073a578063a3d709dc1461074d578063a6a7f0eb1461076d578063a85c38ef1461078d578063ae25ba89146107c6578063b59589d1146107e657600080fd5b806386c4315914610667578063870026f1146106875780638a9bb02a146106a75780638b90cdc9146106d75780638f28397014610705578063981b8a2f1461072557600080fd5b806341658341116102345780636cc6cde1116101ed5780636e99a23a116101c75780636e99a23a146105c3578063721878f4146105e357806373868552146106035780637b9433831461063357600080fd5b80636cc6cde1146105555780636cda375b1461058d5780636cdc090f146105ad57600080fd5b806341658341146104885780634db092b4146104bc5780634db6e1ba146104d257806368c76ffd146104f25780636b04b9cf1461051f5780636b7e9eff1461053557600080fd5b806312b3a2c01161028657806312b3a2c0146103c15780631d512085146103d45780632b7fd2a914610408578063311a6c5614610428578063339ac67c14610448578063382a2b861461046857600080fd5b8063015bf264146102ce57806301e6e515146102f057806306b091f9146103105780630c7ac7b6146103305780630d12394b1461035b5780631049334f1461037b575b600080fd5b3480156102da57600080fd5b506102ee6102e9366004613fa2565b6109bf565b005b3480156102fc57600080fd5b506102ee61030b366004613fda565b610b32565b34801561031c57600080fd5b506102ee61032b366004613ff3565b610cb2565b34801561033c57600080fd5b50610345610e0c565b604051610352919061406f565b60405180910390f35b34801561036757600080fd5b506102ee610376366004614089565b610e9a565b34801561038757600080fd5b506103b36103963660046140cb565b600860209081526000928352604080842090915290825290205481565b604051908152602001610352565b6102ee6103cf366004614104565b610fb9565b3480156103e057600080fd5b506103b37f000000000000000000000000000000000000000000000000000000000000000081565b34801561041457600080fd5b506103b3610423366004613fda565b61173c565b34801561043457600080fd5b506102ee61044336600461412d565b61176d565b34801561045457600080fd5b506102ee61046336600461414f565b6119d3565b34801561047457600080fd5b506102ee610483366004613fda565b611b22565b34801561049457600080fd5b506103b37f000000000000000000000000000000000000000000000000000000000000000081565b3480156104c857600080fd5b506103b360065481565b3480156104de57600080fd5b506103456104ed36600461418a565b611c6b565b3480156104fe57600080fd5b5061051261050d3660046141af565b611d4c565b6040516103529190614200565b34801561052b57600080fd5b506103b360035481565b34801561054157600080fd5b506102ee610550366004614250565b611dbc565b34801561056157600080fd5b50600c54610575906001600160a01b031681565b6040516001600160a01b039091168152602001610352565b34801561059957600080fd5b506102ee6105a8366004613fda565b611f5c565b3480156105b957600080fd5b506103b360055481565b3480156105cf57600080fd5b506102ee6105de3660046142af565b611fdd565b3480156105ef57600080fd5b506102ee6105fe3660046142e4565b612125565b34801561060f57600080fd5b5061062361061e36600461418a565b6121bd565b6040519015158152602001610352565b34801561063f57600080fd5b506103b37f000000000000000000000000000000000000000000000000000000000000000081565b34801561067357600080fd5b506102ee61068236600461412d565b612208565b34801561069357600080fd5b506102ee6106a2366004613fda565b6122e0565b3480156106b357600080fd5b506106c76106c236600461412d565b61248d565b604051610352949392919061435a565b3480156106e357600080fd5b506106f76106f2366004613fda565b61251c565b60405161035292919061438c565b34801561071157600080fd5b506102ee6107203660046143a5565b6125d4565b34801561073157600080fd5b506004546103b3565b6102ee610748366004613fda565b61264e565b34801561075957600080fd5b506102ee6107683660046143d0565b6129c8565b34801561077957600080fd5b506102ee6107883660046142e4565b612acd565b34801561079957600080fd5b506107ad6107a8366004613fda565b612bc8565b6040516103529d9c9b9a99989796959493929190614407565b3480156107d257600080fd5b506103b36107e136600461418a565b612c53565b3480156107f257600080fd5b50600154610575906001600160a01b031681565b34801561081257600080fd5b506009546103b3565b34801561082757600080fd5b506103b3610836366004614493565b612c9a565b34801561084757600080fd5b506102ee610856366004613fda565b612d1b565b34801561086757600080fd5b506102ee6108763660046144d5565b612ebb565b6102ee610889366004614511565b612f0d565b34801561089a57600080fd5b506102ee6108a9366004614559565b61347b565b3480156108ba57600080fd5b506103b360075481565b3480156108d057600080fd5b506103b36108df3660046143a5565b60026020526000908152604090205481565b3480156108fd57600080fd5b5061091161090c366004613fda565b6135ad565b60408051928352602083019190915201610352565b34801561093257600080fd5b506102ee610941366004613fda565b6135f4565b34801561095257600080fd5b506102ee610961366004613fda565b613623565b34801561097257600080fd5b50600054610575906001600160a01b031681565b34801561099257600080fd5b506103b36109a1366004613fda565b6000908152600a6020526040902060010154610100900461ffff1690565b6000600484815481106109d4576109d46145ac565b600091825260208083206001600160a01b03871684526002600590930201918201905260409091205490915060ff161515600114610a595760405162461bcd60e51b815260206004820152601d60248201527f546f6b656e206e6f7420656e61626c656420666f722073656c6c696e6700000060448201526064015b60405180910390fd5b8160086000610a66613652565b6001600160a01b03166001600160a01b031681526020019081526020016000206000856001600160a01b03166001600160a01b031681526020019081526020016000206000828254610ab891906145d8565b90915550610adb9050610ac9613652565b6001600160a01b0385169030856136ba565b610ae3613652565b604080516001600160a01b0386811682526020820186905292909216917f223333d41820f8f24aa9d9555d0c8e92398a489801fe2bb8ba5d674530a9804291015b60405180910390a250505050565b600060098281548110610b4757610b476145ac565b90600052602060002090600d02019050610b5f613652565b60088201546001600160a01b03908116911614610bab5760405162461bcd60e51b815260206004820152600a60248201526927b7363c90213abcb2b960b11b6044820152606401610a50565b6000600c82015460ff166005811115610bc657610bc6614330565b14610c0b5760405162461bcd60e51b815260206004820152601560248201527413dc99195c94dd185d1d5cce880850dc99585d1959605a1b6044820152606401610a50565b4281600501548260070154610c2091906145d8565b1015610c6e5760405162461bcd60e51b815260206004820152601c60248201527f5061796d656e7420636f6e6669726d6174696f6e2074696d656f7574000000006044820152606401610a50565b426007820155600c8101805460ff1916600117905560405182907f15e33efda35e5da2fb096ba49585307ba468af144aea691da964aaff1a7f3a5790600090a25050565b8060086000610cbf613652565b6001600160a01b03908116825260208083019390935260409182016000908120918716815292529020541015610d375760405162461bcd60e51b815260206004820152601e60248201527f4e6f7420656e6f7567682062616c616e636520746f20776974686472617700006044820152606401610a50565b8060086000610d44613652565b6001600160a01b03166001600160a01b031681526020019081526020016000206000846001600160a01b03166001600160a01b031681526020019081526020016000206000828254610d9691906145eb565b90915550610db89050610da7613652565b6001600160a01b0384169083613725565b610dc0613652565b604080516001600160a01b0385811682526020820185905292909216917f5c9993d2dd44f9c0f3ee9d50711f139df4c5139f8886d073d6666663a14fa639910160405180910390a25050565b600d8054610e19906145fe565b80601f0160208091040260200160405190810160405280929190818152602001828054610e45906145fe565b8015610e925780601f10610e6757610100808354040283529160200191610e92565b820191906000526020600020905b815481529060010190602001808311610e7557829003601f168201915b505050505081565b6000546001600160a01b03163314610ec45760405162461bcd60e51b8152600401610a5090614638565b6001600160a01b038316600090815260026020526040902054821115610f2c5760405162461bcd60e51b815260206004820152601d60248201527f416d6f756e74206d6f7265207468616e206163637275656420666565730000006044820152606401610a50565b6001600160a01b03831660009081526002602052604081208054849290610f549084906145eb565b90915550610f6e90506001600160a01b0384168284613725565b604080518381526001600160a01b0383811660208301528516917ff3a15b70ef42163a42bbb07edb60d02f31fd11d394c9326022f78e1c7e12f68591015b60405180910390a2505050565b600060098381548110610fce57610fce6145ac565b600091825260208220600d909102019150826002811115610ff157610ff1614330565b0361102d5760405162461bcd60e51b815260206004820152600c60248201526b2bb937b733903830b93a3c9760a11b6044820152606401610a50565b6004600c82015460ff16600581111561104857611048614330565b1461108c5760405162461bcd60e51b8152602060048201526014602482015273139bc8191a5cdc1d5d19481d1bc8185c1c19585b60621b6044820152606401610a50565b6000838152600a602052604080822060038101548154925163afe15cfb60e01b8152600481019390935290929182916001600160a01b03169063afe15cfb906024016040805180830381865afa1580156110ea573d6000803e3d6000fd5b505050506040513d601f19601f8201168201806040525081019061110e919061465c565b9150915081421015801561112157508042105b61116d5760405162461bcd60e51b815260206004820181905260248201527f46756e64696e67206e6f742077697468696e2061707065616c20706572696f646044820152606401610a50565b60038301548354604051631c3db16d60e01b815260009283926001600160a01b0390911691631c3db16d916111a89160040190815260200190565b602060405180830381865afa1580156111c5573d6000803e3d6000fd5b505050506040513d601f19601f820116820180604052508101906111e99190614680565b90508660028111156111fd576111fd614330565b810361122b577f00000000000000000000000000000000000000000000000000000000000000009150611309565b8060000361125b577f00000000000000000000000000000000000000000000000000000000000000009150611309565b600261126785856145d8565b6112719190614699565b42106112e55760405162461bcd60e51b815260206004820152603d60248201527f546865206c6f736572206d7573742070617920647572696e672074686520666960448201527f7273742068616c66206f66207468652061707065616c20706572696f640000006064820152608401610a50565b7f000000000000000000000000000000000000000000000000000000000000000091505b6001850154610100900461ffff166000908152600280870160205260409091206003810154909160ff9091169081111561134557611345614330565b88600281111561135757611357614330565b036113965760405162461bcd60e51b815260206004820152600f60248201526e105c1c19585b08199959481c185a59608a1b6044820152606401610a50565b6003860154865460405163791f8b7360e11b81526000926001600160a01b03169163f23f16e6916113ce91906004808d019101614738565b602060405180830381865afa1580156113eb573d6000803e3d6000fd5b505050506040513d601f19601f8201168201806040525081019061140f9190614680565b905060006127106114208684614751565b61142a9190614699565b61143490836145d8565b905060008061147134868e600281111561145057611450614330565b60038110611460576114606145ac565b015461146c90866145eb565b61375a565b909250905081600586016000611485613652565b6001600160a01b03166001600160a01b031681526020019081526020016000208d60028111156114b7576114b7614330565b600381106114c7576114c76145ac565b0160008282546114d791906145d8565b90915550829050858d60028111156114f1576114f1614330565b60038110611501576115016145ac565b01600082825461151191906145d8565b909155508d90507f22039e79a27860a038aece214124c8ecef12fdc1334feb8e8a157a0ae16a1db48d611542613652565b8560405161155293929190614768565b60405180910390a2801561159057611568613652565b6001600160a01b03166108fc829081150290604051600060405180830381858888f150505050505b50819050838b60028111156115a7576115a7614330565b600381106115b7576115b76145ac565b01541061172f576000600384015460ff1660028111156115d9576115d9614330565b03611609576003830180548b919060ff191660018360028111156115ff576115ff614330565b02179055506116f6565b6003880154885460405163093225f160e31b81526001600160a01b03909216916349912f8891859161164291906004808f019101614738565b6000604051808303818588803b15801561165b57600080fd5b505af115801561166f573d6000803e3d6000fd5b50859350869250600291506116819050565b60038110611691576116916145ac565b015484600101546116a291906145d8565b6116ac91906145eb565b600484015560018881018054610100900461ffff16916116cb83614790565b825461ffff9182166101009390930a92830291909202199091161790555060038301805460ff191690555b8a7f213276d821d6205d87fa4f4658db4bf5a24a2323b0fdd8ffcd239c445f86a57b8b60405161172691906147b1565b60405180910390a25b5050505050505050505050565b60008060098381548110611752576117526145ac565b600091825260209091206002600d9092020101549392505050565b336000908152600b60209081526040808320858452825280832054808452600a90925282206009805492939192849081106117aa576117aa6145ac565b600091825260209091206003840154600d9092020191506001600160a01b0316331461180a5760405162461bcd60e51b815260206004820152600f60248201526e27b7363c9030b93134ba3930ba37b960891b6044820152606401610a50565b6004600c82015460ff16600581111561182557611825614330565b146118725760405162461bcd60e51b815260206004820152601860248201527f4469737075746520616c7265616479207265736f6c76656400000000000000006044820152606401610a50565b600182810154610100900461ffff166000908152600284016020526040902090600382015460ff1660028111156118ab576118ab614330565b036118c8576001838101805460ff191682805b0217905550611939565b6002600382015460ff1660028111156118e3576118e3614330565b036118ff576001808401805460029260ff1990911690836118be565b84600281111561191157611911614330565b60018085018054909160ff199091169083600281111561193357611933614330565b02179055505b6119438383613787565b60405184907f1e622a4d355fee568685ee98938ecae07ca1ab8ba9ec33832db0089485e987fa90600090a26003830154600184015487916001600160a01b0316907f394027a5fa6e098a1191094d1719d6929b9abc535fcc0c8f448d6a4e756222769060ff1660028111156119ba576119ba614330565b60405190815260200160405180910390a3505050505050565b6000600984815481106119e8576119e86145ac565b60009182526020909120600d9091020190506005600c82015460ff166005811115611a1557611a15614330565b14611a625760405162461bcd60e51b815260206004820152601b60248201527f546865206f72646572206d757374206265207265736f6c7665642e00000000006044820152606401610a50565b6000848152600a60205260408120600181015490919060ff166002811115611a8c57611a8c614330565b6001830154909150600090610100900461ffff16865b818111158015611ac25750861580611ac25750611abf87896145d8565b81105b15611af157611ad38a8a8387613acb565b611add90846145d8565b925080611ae9816147bf565b915050611aa2565b506040516001600160a01b038a169083156108fc029084906000818181858888f15050505050505050505050505050565b600060098281548110611b3757611b376145ac565b60009182526020909120600d9091020190506001600c82015460ff166005811115611b6457611b64614330565b14611ba65760405162461bcd60e51b815260206004820152601260248201527113dc99195c94dd185d1d5cce880854185a5960721b6044820152606401610a50565b4281600601548260070154611bbb91906145d8565b10611c085760405162461bcd60e51b815260206004820152601e60248201527f436f6d706c6574696f6e20706572696f64204e4f542074696d65646f757400006044820152606401610a50565b611c1181613c1a565b60405182907fa08ae43f66b3bb6dc42d8d01b32cd576235826cfa50d940d0141e0c885df07c890600090a260405182907f18cc2626d53b298add3ec58253b2a64517d5ab3dca9c8eb4b078a2852705c3d890600090a25050565b6060600060048481548110611c8257611c826145ac565b90600052602060002090600502019050806003016000846001600160a01b03166001600160a01b031681526020019081526020016000208054611cc4906145fe565b80601f0160208091040260200160405190810160405280929190818152602001828054611cf0906145fe565b8015611d3d5780601f10611d1257610100808354040283529160200191611d3d565b820191906000526020600020905b815481529060010190602001808311611d2057829003601f168201915b50505050509150505b92915050565b611d54613f6c565b6000848152600a602090815260408083208684526002810183528184206001600160a01b03871685526005810190935292819020815160608101928390529160039082845b815481526020019060010190808311611d99575050505050925050509392505050565b6000546001600160a01b03163314611de65760405162461bcd60e51b8152600401610a5090614638565b6005548210611e325760405162461bcd60e51b8152602060048201526018602482015277125b9d985b1a590813595d1848115d9a59195b98d948125160421b6044820152606401610a50565b600480546001810182556000919091526005027f8a35acfbc15ff81a39ae7d344fd709f28e8600b4aa8c65c6b64bfe7fe36bd19b8101907f8a35acfbc15ff81a39ae7d344fd709f28e8600b4aa8c65c6b64bfe7fe36bd19c01611e9685878361483c565b508281556001600160a01b03821660009081526002820160205260409020805460ff19166001908117909155600454611ecf91906145eb565b7faccc5b42d17425a2ba3c9cc85e14defa6e2f4d07b9f68c80633c912498d769ad868686604051611f0293929190614925565b60405180910390a2600454611f19906001906145eb565b6040516001600160a01b03841681527ffa388e5056552ae9f4cebdd3edba69c897ff1436e1fc943f0d23662cab2b59e19060200160405180910390a25050505050565b6000546001600160a01b03163314611f865760405162461bcd60e51b8152600401610a5090614638565b612710811115611fd85760405162461bcd60e51b815260206004820152601d60248201527f666565732063616e6e6f74206265206d6f7265207468616e20313030250000006044820152606401610a50565b600355565b600060098381548110611ff257611ff26145ac565b60009182526020909120600d9091020190506005600c82015460ff16600581111561201f5761201f614330565b1461206c5760405162461bcd60e51b815260206004820152601b60248201527f546865206f72646572206d757374206265207265736f6c7665642e00000000006044820152606401610a50565b6000838152600a602052604090206001810154610100900461ffff168311156120ca5760405162461bcd60e51b815260206004820152601060248201526f125b9d985b1a59081c9bdd5b9908125160821b6044820152606401610a50565b60018101546000906120f59087908790879060ff1660028111156120f0576120f0614330565b613acb565b6040519091506001600160a01b0387169082156108fc029083906000818181858888f15050505050505050505050565b6000546001600160a01b0316331461214f5760405162461bcd60e51b8152600401610a5090614638565b600060048481548110612164576121646145ac565b6000918252602090912060059091020190506001810161218583858361483c565b50805460405185917faccc5b42d17425a2ba3c9cc85e14defa6e2f4d07b9f68c80633c912498d769ad91610b24916001860191614949565b600080600484815481106121d3576121d36145ac565b600091825260208083206001600160a01b03871684526002600590930201919091019052604090205460ff1691505092915050565b6000546001600160a01b031633146122325760405162461bcd60e51b8152600401610a5090614638565b600554811061227e5760405162461bcd60e51b8152602060048201526018602482015277125b9d985b1a590813595d1848115d9a59195b98d948125160421b6044820152606401610a50565b600060048381548110612293576122936145ac565b6000918252602090912060059091020182815560405190915083907faccc5b42d17425a2ba3c9cc85e14defa6e2f4d07b9f68c80633c912498d769ad90610fac9060018501908690614949565b6000600982815481106122f5576122f56145ac565b600091825260208220600d909102019150600c82015460ff16600581111561231f5761231f614330565b146123645760405162461bcd60e51b815260206004820152601560248201527413dc99195c94dd185d1d5cce880850dc99585d1959605a1b6044820152606401610a50565b428160050154826007015461237991906145d8565b106123c65760405162461bcd60e51b815260206004820181905260248201527f436f6e6669726d6174696f6e20706572696f64204e4f542074696d65646f75746044820152606401610a50565b80546003808301805460008086556001860181905591829055600c8501805460ff191690931790925560098401546001600160a01b039081168252600860209081526040808420600a88015490931684529190528120805484929061242c9084906145d8565b909155505060088301546040516001600160a01b039091169082156108fc029083906000818181858888f150506040518793507f91e3c154ff27b859a148421f882fdc69c8fa7ef2cdde96a9216fb2bd1f79528b925060009150a250505050565b612495613f6c565b6000838152600a6020908152604080832085845260028101909252808320600380820154600483015460018601548551606081019687905288978897909695869560ff169493610100900461ffff168d1415929186919082845b8154815260200190600101908083116124ef57505050505093509550955095509550505092959194509250565b6004818154811061252c57600080fd5b60009182526020909120600590910201805460018201805491935090612551906145fe565b80601f016020809104026020016040519081016040528092919081815260200182805461257d906145fe565b80156125ca5780601f1061259f576101008083540402835291602001916125ca565b820191906000526020600020905b8154815290600101906020018083116125ad57829003601f168201915b5050505050905082565b6000546001600160a01b031633146125fe5760405162461bcd60e51b8152600401610a5090614638565b600080546001600160a01b038381166001600160a01b0319831681178455604051919092169283917ff8ccb027dfcd135e000e9d45e6cc2d662578a8825d4c45b5e32e0adf67e79ec69190a35050565b600060098281548110612663576126636145ac565b90600052602060002090600d0201905061267b613652565b60098201546001600160a01b039081169116146126c85760405162461bcd60e51b815260206004820152600b60248201526a27b7363c9029b2b63632b960a91b6044820152606401610a50565b6001600c82015460ff1660058111156126e3576126e3614330565b146127255760405162461bcd60e51b815260206004820152601260248201527113dc99195c94dd185d1d5cce880854185a5960721b6044820152606401610a50565b428160060154826007015461273a91906145d8565b10156127885760405162461bcd60e51b815260206004820152601a60248201527f4f7264657220636f6d706c657465642062792074696d656f75740000000000006044820152606401610a50565b600c5460405163f7434ea960e01b81526001600160a01b039091169063f7434ea9906127b990600d9060040161496b565b602060405180830381865afa1580156127d6573d6000803e3d6000fd5b505050506040513d601f19601f820116820180604052508101906127fa9190614680565b3410156128455760405162461bcd60e51b8152602060048201526019602482015278105c989a5d1c985d1a5bdb881999595cc81b9bdd081c185a59603a1b6044820152606401610a50565b346004828101829055600c808401805460ff1916831790555460405163c13517e160e01b81526000936001600160a01b039092169263c13517e1929161289191600291600d9101614738565b60206040518083038185885af11580156128af573d6000803e3d6000fd5b50505050506040513d601f19601f820116820180604052508101906128d49190614680565b6000848152600a60205260409020818155600c546003820180546001600160a01b0319166001600160a01b039092169190911790559091506004810161291b600d8261497e565b50600c546001600160a01b03166000908152600b60208181526040808420868552909152822086905584015460048054909190811061295c5761295c6145ac565b60009182526020909120600c54600590920201805460405191935085926001600160a01b0316917f74baab670a4015ab2f1b467c5252a96141a2573f2908e58a92081e80d3cfde3d916129b9918a90918252602082015260400190565b60405180910390a35050505050565b6000546001600160a01b031633146129f25760405162461bcd60e51b8152600401610a5090614638565b600060048481548110612a0757612a076145ac565b600091825260208083206001600160a01b038716845260026005909302019182019052604090912080548415801560ff1990921691909117909155909150612a8c576040516001600160a01b038416815284907ffa388e5056552ae9f4cebdd3edba69c897ff1436e1fc943f0d23662cab2b59e19060200160405180910390a2612ac7565b6040516001600160a01b038416815284907fab7f8852bdc0c7fb56fa880bc17bb0eac27fd3277ecbafc768090b86cc211d6e90602001610b24565b50505050565b600060098481548110612ae257612ae26145ac565b60009182526020909120600d9091020190506004600c82015460ff166005811115612b0f57612b0f614330565b14612b5c5760405162461bcd60e51b815260206004820152601e60248201527f4f7264657220696e206e6f7420697320646973757074656420737461746500006044820152606401610a50565b6000848152600a60205260409020612b72613652565b60038201546040516001600160a01b0392831692889216907fdccf2f8b2cc26eafcd61905cba744cff4b81d14740725f6376390dc6298a6a3c90612bb99089908990614a5b565b60405180910390a45050505050565b60098181548110612bd857600080fd5b60009182526020909120600d9091020180546001820154600283015460038401546004850154600586015460068701546007880154600889015460098a0154600a8b0154600b8c0154600c909c01549a9c50989a9799969895979496939592946001600160a01b039283169491831693909216919060ff168d565b60008060048481548110612c6957612c696145ac565b600091825260208083206001600160a01b039096168352600460059092029095010190935250506040902054919050565b600080546001600160a01b03163314612cc55760405162461bcd60e51b8152600401610a5090614638565b60058054906000612cd5836147bf565b919050559050807f61606860eb6c87306811e2695215385101daab53bd6ab4e9f9049aead9363c7d8484604051612d0d929190614a5b565b60405180910390a292915050565b600060098281548110612d3057612d306145ac565b90600052602060002090600d02019050612d48613652565b60098201546001600160a01b03908116911614612d955760405162461bcd60e51b815260206004820152600b60248201526a27b7363c9029b2b63632b960a91b6044820152606401610a50565b6002600c82015460ff166005811115612db057612db0614330565b10612dfd5760405162461bcd60e51b815260206004820152601860248201527f4f726465725374617475733a20213c436f6d706c6574656400000000000000006044820152606401610a50565b6000600c82015460ff166005811115612e1857612e18614330565b1480612e3757504281600601548260070154612e3491906145d8565b10155b612e835760405162461bcd60e51b815260206004820152601a60248201527f4f7264657220636f6d706c657465642062792074696d656f75740000000000006044820152606401610a50565b612e8c81613c1a565b60405182907f18cc2626d53b298add3ec58253b2a64517d5ab3dca9c8eb4b078a2852705c3d890600090a25050565b6000546001600160a01b03163314612ee55760405162461bcd60e51b8152600401610a5090614638565b600c80546001600160a01b0319166001600160a01b038516179055600d612ac782848361483c565b600060048581548110612f2257612f226145ac565b90600052602060002090600502019050806003016000856001600160a01b03166001600160a01b031681526020019081526020016000208054612f64906145fe565b9050600003612fae5760405162461bcd60e51b81526020600482015260166024820152752830bcb6b2b73a26b2ba3437b21d1010a9b2b63632b960511b6044820152606401610a50565b6001600160a01b038316600090815260028201602052604090205460ff1615156001146130155760405162461bcd60e51b81526020600482015260156024820152742830bcb6b2b73a26b2ba3437b21d1010aa37b5b2b760591b6044820152606401610a50565b6001600160a01b0380851660009081526008602090815260408083209387168352929052205482111561308a5760405162461bcd60e51b815260206004820152601960248201527f4e6f7420656e6f7567682073656c6c65722062616c616e6365000000000000006044820152606401610a50565b600c5460405163f7434ea960e01b81526000916001600160a01b03169063f7434ea9906130bc90600d9060040161496b565b602060405180830381865afa1580156130d9573d6000803e3d6000fd5b505050506040513d601f19601f820116820180604052508101906130fd9190614680565b90508034101561314b5760405162461bcd60e51b8152602060048201526019602482015278105c989a5d1c985d1a5bdb881999595cc81b9bdd081c185a59603a1b6044820152606401610a50565b803411156131895761315b613652565b6001600160a01b03166108fc61317183346145eb565b6040518115909202916000818181858888f150505050505b600061319784600354613cdb565b506001600160a01b03871660009081526004850160205260408120549192509081906131c4908790613cdb565b90925090506131d383836145d8565b86101561323d5760405162461bcd60e51b815260206004820152603260248201527f43756d6d756c617469766520666565732063616e6e6f74206265206d6f7265206044820152711d1a185b88189bdd59da1d08185b5bdd5b9d60721b6064820152608401610a50565b6009604051806101a001604052808381526020018581526020018481526020018681526020016000815260200160065481526020016007548152602001428152602001613288613652565b6001600160a01b0390811682528b811660208301528a166040820152606081018c90526080016000905281546001818101845560009384526020938490208351600d90930201918255928201518184015560408201516002820155606082015160038201556080820151600482015560a082015160058083019190915560c0830151600683015560e083015160078301556101008301516008830180546001600160a01b039283166001600160a01b031991821617909155610120850151600985018054918416918316919091179055610140850151600a85018054919093169116179055610160830151600b830155610180830151600c83018054949593949193909260ff199092169184908111156133a4576133a4614330565b021790555050506001600160a01b038089166000908152600860209081526040808320938b16835292905290812080548392906133e29084906145eb565b90915550506001600160a01b0388166133f9613652565b6001600160a01b0316600160098054905061341491906145eb565b6001600160a01b038b1660009081526003890160205260409081902090517f309dbde38fb4b5011dea31a7e683886178013db8924216fd9eaf571411bbcd2291613468918f91908e908e908c908c90614a6f565b60405180910390a4505050505050505050565b6000613485613652565b90506127108260035461349891906145d8565b11156134fe5760405162461bcd60e51b815260206004820152602f60248201527f73656c6c657220706c757320747261646520666565732063616e6e6f7420626560448201526e206d6f7265207468616e203130302560881b6064820152608401610a50565b600060048681548110613513576135136145ac565b600091825260208083206001600160a01b038616845260036005909302019182019052604090912090915061354985878361483c565b506001600160a01b038216600081815260048301602052604090819020859055517f84ac343bbb04afd666727ae1fe01ae7c135dcdafc67d4882264672d90faa9fa59061359d908990899089908990614ab6565b60405180910390a2505050505050565b6000806000600984815481106135c5576135c56145ac565b90600052602060002090600d02019050806001015492508281600001546135ec91906145eb565b915050915091565b6000546001600160a01b0316331461361e5760405162461bcd60e51b8152600401610a5090614638565b600755565b6000546001600160a01b0316331461364d5760405162461bcd60e51b8152600401610a5090614638565b600655565b6001546000906001600160a01b031633036136b457600080368080601f0160208091040260200160405190810160405280939291908181526020018383808284376000920191909152505050503601516001600160a01b031691506136b79050565b50335b90565b6040516001600160a01b0380851660248301528316604482015260648101829052612ac79085906323b872dd60e01b906084015b60408051601f198184030181529190526020810180516001600160e01b03166001600160e01b031990931692909217909152613d0a565b6040516001600160a01b03831660248201526044810182905261375590849063a9059cbb60e01b906064016136ee565b505050565b6000808383111561377057508290506000613780565b61377a83856145eb565b90508291505b9250929050565b805460018201546003830154600484015460006137a484866145eb565b600080885560018089018290556003890182905560048901829055600c8901805460ff191660051790558901549192509060ff1660028111156137e9576137e9614330565b1461382057600a8601546001600160a01b03166000908152600260205260408120805486929061381a9084906145d8565b90915550505b60018088015460ff16600281111561383a5761383a614330565b036138ed5760088601546040516001600160a01b039091169084156108fc029085906000818181858888f150505050600a870154600888015460405163a9059cbb60e01b81526001600160a01b039182166004820152602481018590529116915063a9059cbb906044016020604051808303816000875af11580156138c3573d6000803e3d6000fd5b505050506040513d601f19601f820116820180604052508101906138e79190614ae1565b50613ac2565b6002600188015460ff16600281111561390857613908614330565b036139855760098601546040516001600160a01b039091169084156108fc029085906000818181858888f150505060098801546001600160a01b039081166000908152600860209081526040808320600a8d01549094168352929052908120805489945090925061397a9084906145d8565b90915550613ac29050565b6000613992600285614699565b60088801546040519192506001600160a01b03169082156108fc029083906000818181858888f150505060098901546040516001600160a01b03909116925083156108fc02915083906000818181858888f193505050505060006002876139f99190614699565b600a89015460088a015460405163a9059cbb60e01b81526001600160a01b03918216600482015260248101849052929350169063a9059cbb906044016020604051808303816000875af1158015613a54573d6000803e3d6000fd5b505050506040513d601f19601f82011682018060405250810190613a789190614ae1565b5060098801546001600160a01b039081166000908152600860209081526040808320600a8d015490941683529290529081208054839290613aba9084906145d8565b909155505050505b50505050505050565b6000838152600a602090815260408083208584526002810183528184206001600160a01b0389168552600581019093529083206001820154919291610100900461ffff16808703613b315781600201548260010154613b2a91906145d8565b9450613bff565b85613b9957600083600201548460010154613b4c91906145d8565b9050600083600201548460010154613b6491906145d8565b905060008211613b75576000613b90565b81856004015482613b869190614751565b613b909190614699565b96505050613bff565b6000838760038110613bad57613bad6145ac565b015411613bbb576000613bfc565b828660038110613bcd57613bcd6145ac565b01548360040154838860038110613be657613be66145ac565b0154613bf29190614751565b613bfc9190614699565b94505b60008260010155600082600201555092979650505050505050565b8054600182015460038301546000613c3283856145eb565b60008087556001870181905560038701819055600c8701805460ff19166002908117909155600a8801546001600160a01b031682526020526040812080549293508592909190613c839084906145d8565b909155505060088501546040516001600160a01b039091169083156108fc029084906000818181858888f15050506008870154600a880154613cd493506001600160a01b0390811692501683613725565b5050505050565b600080612710613ceb8486614751565b613cf59190614699565b9150613d0182856145eb565b90509250929050565b6000613d5f826040518060400160405280602081526020017f5361666545524332303a206c6f772d6c6576656c2063616c6c206661696c6564815250856001600160a01b0316613ddc9092919063ffffffff16565b8051909150156137555780806020019051810190613d7d9190614ae1565b6137555760405162461bcd60e51b815260206004820152602a60248201527f5361666545524332303a204552433230206f7065726174696f6e20646964206e6044820152691bdd081cdd58d8d9595960b21b6064820152608401610a50565b6060613deb8484600085613df3565b949350505050565b606082471015613e545760405162461bcd60e51b815260206004820152602660248201527f416464726573733a20696e73756666696369656e742062616c616e636520666f6044820152651c8818d85b1b60d21b6064820152608401610a50565b600080866001600160a01b03168587604051613e709190614afe565b60006040518083038185875af1925050503d8060008114613ead576040519150601f19603f3d011682016040523d82523d6000602084013e613eb2565b606091505b5091509150613ec387838387613ece565b979650505050505050565b60608315613f3d578251600003613f36576001600160a01b0385163b613f365760405162461bcd60e51b815260206004820152601d60248201527f416464726573733a2063616c6c20746f206e6f6e2d636f6e74726163740000006044820152606401610a50565b5081613deb565b613deb8383815115613f525781518083602001fd5b8060405162461bcd60e51b8152600401610a50919061406f565b60405180606001604052806003906020820280368337509192915050565b6001600160a01b0381168114613f9f57600080fd5b50565b600080600060608486031215613fb757600080fd5b833592506020840135613fc981613f8a565b929592945050506040919091013590565b600060208284031215613fec57600080fd5b5035919050565b6000806040838503121561400657600080fd5b823561401181613f8a565b946020939093013593505050565b60005b8381101561403a578181015183820152602001614022565b50506000910152565b6000815180845261405b81602086016020860161401f565b601f01601f19169290920160200192915050565b6020815260006140826020830184614043565b9392505050565b60008060006060848603121561409e57600080fd5b83356140a981613f8a565b92506020840135915060408401356140c081613f8a565b809150509250925092565b600080604083850312156140de57600080fd5b82356140e981613f8a565b915060208301356140f981613f8a565b809150509250929050565b6000806040838503121561411757600080fd5b823591506020830135600381106140f957600080fd5b6000806040838503121561414057600080fd5b50508035926020909101359150565b6000806000806080858703121561416557600080fd5b843561417081613f8a565b966020860135965060408601359560600135945092505050565b6000806040838503121561419d57600080fd5b8235915060208301356140f981613f8a565b6000806000606084860312156141c457600080fd5b833592506020840135915060408401356140c081613f8a565b8060005b6003811015612ac75781518452602093840193909101906001016141e1565b60608101611d4682846141dd565b60008083601f84011261422057600080fd5b50813567ffffffffffffffff81111561423857600080fd5b60208301915083602082850101111561378057600080fd5b6000806000806060858703121561426657600080fd5b843567ffffffffffffffff81111561427d57600080fd5b6142898782880161420e565b9095509350506020850135915060408501356142a481613f8a565b939692955090935050565b6000806000606084860312156142c457600080fd5b83356142cf81613f8a565b95602085013595506040909401359392505050565b6000806000604084860312156142f957600080fd5b83359250602084013567ffffffffffffffff81111561431757600080fd5b6143238682870161420e565b9497909650939450505050565b634e487b7160e01b600052602160045260246000fd5b6003811061435657614356614330565b9052565b60c0810161436882876141dd565b6143756060830186614346565b83608083015282151560a083015295945050505050565b828152604060208201526000613deb6040830184614043565b6000602082840312156143b757600080fd5b813561408281613f8a565b8015158114613f9f57600080fd5b6000806000606084860312156143e557600080fd5b8335925060208401356143f781613f8a565b915060408401356140c0816143c2565b8d8152602081018d9052604081018c9052606081018b9052608081018a905260a0810189905260c0810188905260e081018790526001600160a01b03868116610100830152858116610120830152841661014082015261016081018390526101a081016006831061447a5761447a614330565b826101808301529e9d5050505050505050505050505050565b600080602083850312156144a657600080fd5b823567ffffffffffffffff8111156144bd57600080fd5b6144c98582860161420e565b90969095509350505050565b6000806000604084860312156144ea57600080fd5b83356144f581613f8a565b9250602084013567ffffffffffffffff81111561431757600080fd5b6000806000806080858703121561452757600080fd5b84359350602085013561453981613f8a565b9250604085013561454981613f8a565b9396929550929360600135925050565b6000806000806060858703121561456f57600080fd5b84359350602085013567ffffffffffffffff81111561458d57600080fd5b6145998782880161420e565b9598909750949560400135949350505050565b634e487b7160e01b600052603260045260246000fd5b634e487b7160e01b600052601160045260246000fd5b80820180821115611d4657611d466145c2565b81810381811115611d4657611d466145c2565b600181811c9082168061461257607f821691505b60208210810361463257634e487b7160e01b600052602260045260246000fd5b50919050565b6020808252600a908201526927b7363c9020b236b4b760b11b604082015260600190565b6000806040838503121561466f57600080fd5b505080516020909101519092909150565b60006020828403121561469257600080fd5b5051919050565b6000826146b657634e487b7160e01b600052601260045260246000fd5b500490565b600081546146c8816145fe565b8085526020600183811680156146e557600181146146ff5761472d565b60ff1985168884015283151560051b88018301955061472d565b866000528260002060005b858110156147255781548a820186015290830190840161470a565b890184019650505b505050505092915050565b828152604060208201526000613deb60408301846146bb565b8082028115828204841417611d4657611d466145c2565b606081016147768286614346565b6001600160a01b0393909316602082015260400152919050565b600061ffff8083168181036147a7576147a76145c2565b6001019392505050565b60208101611d468284614346565b6000600182016147d1576147d16145c2565b5060010190565b634e487b7160e01b600052604160045260246000fd5b601f82111561375557600081815260208120601f850160051c810160208610156148155750805b601f850160051c820191505b8181101561483457828155600101614821565b505050505050565b67ffffffffffffffff831115614854576148546147d8565b6148688361486283546145fe565b836147ee565b6000601f84116001811461489c57600085156148845750838201355b600019600387901b1c1916600186901b178355613cd4565b600083815260209020601f19861690835b828110156148cd57868501358255602094850194600190920191016148ad565b50868210156148ea5760001960f88860031b161c19848701351681555b505060018560011b0183555050505050565b81835281816020850137506000828201602090810191909152601f909101601f19169091010190565b6040815260006149396040830185876148fc565b9050826020830152949350505050565b60408152600061495c60408301856146bb565b90508260208301529392505050565b60208152600061408260208301846146bb565b818103614989575050565b61499382546145fe565b67ffffffffffffffff8111156149ab576149ab6147d8565b6149bf816149b984546145fe565b846147ee565b6000601f8211600181146149f357600083156149db5750848201545b600019600385901b1c1916600184901b178455613cd4565b600085815260209020601f19841690600086815260209020845b83811015614a2d5782860154825560019586019590910190602001614a0d565b5085831015614a4b5781850154600019600388901b60f8161c191681555b5050505050600190811b01905550565b602081526000613deb6020830184866148fc565b86815260c060208201526000614a8860c08301886146bb565b6001600160a01b03969096166040830152506060810193909352608083019190915260a09091015292915050565b848152606060208201526000614ad06060830185876148fc565b905082604083015295945050505050565b600060208284031215614af357600080fd5b8151614082816143c2565b60008251614b1081846020870161401f565b919091019291505056fea26469706673582212200265a77af5f6e79769236b3d5ac127be36f3b27c81929e19133cf3e4dcdc57dd64736f6c63430008110033",
    "linkReferences": {}
  },
  "methodIdentifiers": {
    "addMetaEvidence(string)": "b6694b7b",
    "addPaymentMethod(string,uint256,address)": "6b7e9eff",
    "admin()": "f851a440",
    "arbitrator()": "6cc6cde1",
    "arbitratorExtraData()": "0c7ac7b6",
    "batchRoundWithdraw(address,uint256,uint256,uint256)": "339ac67c",
    "buyOrder(uint256,address,address,uint256)": "c6ea76b9",
    "buyerTimeout()": "4db092b4",
    "changeAdmin(address)": "8f283970",
    "changeArbitrator(address,bytes)": "ba7079ca",
    "changeBuyerTimeout(uint256)": "f07dbd00",
    "changeFees(uint256)": "6cda375b",
    "changeSellerTimeout(uint256)": "e8cfe7ac",
    "completeOrder(uint256)": "b6adaaff",
    "confirmPaid(uint256)": "01e6e515",
    "depositTokens(uint256,address,uint256)": "015bf264",
    "disputeOrder(uint256)": "a09970b2",
    "fundAppeal(uint256,uint8)": "12b3a2c0",
    "getContributions(uint256,uint256,address)": "68c76ffd",
    "getNumberOfRounds(uint256)": "fc6f8f16",
    "getOrderFeeNTradeAmount(uint256)": "e4688104",
    "getOrderSellerFee(uint256)": "2b7fd2a9",
    "getOrdersCount()": "b5b3b051",
    "getPaymentMethodAddress(uint256,address)": "4db6e1ba",
    "getPaymentMethodSellerFeeRate(uint256,address)": "ae25ba89",
    "getPaymentMethodToken(uint256,address)": "73868552",
    "getPaymentMethodsCount()": "981b8a2f",
    "getRoundInfo(uint256,uint256)": "8a9bb02a",
    "loserStakeMultiplier()": "1d512085",
    "metaEvidenceUpdates()": "6cdc090f",
    "orders(uint256)": "a85c38ef",
    "paymentMethods(uint256)": "8b90cdc9",
    "protocolFees(address)": "dcf844a7",
    "relay()": "b59589d1",
    "rule(uint256,uint256)": "311a6c56",
    "sellerTimeout()": "dc2a7e5f",
    "sharedStakeMultiplier()": "41658341",
    "submitEvidence(uint256,string)": "a6a7f0eb",
    "timeoutByBuyer(uint256)": "870026f1",
    "timeoutBySeller(uint256)": "382a2b86",
    "tokenBalance(address,address)": "1049334f",
    "tradeFeeRate()": "6b04b9cf",
    "updatePaymentMetaEvidence(uint256,uint256)": "86c43159",
    "updatePaymentName(uint256,string)": "721878f4",
    "updateSellerPaymentMethod(uint256,string,uint256)": "c9df6f8b",
    "updateTokenEnabled(uint256,address,bool)": "a3d709dc",
    "winnerStakeMultiplier()": "7b943383",
    "withdrawFeesAndRewards(address,uint256,uint256)": "6e99a23a",
    "withdrawProtocolFees(address,uint256,address)": "0d12394b",
    "withdrawTokens(address,uint256)": "06b091f9"
  },
  "id": 22
}