{
  "abi": [
    {
      "inputs": [
        {
          "internalType": "address",
          "name": "_admin",
          "type": "address"
        },
        {
          "internalType": "address",
          "name": "_relay",
          "type": "address"
        },
        {
          "internalType": "string",
          "name": "_version",
          "type": "string"
        },
        {
          "internalType": "contract IArbitrator",
          "name": "_arbitrator",
          "type": "address"
        },
        {
          "internalType": "bytes",
          "name": "_arbitratorExtraData",
          "type": "bytes"
        },
        {
          "internalType": "uint256",
          "name": "_buyerTimeout",
          "type": "uint256"
        },
        {
          "internalType": "uint256",
          "name": "_sellerTimeout",
          "type": "uint256"
        },
        {
          "internalType": "uint256",
          "name": "_sharedStakeMultiplier",
          "type": "uint256"
        },
        {
          "internalType": "uint256",
          "name": "_winnerStakeMultiplier",
          "type": "uint256"
        },
        {
          "internalType": "uint256",
          "name": "_loserStakeMultiplier",
          "type": "uint256"
        },
        {
          "internalType": "uint256",
          "name": "_tradeFeeRate",
          "type": "uint256"
        }
      ],
      "stateMutability": "nonpayable",
      "type": "constructor"
    },
    {
      "anonymous": false,
      "inputs": [
        {
          "indexed": true,
          "internalType": "address",
          "name": "previousAdmin",
          "type": "address"
        },
        {
          "indexed": true,
          "internalType": "address",
          "name": "newAdmin",
          "type": "address"
        }
      ],
      "name": "AdminTransferred",
      "type": "event"
    },
    {
      "anonymous": false,
      "inputs": [
        {
          "indexed": true,
          "internalType": "uint256",
          "name": "_orderID",
          "type": "uint256"
        },
        {
          "indexed": false,
          "internalType": "enum Unipeer.Party",
          "name": "_party",
          "type": "uint8"
        },
        {
          "indexed": false,
          "internalType": "address",
          "name": "_contributor",
          "type": "address"
        },
        {
          "indexed": false,
          "internalType": "uint256",
          "name": "_amount",
          "type": "uint256"
        }
      ],
      "name": "AppealContribution",
      "type": "event"
    },
    {
      "anonymous": false,
      "inputs": [
        {
          "indexed": true,
          "internalType": "contract IArbitrator",
          "name": "_arbitrator",
          "type": "address"
        },
        {
          "indexed": true,
          "internalType": "uint256",
          "name": "_disputeID",
          "type": "uint256"
        },
        {
          "indexed": false,
          "internalType": "uint256",
          "name": "_metaEvidenceID",
          "type": "uint256"
        },
        {
          "indexed": false,
          "internalType": "uint256",
          "name": "_evidenceGroupID",
          "type": "uint256"
        }
      ],
      "name": "Dispute",
      "type": "event"
    },
    {
      "anonymous": false,
      "inputs": [
        {
          "indexed": true,
          "internalType": "contract IArbitrator",
          "name": "_arbitrator",
          "type": "address"
        },
        {
          "indexed": true,
          "internalType": "uint256",
          "name": "_evidenceGroupID",
          "type": "uint256"
        },
        {
          "indexed": true,
          "internalType": "address",
          "name": "_party",
          "type": "address"
        },
        {
          "indexed": false,
          "internalType": "string",
          "name": "_evidence",
          "type": "string"
        }
      ],
      "name": "Evidence",
      "type": "event"
    },
    {
      "anonymous": false,
      "inputs": [
        {
          "indexed": false,
          "internalType": "uint256",
          "name": "amount",
          "type": "uint256"
        }
      ],
      "name": "FeeWithdrawn",
      "type": "event"
    },
    {
      "anonymous": false,
      "inputs": [
        {
          "indexed": true,
          "internalType": "uint256",
          "name": "_orderID",
          "type": "uint256"
        },
        {
          "indexed": false,
          "internalType": "enum Unipeer.Party",
          "name": "_party",
          "type": "uint8"
        }
      ],
      "name": "HasPaidAppealFee",
      "type": "event"
    },
    {
      "anonymous": false,
      "inputs": [
        {
          "indexed": true,
          "internalType": "uint256",
          "name": "_metaEvidenceID",
          "type": "uint256"
        },
        {
          "indexed": false,
          "internalType": "string",
          "name": "_evidence",
          "type": "string"
        }
      ],
      "name": "MetaEvidence",
      "type": "event"
    },
    {
      "anonymous": false,
      "inputs": [
        {
          "indexed": true,
          "internalType": "uint256",
          "name": "orderID",
          "type": "uint256"
        },
        {
          "indexed": true,
          "internalType": "address",
          "name": "buyer",
          "type": "address"
        },
        {
          "indexed": true,
          "internalType": "address",
          "name": "seller",
          "type": "address"
        },
        {
          "indexed": false,
          "internalType": "uint16",
          "name": "paymentID",
          "type": "uint16"
        },
        {
          "indexed": false,
          "internalType": "contract IERC20",
          "name": "token",
          "type": "address"
        },
        {
          "indexed": false,
          "internalType": "uint256",
          "name": "amount",
          "type": "uint256"
        },
        {
          "indexed": false,
          "internalType": "uint256",
          "name": "feeAmount",
          "type": "uint256"
        },
        {
          "indexed": false,
          "internalType": "uint256",
          "name": "sellerFeeAmount",
          "type": "uint256"
        }
      ],
      "name": "OrderBuy",
      "type": "event"
    },
    {
      "anonymous": false,
      "inputs": [
        {
          "indexed": true,
          "internalType": "uint256",
          "name": "orderID",
          "type": "uint256"
        }
      ],
      "name": "OrderComplete",
      "type": "event"
    },
    {
      "anonymous": false,
      "inputs": [
        {
          "indexed": true,
          "internalType": "uint256",
          "name": "orderID",
          "type": "uint256"
        }
      ],
      "name": "OrderPaid",
      "type": "event"
    },
    {
      "anonymous": false,
      "inputs": [
        {
          "indexed": true,
          "internalType": "uint256",
          "name": "orderID",
          "type": "uint256"
        }
      ],
      "name": "OrderResolved",
      "type": "event"
    },
    {
      "anonymous": false,
      "inputs": [
        {
          "indexed": true,
          "internalType": "uint16",
          "name": "paymentID",
          "type": "uint16"
        },
        {
          "indexed": false,
          "internalType": "contract IERC20",
          "name": "token",
          "type": "address"
        }
      ],
      "name": "PaymentMethodTokenDisabled",
      "type": "event"
    },
    {
      "anonymous": false,
      "inputs": [
        {
          "indexed": true,
          "internalType": "uint16",
          "name": "paymentID",
          "type": "uint16"
        },
        {
          "indexed": false,
          "internalType": "contract IERC20",
          "name": "token",
          "type": "address"
        }
      ],
      "name": "PaymentMethodTokenEnabled",
      "type": "event"
    },
    {
      "anonymous": false,
      "inputs": [
        {
          "indexed": true,
          "internalType": "uint16",
          "name": "paymentID",
          "type": "uint16"
        },
        {
          "indexed": false,
          "internalType": "string",
          "name": "paymentName",
          "type": "string"
        },
        {
          "indexed": false,
          "internalType": "uint256",
          "name": "metaEvidenceID",
          "type": "uint256"
        }
      ],
      "name": "PaymentMethodUpdate",
      "type": "event"
    },
    {
      "anonymous": false,
      "inputs": [
        {
          "indexed": true,
          "internalType": "contract IArbitrator",
          "name": "_arbitrator",
          "type": "address"
        },
        {
          "indexed": true,
          "internalType": "uint256",
          "name": "_disputeID",
          "type": "uint256"
        },
        {
          "indexed": false,
          "internalType": "uint256",
          "name": "_ruling",
          "type": "uint256"
        }
      ],
      "name": "Ruling",
      "type": "event"
    },
    {
      "anonymous": false,
      "inputs": [
        {
          "indexed": true,
          "internalType": "address",
          "name": "sender",
          "type": "address"
        },
        {
          "indexed": false,
          "internalType": "contract IERC20",
          "name": "token",
          "type": "address"
        },
        {
          "indexed": false,
          "internalType": "uint256",
          "name": "amount",
          "type": "uint256"
        }
      ],
      "name": "SellerDeposit",
      "type": "event"
    },
    {
      "anonymous": false,
      "inputs": [
        {
          "indexed": true,
          "internalType": "address",
          "name": "sender",
          "type": "address"
        },
        {
          "indexed": false,
          "internalType": "uint16",
          "name": "paymentID",
          "type": "uint16"
        },
        {
          "indexed": false,
          "internalType": "string",
          "name": "paymentAddress",
          "type": "string"
        },
        {
          "indexed": false,
          "internalType": "uint256",
          "name": "feeRate",
          "type": "uint256"
        }
      ],
      "name": "SellerPaymentMethod",
      "type": "event"
    },
    {
      "anonymous": false,
      "inputs": [
        {
          "indexed": true,
          "internalType": "address",
          "name": "sender",
          "type": "address"
        },
        {
          "indexed": false,
          "internalType": "contract IERC20",
          "name": "token",
          "type": "address"
        },
        {
          "indexed": false,
          "internalType": "uint256",
          "name": "amount",
          "type": "uint256"
        }
      ],
      "name": "SellerWithdraw",
      "type": "event"
    },
    {
      "anonymous": false,
      "inputs": [
        {
          "indexed": true,
          "internalType": "uint256",
          "name": "orderID",
          "type": "uint256"
        }
      ],
      "name": "TimedOutByBuyer",
      "type": "event"
    },
    {
      "anonymous": false,
      "inputs": [
        {
          "indexed": true,
          "internalType": "uint256",
          "name": "orderID",
          "type": "uint256"
        }
      ],
      "name": "TimedOutBySeller",
      "type": "event"
    },
    {
      "inputs": [
        {
          "internalType": "string",
          "name": "_metaEvidence",
          "type": "string"
        }
      ],
      "name": "addMetaEvidence",
      "outputs": [
        {
          "internalType": "uint256",
          "name": "metaEvidenceID",
          "type": "uint256"
        }
      ],
      "stateMutability": "nonpayable",
      "type": "function"
    },
    {
      "inputs": [
        {
          "internalType": "string",
          "name": "_paymentName",
          "type": "string"
        },
        {
          "internalType": "uint256",
          "name": "_metaEvidenceID",
          "type": "uint256"
        },
        {
          "internalType": "contract IERC20",
          "name": "_initalEnabledToken",
          "type": "address"
        }
      ],
      "name": "addPaymentMethod",
      "outputs": [],
      "stateMutability": "nonpayable",
      "type": "function"
    },
    {
      "inputs": [],
      "name": "admin",
      "outputs": [
        {
          "internalType": "address",
          "name": "",
          "type": "address"
        }
      ],
      "stateMutability": "view",
      "type": "function"
    },
    {
      "inputs": [],
      "name": "arbitrator",
      "outputs": [
        {
          "internalType": "contract IArbitrator",
          "name": "",
          "type": "address"
        }
      ],
      "stateMutability": "view",
      "type": "function"
    },
    {
      "inputs": [],
      "name": "arbitratorExtraData",
      "outputs": [
        {
          "internalType": "bytes",
          "name": "",
          "type": "bytes"
        }
      ],
      "stateMutability": "view",
      "type": "function"
    },
    {
      "inputs": [
        {
          "internalType": "address payable",
          "name": "_beneficiary",
          "type": "address"
        },
        {
          "internalType": "uint256",
          "name": "_orderID",
          "type": "uint256"
        },
        {
          "internalType": "uint256",
          "name": "_cursor",
          "type": "uint256"
        },
        {
          "internalType": "uint256",
          "name": "_count",
          "type": "uint256"
        }
      ],
      "name": "batchRoundWithdraw",
      "outputs": [],
      "stateMutability": "nonpayable",
      "type": "function"
    },
    {
      "inputs": [
        {
          "internalType": "uint16",
          "name": "_paymentID",
          "type": "uint16"
        },
        {
          "internalType": "address",
          "name": "_seller",
          "type": "address"
        },
        {
          "internalType": "contract IERC20",
          "name": "_token",
          "type": "address"
        },
        {
          "internalType": "uint256",
          "name": "_amount",
          "type": "uint256"
        }
      ],
      "name": "buyOrder",
      "outputs": [],
      "stateMutability": "payable",
      "type": "function"
    },
    {
      "inputs": [],
      "name": "buyerTimeout",
      "outputs": [
        {
          "internalType": "uint256",
          "name": "",
          "type": "uint256"
        }
      ],
      "stateMutability": "view",
      "type": "function"
    },
    {
      "inputs": [
        {
          "internalType": "address",
          "name": "_newAdmin",
          "type": "address"
        }
      ],
      "name": "changeAdmin",
      "outputs": [],
      "stateMutability": "nonpayable",
      "type": "function"
    },
    {
      "inputs": [
        {
          "internalType": "contract IArbitrator",
          "name": "_arbitrator",
          "type": "address"
        },
        {
          "internalType": "bytes",
          "name": "_arbitratorExtraData",
          "type": "bytes"
        }
      ],
      "name": "changeArbitrator",
      "outputs": [],
      "stateMutability": "nonpayable",
      "type": "function"
    },
    {
      "inputs": [
        {
          "internalType": "uint256",
          "name": "_timeout",
          "type": "uint256"
        }
      ],
      "name": "changeBuyerTimeout",
      "outputs": [],
      "stateMutability": "nonpayable",
      "type": "function"
    },
    {
      "inputs": [
        {
          "internalType": "uint256",
          "name": "_feeRate",
          "type": "uint256"
        }
      ],
      "name": "changeFees",
      "outputs": [],
      "stateMutability": "nonpayable",
      "type": "function"
    },
    {
      "inputs": [
        {
          "internalType": "uint256",
          "name": "_timeout",
          "type": "uint256"
        }
      ],
      "name": "changeSellerTimeout",
      "outputs": [],
      "stateMutability": "nonpayable",
      "type": "function"
    },
    {
      "inputs": [
        {
          "internalType": "uint256",
          "name": "_orderID",
          "type": "uint256"
        }
      ],
      "name": "completeOrder",
      "outputs": [],
      "stateMutability": "nonpayable",
      "type": "function"
    },
    {
      "inputs": [
        {
          "internalType": "uint256",
          "name": "_orderID",
          "type": "uint256"
        }
      ],
      "name": "confirmPaid",
      "outputs": [],
      "stateMutability": "nonpayable",
      "type": "function"
    },
    {
      "inputs": [
        {
          "internalType": "uint16",
          "name": "_paymentID",
          "type": "uint16"
        },
        {
          "internalType": "contract IERC20",
          "name": "_token",
          "type": "address"
        },
        {
          "internalType": "uint256",
          "name": "_amount",
          "type": "uint256"
        }
      ],
      "name": "depositTokens",
      "outputs": [],
      "stateMutability": "nonpayable",
      "type": "function"
    },
    {
      "inputs": [
        {
          "internalType": "uint256",
          "name": "_orderID",
          "type": "uint256"
        }
      ],
      "name": "disputeOrder",
      "outputs": [],
      "stateMutability": "payable",
      "type": "function"
    },
    {
      "inputs": [
        {
          "internalType": "uint256",
          "name": "_orderID",
          "type": "uint256"
        },
        {
          "internalType": "enum Unipeer.Party",
          "name": "_side",
          "type": "uint8"
        }
      ],
      "name": "fundAppeal",
      "outputs": [],
      "stateMutability": "payable",
      "type": "function"
    },
    {
      "inputs": [
        {
          "internalType": "uint256",
          "name": "_orderID",
          "type": "uint256"
        },
        {
          "internalType": "uint256",
          "name": "_round",
          "type": "uint256"
        },
        {
          "internalType": "address",
          "name": "_contributor",
          "type": "address"
        }
      ],
      "name": "getContributions",
      "outputs": [
        {
          "internalType": "uint256[3]",
          "name": "contributions",
          "type": "uint256[3]"
        }
      ],
      "stateMutability": "view",
      "type": "function"
    },
    {
      "inputs": [],
      "name": "getCountOrders",
      "outputs": [
        {
          "internalType": "uint256",
          "name": "",
          "type": "uint256"
        }
      ],
      "stateMutability": "view",
      "type": "function"
    },
    {
      "inputs": [
        {
          "internalType": "uint256",
          "name": "_orderID",
          "type": "uint256"
        }
      ],
      "name": "getNumberOfRounds",
      "outputs": [
        {
          "internalType": "uint256",
          "name": "",
          "type": "uint256"
        }
      ],
      "stateMutability": "view",
      "type": "function"
    },
    {
      "inputs": [
        {
          "internalType": "uint256",
          "name": "_orderID",
          "type": "uint256"
        }
      ],
      "name": "getOrderFeeAmount",
      "outputs": [
        {
          "internalType": "uint256",
          "name": "fee",
          "type": "uint256"
        },
        {
          "internalType": "uint256",
          "name": "tradeAmount",
          "type": "uint256"
        }
      ],
      "stateMutability": "view",
      "type": "function"
    },
    {
      "inputs": [
        {
          "internalType": "uint16",
          "name": "_paymentID",
          "type": "uint16"
        },
        {
          "internalType": "address",
          "name": "_seller",
          "type": "address"
        }
      ],
      "name": "getPaymentMethodAddress",
      "outputs": [
        {
          "internalType": "string",
          "name": "",
          "type": "string"
        }
      ],
      "stateMutability": "view",
      "type": "function"
    },
    {
      "inputs": [
        {
          "internalType": "uint16",
          "name": "_paymentID",
          "type": "uint16"
        },
        {
          "internalType": "address",
          "name": "_seller",
          "type": "address"
        }
      ],
      "name": "getPaymentMethodSellerFeeRate",
      "outputs": [
        {
          "internalType": "uint256",
          "name": "fee",
          "type": "uint256"
        }
      ],
      "stateMutability": "view",
      "type": "function"
    },
    {
      "inputs": [
        {
          "internalType": "uint16",
          "name": "_paymentID",
          "type": "uint16"
        },
        {
          "internalType": "contract IERC20",
          "name": "_token",
          "type": "address"
        }
      ],
      "name": "getPaymentMethodToken",
      "outputs": [
        {
          "internalType": "bool",
          "name": "",
          "type": "bool"
        }
      ],
      "stateMutability": "view",
      "type": "function"
    },
    {
      "inputs": [
        {
          "internalType": "uint256",
          "name": "_orderID",
          "type": "uint256"
        },
        {
          "internalType": "uint256",
          "name": "_round",
          "type": "uint256"
        }
      ],
      "name": "getRoundInfo",
      "outputs": [
        {
          "internalType": "uint256[3]",
          "name": "paidFees",
          "type": "uint256[3]"
        },
        {
          "internalType": "enum Unipeer.Party",
          "name": "sideFunded",
          "type": "uint8"
        },
        {
          "internalType": "uint256",
          "name": "feeRewards",
          "type": "uint256"
        },
        {
          "internalType": "bool",
          "name": "appealed",
          "type": "bool"
        }
      ],
      "stateMutability": "view",
      "type": "function"
    },
    {
      "inputs": [],
      "name": "loserStakeMultiplier",
      "outputs": [
        {
          "internalType": "uint256",
          "name": "",
          "type": "uint256"
        }
      ],
      "stateMutability": "view",
      "type": "function"
    },
    {
      "inputs": [],
      "name": "metaEvidenceUpdates",
      "outputs": [
        {
          "internalType": "uint256",
          "name": "",
          "type": "uint256"
        }
      ],
      "stateMutability": "view",
      "type": "function"
    },
    {
      "inputs": [
        {
          "internalType": "uint256",
          "name": "",
          "type": "uint256"
        }
      ],
      "name": "orders",
      "outputs": [
        {
          "internalType": "uint256",
          "name": "amount",
          "type": "uint256"
        },
        {
          "internalType": "uint256",
          "name": "fee",
          "type": "uint256"
        },
        {
          "internalType": "uint256",
          "name": "buyerCost",
          "type": "uint256"
        },
        {
          "internalType": "uint256",
          "name": "sellerCost",
          "type": "uint256"
        },
        {
          "internalType": "uint256",
          "name": "disputeID",
          "type": "uint256"
        },
        {
          "internalType": "uint256",
          "name": "lastInteraction",
          "type": "uint256"
        },
        {
          "internalType": "address payable",
          "name": "buyer",
          "type": "address"
        },
        {
          "internalType": "address payable",
          "name": "seller",
          "type": "address"
        },
        {
          "internalType": "contract IERC20",
          "name": "token",
          "type": "address"
        },
        {
          "internalType": "uint16",
          "name": "paymentID",
          "type": "uint16"
        },
        {
          "internalType": "enum Unipeer.Status",
          "name": "status",
          "type": "uint8"
        }
      ],
      "stateMutability": "view",
      "type": "function"
    },
    {
      "inputs": [
        {
          "internalType": "uint16",
          "name": "",
          "type": "uint16"
        }
      ],
      "name": "paymentMethods",
      "outputs": [
        {
          "internalType": "uint256",
          "name": "metaEvidenceID",
          "type": "uint256"
        },
        {
          "internalType": "string",
          "name": "paymentName",
          "type": "string"
        }
      ],
      "stateMutability": "view",
      "type": "function"
    },
    {
      "inputs": [],
      "name": "protocolFeesSum",
      "outputs": [
        {
          "internalType": "uint256",
          "name": "",
          "type": "uint256"
        }
      ],
      "stateMutability": "view",
      "type": "function"
    },
    {
      "inputs": [],
      "name": "relay",
      "outputs": [
        {
          "internalType": "address",
          "name": "",
          "type": "address"
        }
      ],
      "stateMutability": "view",
      "type": "function"
    },
    {
      "inputs": [
        {
          "internalType": "uint256",
          "name": "_disputeID",
          "type": "uint256"
        },
        {
          "internalType": "uint256",
          "name": "_ruling",
          "type": "uint256"
        }
      ],
      "name": "rule",
      "outputs": [],
      "stateMutability": "nonpayable",
      "type": "function"
    },
    {
      "inputs": [],
      "name": "sellerTimeout",
      "outputs": [
        {
          "internalType": "uint256",
          "name": "",
          "type": "uint256"
        }
      ],
      "stateMutability": "view",
      "type": "function"
    },
    {
      "inputs": [],
      "name": "sharedStakeMultiplier",
      "outputs": [
        {
          "internalType": "uint256",
          "name": "",
          "type": "uint256"
        }
      ],
      "stateMutability": "view",
      "type": "function"
    },
    {
      "inputs": [
        {
          "internalType": "uint256",
          "name": "_orderID",
          "type": "uint256"
        },
        {
          "internalType": "string",
          "name": "_evidence",
          "type": "string"
        }
      ],
      "name": "submitEvidence",
      "outputs": [],
      "stateMutability": "nonpayable",
      "type": "function"
    },
    {
      "inputs": [
        {
          "internalType": "uint256",
          "name": "_orderID",
          "type": "uint256"
        }
      ],
      "name": "timeoutByBuyer",
      "outputs": [],
      "stateMutability": "nonpayable",
      "type": "function"
    },
    {
      "inputs": [
        {
          "internalType": "uint256",
          "name": "_orderID",
          "type": "uint256"
        }
      ],
      "name": "timeoutBySeller",
      "outputs": [],
      "stateMutability": "nonpayable",
      "type": "function"
    },
    {
      "inputs": [
        {
          "internalType": "address",
          "name": "",
          "type": "address"
        },
        {
          "internalType": "contract IERC20",
          "name": "",
          "type": "address"
        }
      ],
      "name": "tokenBalance",
      "outputs": [
        {
          "internalType": "uint256",
          "name": "",
          "type": "uint256"
        }
      ],
      "stateMutability": "view",
      "type": "function"
    },
    {
      "inputs": [],
      "name": "totalPaymentMethods",
      "outputs": [
        {
          "internalType": "uint16",
          "name": "",
          "type": "uint16"
        }
      ],
      "stateMutability": "view",
      "type": "function"
    },
    {
      "inputs": [],
      "name": "tradeFeeRate",
      "outputs": [
        {
          "internalType": "uint256",
          "name": "",
          "type": "uint256"
        }
      ],
      "stateMutability": "view",
      "type": "function"
    },
    {
      "inputs": [
        {
          "internalType": "uint16",
          "name": "_paymentID",
          "type": "uint16"
        },
        {
          "internalType": "uint256",
          "name": "_metaEvidenceID",
          "type": "uint256"
        }
      ],
      "name": "updatePaymentMetaEvidence",
      "outputs": [],
      "stateMutability": "nonpayable",
      "type": "function"
    },
    {
      "inputs": [
        {
          "internalType": "uint16",
          "name": "_paymentID",
          "type": "uint16"
        },
        {
          "internalType": "string",
          "name": "_paymentName",
          "type": "string"
        }
      ],
      "name": "updatePaymentName",
      "outputs": [],
      "stateMutability": "nonpayable",
      "type": "function"
    },
    {
      "inputs": [
        {
          "internalType": "uint16",
          "name": "_paymentID",
          "type": "uint16"
        },
        {
          "internalType": "string",
          "name": "_paymentAddress",
          "type": "string"
        },
        {
          "internalType": "uint256",
          "name": "_feeRate",
          "type": "uint256"
        }
      ],
      "name": "updateSellerPaymentMethod",
      "outputs": [],
      "stateMutability": "nonpayable",
      "type": "function"
    },
    {
      "inputs": [
        {
          "internalType": "uint16",
          "name": "_paymentID",
          "type": "uint16"
        },
        {
          "internalType": "contract IERC20",
          "name": "_token",
          "type": "address"
        },
        {
          "internalType": "bool",
          "name": "_enabled",
          "type": "bool"
        }
      ],
      "name": "updateTokenEnabled",
      "outputs": [],
      "stateMutability": "nonpayable",
      "type": "function"
    },
    {
      "inputs": [],
      "name": "winnerStakeMultiplier",
      "outputs": [
        {
          "internalType": "uint256",
          "name": "",
          "type": "uint256"
        }
      ],
      "stateMutability": "view",
      "type": "function"
    },
    {
      "inputs": [
        {
          "internalType": "uint256",
          "name": "_amount",
          "type": "uint256"
        },
        {
          "internalType": "address payable",
          "name": "_to",
          "type": "address"
        }
      ],
      "name": "withdrawFees",
      "outputs": [],
      "stateMutability": "nonpayable",
      "type": "function"
    },
    {
      "inputs": [
        {
          "internalType": "address payable",
          "name": "_beneficiary",
          "type": "address"
        },
        {
          "internalType": "uint256",
          "name": "_orderID",
          "type": "uint256"
        },
        {
          "internalType": "uint256",
          "name": "_round",
          "type": "uint256"
        }
      ],
      "name": "withdrawFeesAndRewards",
      "outputs": [],
      "stateMutability": "nonpayable",
      "type": "function"
    },
    {
      "inputs": [
        {
          "internalType": "contract IERC20",
          "name": "_token",
          "type": "address"
        },
        {
          "internalType": "uint256",
          "name": "_amount",
          "type": "uint256"
        }
      ],
      "name": "withdrawTokens",
      "outputs": [],
      "stateMutability": "nonpayable",
      "type": "function"
    }
  ],
  "bytecode": {
    "object": "0x60e06040523480156200001157600080fd5b506040516200505938038062005059833981016040819052620000349162000189565b600080546001600160a01b03808e166001600160a01b031992831617909255600180548d8416908316179055600c8054928b1692909116919091179055600d6200007f8882620002fd565b5060079590955560089390935560809190915260a05260c05260035550620003c99350505050565b80516001600160a01b0381168114620000bf57600080fd5b919050565b634e487b7160e01b600052604160045260246000fd5b600082601f830112620000ec57600080fd5b81516001600160401b0380821115620001095762000109620000c4565b604051601f8301601f19908116603f01168101908282118183101715620001345762000134620000c4565b816040528381526020925086838588010111156200015157600080fd5b600091505b8382101562000175578582018301518183018401529082019062000156565b600093810190920192909252949350505050565b60008060008060008060008060008060006101608c8e031215620001ac57600080fd5b620001b78c620000a7565b9a50620001c760208d01620000a7565b60408d0151909a506001600160401b03811115620001e457600080fd5b620001f28e828f01620000da565b9950506200020360608d01620000a7565b60808d01519098506001600160401b038111156200022057600080fd5b6200022e8e828f01620000da565b97505060a08c0151955060c08c0151945060e08c015193506101008c015192506101208c015191506101408c015190509295989b509295989b9093969950565b600181811c908216806200028357607f821691505b602082108103620002a457634e487b7160e01b600052602260045260246000fd5b50919050565b601f821115620002f857600081815260208120601f850160051c81016020861015620002d35750805b601f850160051c820191505b81811015620002f457828155600101620002df565b5050505b505050565b81516001600160401b03811115620003195762000319620000c4565b62000331816200032a84546200026e565b84620002aa565b602080601f831160018114620003695760008415620003505750858301515b600019600386901b1c1916600185901b178555620002f4565b600085815260208120601f198616915b828110156200039a5788860151825594840194600190910190840162000379565b5085821015620003b95787850151600019600388901b60f8161c191681555b5050505050600190811b01905550565b60805160a05160c051614c4b6200040e600039600081816103e50152611165015260008181610660015261108301526000818161047901526110b30152614c4b6000f3fe6080604052600436106102ae5760003560e01c80637b94338311610175578063ae1a38ed116100dc578063dc2a7e5f11610095578063f07dbd001161006f578063f07dbd001461091c578063f851a4401461093c578063fbef70451461095c578063fc6f8f161461097257600080fd5b8063dc2a7e5f146108c6578063dd2cc3f3146108dc578063e8cfe7ac146108fc57600080fd5b8063ae1a38ed146107f1578063b59589d114610811578063b6694b7b14610831578063b6adaaff14610851578063ba7079ca14610871578063bc9ebc5f1461089157600080fd5b806398f1c1621161012e57806398f1c162146107325780639e324aea14610747578063a09970b214610767578063a6a7f0eb1461077a578063a85c38ef1461079a578063abaa14ff146107d157600080fd5b80637b9433831461064e578063870026f114610682578063889d7f15146106a25780638a9bb02a146106c25780638f283970146106f257806396917abe1461071257600080fd5b806346639cca116102195780636b7e9eff116101d25780636b7e9eff146105555780636cc6cde1146105755780636cda375b146105ad5780636cdc090f146105cd5780636e99a23a146105e35780636ea8b5ea1461060357600080fd5b806346639cca1461049b5780634b2dd8f4146104c95780634db092b4146104e957806364ac92f2146104ff57806368c76ffd146105125780636b04b9cf1461053f57600080fd5b806312b3a2c01161026b57806312b3a2c0146103c05780631d512085146103d3578063311a6c5614610407578063339ac67c14610427578063382a2b8614610447578063416583411461046757600080fd5b806301e6e515146102b357806306b091f9146102d5578063075a5415146102f55780630c7ac7b61461032a5780630cd4384d1461034c5780631049334f1461037a575b600080fd5b3480156102bf57600080fd5b506102d36102ce366004613ff7565b610992565b005b3480156102e157600080fd5b506102d36102f0366004614028565b610b47565b34801561030157600080fd5b5061031561031036600461406b565b610ca1565b60405190151581526020015b60405180910390f35b34801561033657600080fd5b5061033f610cd6565b60405161032191906140f2565b34801561035857600080fd5b5061036c610367366004614105565b610d64565b604051610321929190614120565b34801561038657600080fd5b506103b2610395366004614139565b600960209081526000928352604080842090915290825290205481565b604051908152602001610321565b6102d36103ce366004614157565b610e09565b3480156103df57600080fd5b506103b27f000000000000000000000000000000000000000000000000000000000000000081565b34801561041357600080fd5b506102d3610422366004614180565b6115c0565b34801561043357600080fd5b506102d36104423660046141a2565b6117b8565b34801561045357600080fd5b506102d3610462366004613ff7565b611956565b34801561047357600080fd5b506103b27f000000000000000000000000000000000000000000000000000000000000000081565b3480156104a757600080fd5b506004546104b69061ffff1681565b60405161ffff9091168152602001610321565b3480156104d557600080fd5b506102d36104e43660046141dd565b611ac5565b3480156104f557600080fd5b506103b260075481565b6102d361050d36600461421c565b611c48565b34801561051e57600080fd5b5061053261052d36600461426b565b6121a2565b60405161032191906142c7565b34801561054b57600080fd5b506103b260035481565b34801561056157600080fd5b506102d3610570366004614317565b61223d565b34801561058157600080fd5b50600c54610595906001600160a01b031681565b6040516001600160a01b039091168152602001610321565b3480156105b957600080fd5b506102d36105c8366004613ff7565b6123cd565b3480156105d957600080fd5b506103b260065481565b3480156105ef57600080fd5b506102d36105fe366004614376565b61242c565b34801561060f57600080fd5b506103b261061e36600461406b565b61ffff90911660009081526005602090815260408083206001600160a01b03909416835260049093019052205490565b34801561065a57600080fd5b506103b27f000000000000000000000000000000000000000000000000000000000000000081565b34801561068e57600080fd5b506102d361069d366004613ff7565b612573565b3480156106ae57600080fd5b5061033f6106bd36600461406b565b612747565b3480156106ce57600080fd5b506106e26106dd366004614180565b61280a565b60405161032194939291906143d5565b3480156106fe57600080fd5b506102d361070d366004614407565b6128c8565b34801561071e57600080fd5b506102d361072d366004614424565b612920565b34801561073e57600080fd5b50600b546103b2565b34801561075357600080fd5b506102d361076236600461447e565b6129f2565b6102d3610775366004613ff7565b612acc565b34801561078657600080fd5b506102d361079536600461449a565b612e39565b3480156107a657600080fd5b506107ba6107b5366004613ff7565b61300d565b6040516103219b9a999897969594939291906144e6565b3480156107dd57600080fd5b506102d36107ec366004614571565b613091565b3480156107fd57600080fd5b506102d361080c3660046145af565b61318f565b34801561081d57600080fd5b50600154610595906001600160a01b031681565b34801561083d57600080fd5b506103b261084c3660046145e9565b61321e565b34801561085d57600080fd5b506102d361086c366004613ff7565b61327e565b34801561087d57600080fd5b506102d361088c36600461462b565b61344b565b34801561089d57600080fd5b506108b16108ac366004613ff7565b61347b565b60408051928352602083019190915201610321565b3480156108d257600080fd5b506103b260085481565b3480156108e857600080fd5b506102d36108f736600461464b565b6134c2565b34801561090857600080fd5b506102d3610917366004613ff7565b61355c565b34801561092857600080fd5b506102d3610937366004613ff7565b613569565b34801561094857600080fd5b50600054610595906001600160a01b031681565b34801561096857600080fd5b506103b260025481565b34801561097e57600080fd5b506103b261098d366004613ff7565b613576565b600b5481106109bc5760405162461bcd60e51b81526004016109b390614670565b60405180910390fd5b6000600b82815481106109d1576109d161469a565b906000526020600020906009020190506109e96135e2565b60068201546001600160a01b03908116911614610a355760405162461bcd60e51b815260206004820152600a60248201526927b7363c90213abcb2b960b11b60448201526064016109b3565b60006008820154600160b01b900460ff166005811115610a5757610a576143ab565b14610a9c5760405162461bcd60e51b815260206004820152601560248201527413dc99195c94dd185d1d5cce880850dc99585d1959605a1b60448201526064016109b3565b426007548260050154610aaf91906146c6565b1015610afd5760405162461bcd60e51b815260206004820152601c60248201527f5061796d656e7420636f6e6669726d6174696f6e2074696d656f75740000000060448201526064016109b3565b42600582015560088101805460ff60b01b1916600160b01b17905560405182907f15e33efda35e5da2fb096ba49585307ba468af144aea691da964aaff1a7f3a5790600090a25050565b8060096000610b546135e2565b6001600160a01b03908116825260208083019390935260409182016000908120918716815292529020541015610bcc5760405162461bcd60e51b815260206004820152601e60248201527f4e6f7420656e6f7567682062616c616e636520746f207769746864726177000060448201526064016109b3565b8060096000610bd96135e2565b6001600160a01b03166001600160a01b031681526020019081526020016000206000846001600160a01b03166001600160a01b031681526020019081526020016000206000828254610c2b91906146d9565b90915550610c4d9050610c3c6135e2565b6001600160a01b038416908361364a565b610c556135e2565b604080516001600160a01b0385811682526020820185905292909216917f5c9993d2dd44f9c0f3ee9d50711f139df4c5139f8886d073d6666663a14fa639910160405180910390a25050565b61ffff821660009081526005602090815260408083206001600160a01b038516845260020190915290205460ff165b92915050565b600d8054610ce3906146ec565b80601f0160208091040260200160405190810160405280929190818152602001828054610d0f906146ec565b8015610d5c5780601f10610d3157610100808354040283529160200191610d5c565b820191906000526020600020905b815481529060010190602001808311610d3f57829003601f168201915b505050505081565b60056020526000908152604090208054600182018054919291610d86906146ec565b80601f0160208091040260200160405190810160405280929190818152602001828054610db2906146ec565b8015610dff5780601f10610dd457610100808354040283529160200191610dff565b820191906000526020600020905b815481529060010190602001808311610de257829003601f168201915b5050505050905082565b600b548210610e2a5760405162461bcd60e51b81526004016109b390614670565b6000600b8381548110610e3f57610e3f61469a565b6000918252602082206009909102019150826002811115610e6257610e626143ab565b03610e9e5760405162461bcd60e51b815260206004820152600c60248201526b2bb937b733903830b93a3c9760a11b60448201526064016109b3565b60046008820154600160b01b900460ff166005811115610ec057610ec06143ab565b14610f045760405162461bcd60e51b8152602060048201526014602482015273139bc8191a5cdc1d5d19481d1bc8185c1c19585b60621b60448201526064016109b3565b6004808201546000818152600a60205260408082206003810154915163afe15cfb60e01b81529094929384936001600160a01b039093169263afe15cfb92610f5192910190815260200190565b6040805180830381865afa158015610f6d573d6000803e3d6000fd5b505050506040513d601f19601f82011682018060405250810190610f919190614726565b91509150814210158015610fa457508042105b610ff05760405162461bcd60e51b815260206004820181905260248201527f46756e64696e67206e6f742077697468696e2061707065616c20706572696f6460448201526064016109b3565b6003830154600485810154604051631c3db16d60e01b81529182015260009182916001600160a01b0390911690631c3db16d90602401602060405180830381865afa158015611043573d6000803e3d6000fd5b505050506040513d601f19601f82011682018060405250810190611067919061474a565b905086600281111561107b5761107b6143ab565b81036110a9577f00000000000000000000000000000000000000000000000000000000000000009150611187565b806000036110d9577f00000000000000000000000000000000000000000000000000000000000000009150611187565b60026110e585856146c6565b6110ef9190614763565b42106111635760405162461bcd60e51b815260206004820152603d60248201527f546865206c6f736572206d7573742070617920647572696e672074686520666960448201527f7273742068616c66206f66207468652061707065616c20706572696f6400000060648201526084016109b3565b7f000000000000000000000000000000000000000000000000000000000000000091505b6001850154610100900461ffff166000908152600280870160205260409091206003810154909160ff909116908111156111c3576111c36143ab565b8860028111156111d5576111d56143ab565b036112145760405162461bcd60e51b815260206004820152600f60248201526e105c1c19585b08199959481c185a59608a1b60448201526064016109b3565b600386015460048089015460405163791f8b7360e11b81526000936001600160a01b03169263f23f16e69261124f929091808d019101614802565b602060405180830381865afa15801561126c573d6000803e3d6000fd5b505050506040513d601f19601f82011682018060405250810190611290919061474a565b905060006127106112a1868461481b565b6112ab9190614763565b6112b590836146c6565b90506000806112f234868e60028111156112d1576112d16143ab565b600381106112e1576112e161469a565b01546112ed90866146d9565b6136b2565b9092509050816005860160006113066135e2565b6001600160a01b03166001600160a01b031681526020019081526020016000208d6002811115611338576113386143ab565b600381106113485761134861469a565b01600082825461135891906146c6565b90915550829050858d6002811115611372576113726143ab565b600381106113825761138261469a565b01600082825461139291906146c6565b909155508d90507f22039e79a27860a038aece214124c8ecef12fdc1334feb8e8a157a0ae16a1db48d6113c36135e2565b856040516113d393929190614832565b60405180910390a28015611411576113e96135e2565b6001600160a01b03166108fc829081150290604051600060405180830381858888f150505050505b50819050838b6002811115611428576114286143ab565b600381106114385761143861469a565b0154106115b3576000600384015460ff16600281111561145a5761145a6143ab565b0361148a576003830180548b919060ff19166001836002811115611480576114806143ab565b021790555061157a565b60038801546004808b015460405163093225f160e31b81526001600160a01b03909316926349912f889286926114c6929091808f019101614802565b6000604051808303818588803b1580156114df57600080fd5b505af11580156114f3573d6000803e3d6000fd5b50859350869250600291506115059050565b600381106115155761151561469a565b0154846001015461152691906146c6565b61153091906146d9565b600484015560018881018054610100900461ffff169161154f8361485a565b825461ffff9182166101009390930a92830291909202199091161790555060038301805460ff191690555b8a7f213276d821d6205d87fa4f4658db4bf5a24a2323b0fdd8ffcd239c445f86a57b8b6040516115aa919061487b565b60405180910390a25b5050505050505050505050565b6000828152600a6020526040902060038101546001600160a01b0316331461161c5760405162461bcd60e51b815260206004820152600f60248201526e27b7363c9030b93134ba3930ba37b960891b60448201526064016109b3565b600581015460ff1615156001036116755760405162461bcd60e51b815260206004820152601960248201527f204469737075746520616c7265616479207265736f6c7665640000000000000060448201526064016109b3565b600181810154610100900461ffff166000908152600283016020526040902090600382015460ff1660028111156116ae576116ae6143ab565b036116cb576001828101805460ff191682805b021790555061173c565b6002600382015460ff1660028111156116e6576116e66143ab565b03611702576001808301805460029260ff1990911690836116c1565b826002811115611714576117146143ab565b60018084018054909160ff1990911690836002811115611736576117366143ab565b02179055505b60058201805460ff19166001179055611754846136df565b6003820154600183015485916001600160a01b0316907f394027a5fa6e098a1191094d1719d6929b9abc535fcc0c8f448d6a4e756222769060ff1660028111156117a0576117a06143ab565b6040519081526020015b60405180910390a350505050565b6000600b84815481106117cd576117cd61469a565b60009182526020909120600990910201905060056008820154600160b01b900460ff166005811115611801576118016143ab565b1461184e5760405162461bcd60e51b815260206004820152601b60248201527f546865206f72646572206d757374206265207265736f6c7665642e000000000060448201526064016109b3565b60048101546000908152600a60205260409020805485146118a45760405162461bcd60e51b815260206004820152601060248201526f2ab73234b9b83aba32b21037b93232b960811b60448201526064016109b3565b600181015460009060ff1660028111156118c0576118c06143ab565b6001830154909150600090610100900461ffff16865b8181111580156118f657508615806118f657506118f387896146c6565b81105b15611925576119078a8a8387613a89565b61191190846146c6565b92508061191d81614889565b9150506118d6565b506040516001600160a01b038a169083156108fc029084906000818181858888f15050505050505050505050505050565b600b5481106119775760405162461bcd60e51b81526004016109b390614670565b6000600b828154811061198c5761198c61469a565b60009182526020909120600990910201905060016008820154600160b01b900460ff1660058111156119c0576119c06143ab565b14611a025760405162461bcd60e51b815260206004820152601260248201527113dc99195c94dd185d1d5cce880854185a5960721b60448201526064016109b3565b426008548260050154611a1591906146c6565b10611a625760405162461bcd60e51b815260206004820152601e60248201527f436f6d706c6574696f6e20706572696f64204e4f542074696d65646f7574000060448201526064016109b3565b611a6b81613c01565b60405182907fa08ae43f66b3bb6dc42d8d01b32cd576235826cfa50d940d0141e0c885df07c890600090a260405182907f18cc2626d53b298add3ec58253b2a64517d5ab3dca9c8eb4b078a2852705c3d890600090a25050565b60045461ffff90811690841610611aee5760405162461bcd60e51b81526004016109b3906148a2565b61ffff831660009081526005602090815260408083206001600160a01b0386168452600281019092529091205460ff161515600114611b6f5760405162461bcd60e51b815260206004820152601d60248201527f546f6b656e206e6f7420656e61626c656420666f722073656c6c696e6700000060448201526064016109b3565b8160096000611b7c6135e2565b6001600160a01b03166001600160a01b031681526020019081526020016000206000856001600160a01b03166001600160a01b031681526020019081526020016000206000828254611bce91906146c6565b90915550611bf19050611bdf6135e2565b6001600160a01b038516903085613caf565b611bf96135e2565b604080516001600160a01b0386811682526020820186905292909216917f223333d41820f8f24aa9d9555d0c8e92398a489801fe2bb8ba5d674530a9804291015b60405180910390a250505050565b60045461ffff90811690851610611c995760405162461bcd60e51b815260206004820152601560248201527414185e5b595b9d13595d1a1bd90e8808515e1a5cdd605a1b60448201526064016109b3565b61ffff841660009081526005602090815260408083206001600160a01b0387168452600381019092529091208054611cd0906146ec565b9050600003611d1a5760405162461bcd60e51b81526020600482015260166024820152752830bcb6b2b73a26b2ba3437b21d1010a9b2b63632b960511b60448201526064016109b3565b6001600160a01b038316600090815260028201602052604090205460ff161515600114611d815760405162461bcd60e51b81526020600482015260156024820152742830bcb6b2b73a26b2ba3437b21d1010aa37b5b2b760591b60448201526064016109b3565b6001600160a01b03808516600090815260096020908152604080832093871683529290522054821115611df65760405162461bcd60e51b815260206004820152601960248201527f4e6f7420656e6f7567682073656c6c65722062616c616e63650000000000000060448201526064016109b3565b600c5460405163f7434ea960e01b81526001600160a01b039091169063f7434ea990611e2790600d906004016148d9565b602060405180830381865afa158015611e44573d6000803e3d6000fd5b505050506040513d601f19601f82011682018060405250810190611e68919061474a565b341015611eb35760405162461bcd60e51b8152602060048201526019602482015278105c989a5d1c985d1a5bdb881999595cc81b9bdd081c185a59603a1b60448201526064016109b3565b6000611ec183600354613ce7565b506001600160a01b038616600090815260048401602052604081205491925090611eec908590613ce7565b5090506000611efb82866146d9565b9050611f0783836146c6565b851015611f715760405162461bcd60e51b815260206004820152603260248201527f43756d6d756c617469766520666565732063616e6e6f74206265206d6f7265206044820152711d1a185b88189bdd59da1d08185b5bdd5b9d60721b60648201526084016109b3565b600b6040518061016001604052808381526020018581526020013481526020016000815260200160008152602001428152602001611fad6135e2565b6001600160a01b0390811682528a811660208301528916604082015261ffff8b1660608201526080016000905281546001818101845560009384526020938490208351600990930201918255928201519281019290925560408101516002830155606081015160038301556080810151600483015560a081015160058084019190915560c08201516006840180546001600160a01b039283166001600160a01b03199182161790915560e08401516007860180549184169190921617905561010083015160088501805461012086015161ffff16600160a01b026001600160b01b03199091169290931691909117919091178082556101408401519394939260ff60b01b1990911690600160b01b9084908111156120cd576120cd6143ab565b021790555050506001600160a01b038088166000908152600960209081526040808320938a168352929052908120805483929061210b9084906146d9565b90915550506001600160a01b0387166121226135e2565b6001600160a01b03166001600b8054905061213d91906146d9565b6040805161ffff8d1681526001600160a01b038b16602082015290810189905260608101879052608081018690527f4bcad622f9794e59bae80f950bd9cc81908d119208f721a14081266db7b2e5b89060a00160405180910390a45050505050505050565b6121aa613fd9565b6000600b85815481106121bf576121bf61469a565b6000918252602080832060099290920290910160048101548352600a825260408084208885526002810184528185206001600160a01b03891686526005810190945293819020815160608101928390529295509060039082845b81548152602001906001019080831161221957505050505093505050509392505050565b612245613d16565b60065482106122915760405162461bcd60e51b8152602060048201526018602482015277125b9d985b1a590813595d1848115d9a59195b98d948125160421b60448201526064016109b3565b60048054600091600591839161ffff90911690826122ae8361485a565b91906101000a81548161ffff021916908361ffff16021790555061ffff1661ffff168152602001908152602001600020905084848260010191826122f3929190614950565b508281556001600160a01b03821660009081526002820160205260409020805460ff19166001908117909155600454612330919061ffff16614a10565b61ffff167fa9623e6f99664313c60fa7d1499b5d8f01ef311fa403cb5e6b959e01e18e315686868660405161236793929190614a5b565b60405180910390a26004546123829060019061ffff16614a10565b6040516001600160a01b038416815261ffff91909116907f4b24be74fa9bda0f44424d3d074fa96c65bf48e74e7a6ecfd8da8f42744e939f9060200160405180910390a25050505050565b6123d5613d16565b6127108111156124275760405162461bcd60e51b815260206004820152601d60248201527f666565732063616e6e6f74206265206d6f7265207468616e203130302500000060448201526064016109b3565b600355565b6000600b83815481106124415761244161469a565b60009182526020909120600990910201905060056008820154600160b01b900460ff166005811115612475576124756143ab565b146124c25760405162461bcd60e51b815260206004820152601b60248201527f546865206f72646572206d757374206265207265736f6c7665642e000000000060448201526064016109b3565b60048101546000908152600a60205260409020805484146125185760405162461bcd60e51b815260206004820152601060248201526f2ab73234b9b83aba32b21037b93232b960811b60448201526064016109b3565b60018101546000906125439087908790879060ff16600281111561253e5761253e6143ab565b613a89565b6040519091506001600160a01b0387169082156108fc029083906000818181858888f15050505050505050505050565b600b5481106125945760405162461bcd60e51b81526004016109b390614670565b6000600b82815481106125a9576125a961469a565b60009182526020822060099091020191506008820154600160b01b900460ff1660058111156125da576125da6143ab565b1461261f5760405162461bcd60e51b815260206004820152601560248201527413dc99195c94dd185d1d5cce880850dc99585d1959605a1b60448201526064016109b3565b42600754826005015461263291906146c6565b1061267f5760405162461bcd60e51b815260206004820181905260248201527f436f6e6669726d6174696f6e20706572696f64204e4f542074696d65646f757460448201526064016109b3565b805460028201805460008085556001850181905591829055600884018054600360b01b60ff60b01b1982161790915560078501546001600160a01b0390811684526009602090815260408086209290931685525282208054919284926126e69084906146c6565b909155505060068301546040516001600160a01b039091169082156108fc029083906000818181858888f150506040518793507f91e3c154ff27b859a148421f882fdc69c8fa7ef2cdde96a9216fb2bd1f79528b925060009150a250505050565b61ffff821660009081526005602090815260408083206001600160a01b03851684526003810190925290912080546060929190612783906146ec565b80601f01602080910402602001604051908101604052809291908181526020018280546127af906146ec565b80156127fc5780601f106127d1576101008083540402835291602001916127fc565b820191906000526020600020905b8154815290600101906020018083116127df57829003601f168201915b505050505091505092915050565b612812613fd9565b600080600080600b878154811061282b5761282b61469a565b600091825260208083206009929092029091016004818101548452600a835260408085208b865260028101909452938490206003808201549282015460018601548751606081019889905295985095969295869560ff90951694919361010090910461ffff168e141592869182845b81548152602001906001019080831161289a5750505050509350965096509650965050505092959194509250565b6128d0613d16565b600080546001600160a01b038381166001600160a01b0319831681178455604051919092169283917ff8ccb027dfcd135e000e9d45e6cc2d662578a8825d4c45b5e32e0adf67e79ec69190a35050565b60045461ffff908116908516106129495760405162461bcd60e51b81526004016109b3906148a2565b60006129536135e2565b61ffff861660009081526005602090815260408083206001600160a01b0385168452600381019092529091209192509061298e858783614950565b506001600160a01b038216600081815260048301602052604090819020859055517f819378d7e3dbb21d585c848b6f7a03879ff407ac1dcb84cff82a9956a562db05906129e2908990899089908990614a7f565b60405180910390a2505050505050565b6129fa613d16565b60045461ffff90811690831610612a235760405162461bcd60e51b81526004016109b3906148a2565b600654811115612a705760405162461bcd60e51b8152602060048201526018602482015277125b9d985b1a590813595d1848115d9a59195b98d948125160421b60448201526064016109b3565b61ffff82166000818152600560205260409081902083815590519091907fa9623e6f99664313c60fa7d1499b5d8f01ef311fa403cb5e6b959e01e18e315690612abf9060018501908690614aae565b60405180910390a2505050565b600b548110612aed5760405162461bcd60e51b81526004016109b390614670565b6000600b8281548110612b0257612b0261469a565b90600052602060002090600902019050612b1a6135e2565b60078201546001600160a01b03908116911614612b675760405162461bcd60e51b815260206004820152600b60248201526a27b7363c9029b2b63632b960a91b60448201526064016109b3565b60016008820154600160b01b900460ff166005811115612b8957612b896143ab565b14612bcb5760405162461bcd60e51b815260206004820152601260248201527113dc99195c94dd185d1d5cce880854185a5960721b60448201526064016109b3565b426008548260050154612bde91906146c6565b1015612c2c5760405162461bcd60e51b815260206004820152601a60248201527f4f7264657220636f6d706c657465642062792074696d656f757400000000000060448201526064016109b3565b600c5460405163f7434ea960e01b81526001600160a01b039091169063f7434ea990612c5d90600d906004016148d9565b602060405180830381865afa158015612c7a573d6000803e3d6000fd5b505050506040513d601f19601f82011682018060405250810190612c9e919061474a565b341015612ce95760405162461bcd60e51b8152602060048201526019602482015278105c989a5d1c985d1a5bdb881999595cc81b9bdd081c185a59603a1b60448201526064016109b3565b346003820181905560088201805460ff60b01b1916600160b21b179055600c5460405163c13517e160e01b81526001600160a01b039091169163c13517e191612d3a90600290600d90600401614802565b60206040518083038185885af1158015612d58573d6000803e3d6000fd5b50505050506040513d601f19601f82011682018060405250810190612d7d919061474a565b60048083018290556000918252600a6020526040909120838155600c546003820180546001600160a01b0319166001600160a01b03909216919091179055908101612dc9600d82614ad0565b506008820154600160a01b900461ffff166000908152600560209081526040918290206004850154600c5482548551908152938401889052919390926001600160a01b03909216917f74baab670a4015ab2f1b467c5252a96141a2573f2908e58a92081e80d3cfde3d91016117aa565b600b548310612e5a5760405162461bcd60e51b81526004016109b390614670565b6000600b8481548110612e6f57612e6f61469a565b6000918252602091829020604080516101608101825260099390930290910180548352600181015493830193909352600283015490820152600382015460608201526004820154608082015260058083015460a083015260068301546001600160a01b0390811660c08401526007840154811660e08401526008840154908116610100840152600160a01b810461ffff16610120840152919291610140840191600160b01b90910460ff1690811115612f2a57612f2a6143ab565b6005811115612f3b57612f3b6143ab565b905250905060058161014001516005811115612f5957612f596143ab565b10612f9c5760405162461bcd60e51b8152602060048201526013602482015272111a5cdc1d5d19481a5cc81c995cdbdb1d9959606a1b60448201526064016109b3565b60808101516000908152600a60205260409020612fb76135e2565b60038201546040516001600160a01b0392831692889216907fdccf2f8b2cc26eafcd61905cba744cff4b81d14740725f6376390dc6298a6a3c90612ffe9089908990614bad565b60405180910390a45050505050565b600b818154811061301d57600080fd5b6000918252602090912060099091020180546001820154600283015460038401546004850154600586015460068701546007880154600890980154969850949693959294919390926001600160a01b039283169291821691811690600160a01b810461ffff1690600160b01b900460ff168b565b613099613d16565b60045461ffff908116908416106130c25760405162461bcd60e51b81526004016109b3906148a2565b61ffff831660009081526005602090815260408083206001600160a01b038616845260028101909252909120805460ff1916831580159190911790915561314a576040516001600160a01b038416815261ffff8516907f4b24be74fa9bda0f44424d3d074fa96c65bf48e74e7a6ecfd8da8f42744e939f9060200160405180910390a2613189565b6040516001600160a01b038416815261ffff8516907f297037fc6c23bb536408998f3fdfd2a4fceec776605ef842e4096dda8a9bf06190602001611c3a565b50505050565b613197613d16565b60045461ffff908116908416106131c05760405162461bcd60e51b81526004016109b3906148a2565b61ffff83166000908152600560205260409020600181016131e2838583614950565b50805460405161ffff8616917fa9623e6f99664313c60fa7d1499b5d8f01ef311fa403cb5e6b959e01e18e315691611c3a916001860191614aae565b6000613228613d16565b6006805490600061323883614889565b919050559050807f61606860eb6c87306811e2695215385101daab53bd6ab4e9f9049aead9363c7d8484604051613270929190614bad565b60405180910390a292915050565b600b54811061329f5760405162461bcd60e51b81526004016109b390614670565b6000600b82815481106132b4576132b461469a565b906000526020600020906009020190506132cc6135e2565b60078201546001600160a01b039081169116146133195760405162461bcd60e51b815260206004820152600b60248201526a27b7363c9029b2b63632b960a91b60448201526064016109b3565b60026008820154600160b01b900460ff16600581111561333b5761333b6143ab565b106133885760405162461bcd60e51b815260206004820152601860248201527f4f726465725374617475733a20213c436f6d706c65746564000000000000000060448201526064016109b3565b60006008820154600160b01b900460ff1660058111156133aa576133aa6143ab565b14806133c757504260085482600501546133c491906146c6565b10155b6134135760405162461bcd60e51b815260206004820152601a60248201527f4f7264657220636f6d706c657465642062792074696d656f757400000000000060448201526064016109b3565b61341c81613c01565b60405182907f18cc2626d53b298add3ec58253b2a64517d5ab3dca9c8eb4b078a2852705c3d890600090a25050565b613453613d16565b600c80546001600160a01b0319166001600160a01b038516179055600d613189828483614950565b6000806000600b84815481106134935761349361469a565b90600052602060002090600902019050806001015492508281600001546134ba91906146d9565b915050915091565b6134ca613d16565b60025482111561351c5760405162461bcd60e51b815260206004820152601d60248201527f416d6f756e74206d6f7265207468616e2061636372756564206665657300000060448201526064016109b3565b816002600082825461352e91906146d9565b90915550506040516001600160a01b0382169083156108fc029084906000818181858888f150505050505050565b613564613d16565b600855565b613571613d16565b600755565b600080600b838154811061358c5761358c61469a565b906000526020600020906009020190506000600a60008360040154815260200190815260200160002090508060010160019054906101000a900461ffff1660016135d69190614bc1565b61ffff16949350505050565b6001546000906001600160a01b0316330361364457600080368080601f0160208091040260200160405190810160405280939291908181526020018383808284376000920191909152505050503601516001600160a01b031691506136479050565b50335b90565b6040516001600160a01b0383166024820152604481018290526136ad90849063a9059cbb60e01b906064015b60408051601f198184030181529190526020810180516001600160e01b03166001600160e01b031990931692909217909152613d5f565b505050565b600080838311156136c8575082905060006136d8565b6136d283856146d9565b90508291505b9250929050565b6000818152600a602052604081208054600b805492939290919081106137075761370761469a565b6000918252602082206009909102018054600182015460028301546003840154939550919390929061373984866146d9565b60008088556001880181905560028801819055600388015560088701805491925060059160ff60b01b1916600160b01b8302179055506000600188015460ff16600281111561378a5761378a6143ab565b146137a75783600260008282546137a191906146c6565b90915550505b60018088015460ff1660028111156137c1576137c16143ab565b036138745760068601546040516001600160a01b039091169084156108fc029085906000818181858888f1505050506008870154600688015460405163a9059cbb60e01b81526001600160a01b039182166004820152602481018590529116915063a9059cbb906044016020604051808303816000875af115801561384a573d6000803e3d6000fd5b505050506040513d601f19601f8201168201806040525081019061386e9190614bdc565b50613a54565b6002600188015460ff16600281111561388f5761388f6143ab565b0361390c5760078601546040516001600160a01b039091169083156108fc029084906000818181858888f150505060078801546001600160a01b03908116600090815260096020908152604080832060088d0154909416835292905290812080548994509092506139019084906146c6565b90915550613a549050565b6000600261391a8585613e31565b6139249190614763565b60068801546040519192506001600160a01b03169082156108fc029083906000818181858888f150505060078901546040516001600160a01b03909116925083156108fc02915083906000818181858888f1935050505050600060028761398b9190614763565b600889015460068a015460405163a9059cbb60e01b81526001600160a01b03918216600482015260248101849052929350169063a9059cbb906044016020604051808303816000875af11580156139e6573d6000803e3d6000fd5b505050506040513d601f19601f82011682018060405250810190613a0a9190614bdc565b5060078801546001600160a01b03908116600090815260096020908152604080832060088d015490941683529290529081208054839290613a4c9084906146c6565b909155505050505b86546040517f1e622a4d355fee568685ee98938ecae07ca1ab8ba9ec33832db0089485e987fa90600090a25050505050505050565b600080600b8581548110613a9f57613a9f61469a565b600091825260208083206004600990930201918201548352600a815260408084208885526002810183528185206001600160a01b038c1686526005810190935293206001840154929450909161ffff61010090910416808803613b175781600201548260010154613b1091906146c6565b9550613be5565b86613b7f57600083600201548460010154613b3291906146c6565b9050600083600201548460010154613b4a91906146c6565b905060008211613b5b576000613b76565b81856004015482613b6c919061481b565b613b769190614763565b97505050613be5565b6000838860038110613b9357613b9361469a565b015411613ba1576000613be2565b828760038110613bb357613bb361469a565b01548360040154838960038110613bcc57613bcc61469a565b0154613bd8919061481b565b613be29190614763565b95505b6000826001015560008260020155509398975050505050505050565b8054600182015460028301546000613c1983856146d9565b600080875560018701819055600280880182905560088801805460ff60b01b1916600160b11b17905580549293508592909190613c579084906146c6565b909155505060068501546040516001600160a01b039091169083156108fc029084906000818181858888f150505060068701546008880154613ca893506001600160a01b039081169250168361364a565b5050505050565b6040516001600160a01b03808516602483015283166044820152606481018290526131899085906323b872dd60e01b90608401613676565b600080612710613cf7848661481b565b613d019190614763565b9150613d0d82856146d9565b90509250929050565b6000546001600160a01b03163314613d5d5760405162461bcd60e51b815260206004820152600a60248201526927b7363c9020b236b4b760b11b60448201526064016109b3565b565b6000613db4826040518060400160405280602081526020017f5361666545524332303a206c6f772d6c6576656c2063616c6c206661696c6564815250856001600160a01b0316613e499092919063ffffffff16565b8051909150156136ad5780806020019051810190613dd29190614bdc565b6136ad5760405162461bcd60e51b815260206004820152602a60248201527f5361666545524332303a204552433230206f7065726174696f6e20646964206e6044820152691bdd081cdd58d8d9595960b21b60648201526084016109b3565b6000818310613e405781613e42565b825b9392505050565b6060613e588484600085613e60565b949350505050565b606082471015613ec15760405162461bcd60e51b815260206004820152602660248201527f416464726573733a20696e73756666696369656e742062616c616e636520666f6044820152651c8818d85b1b60d21b60648201526084016109b3565b600080866001600160a01b03168587604051613edd9190614bf9565b60006040518083038185875af1925050503d8060008114613f1a576040519150601f19603f3d011682016040523d82523d6000602084013e613f1f565b606091505b5091509150613f3087838387613f3b565b979650505050505050565b60608315613faa578251600003613fa3576001600160a01b0385163b613fa35760405162461bcd60e51b815260206004820152601d60248201527f416464726573733a2063616c6c20746f206e6f6e2d636f6e747261637400000060448201526064016109b3565b5081613e58565b613e588383815115613fbf5781518083602001fd5b8060405162461bcd60e51b81526004016109b391906140f2565b60405180606001604052806003906020820280368337509192915050565b60006020828403121561400957600080fd5b5035919050565b6001600160a01b038116811461402557600080fd5b50565b6000806040838503121561403b57600080fd5b823561404681614010565b946020939093013593505050565b803561ffff8116811461406657600080fd5b919050565b6000806040838503121561407e57600080fd5b61408783614054565b9150602083013561409781614010565b809150509250929050565b60005b838110156140bd5781810151838201526020016140a5565b50506000910152565b600081518084526140de8160208601602086016140a2565b601f01601f19169290920160200192915050565b602081526000613e4260208301846140c6565b60006020828403121561411757600080fd5b613e4282614054565b828152604060208201526000613e5860408301846140c6565b6000806040838503121561414c57600080fd5b823561408781614010565b6000806040838503121561416a57600080fd5b8235915060208301356003811061409757600080fd5b6000806040838503121561419357600080fd5b50508035926020909101359150565b600080600080608085870312156141b857600080fd5b84356141c381614010565b966020860135965060408601359560600135945092505050565b6000806000606084860312156141f257600080fd5b6141fb84614054565b9250602084013561420b81614010565b929592945050506040919091013590565b6000806000806080858703121561423257600080fd5b61423b85614054565b9350602085013561424b81614010565b9250604085013561425b81614010565b9396929550929360600135925050565b60008060006060848603121561428057600080fd5b8335925060208401359150604084013561429981614010565b809150509250925092565b8060005b60038110156131895781518452602093840193909101906001016142a8565b60608101610cd082846142a4565b60008083601f8401126142e757600080fd5b50813567ffffffffffffffff8111156142ff57600080fd5b6020830191508360208285010111156136d857600080fd5b6000806000806060858703121561432d57600080fd5b843567ffffffffffffffff81111561434457600080fd5b614350878288016142d5565b90955093505060208501359150604085013561436b81614010565b939692955090935050565b60008060006060848603121561438b57600080fd5b833561439681614010565b95602085013595506040909401359392505050565b634e487b7160e01b600052602160045260246000fd5b600381106143d1576143d16143ab565b9052565b60c081016143e382876142a4565b6143f060608301866143c1565b83608083015282151560a083015295945050505050565b60006020828403121561441957600080fd5b8135613e4281614010565b6000806000806060858703121561443a57600080fd5b61444385614054565b9350602085013567ffffffffffffffff81111561445f57600080fd5b61446b878288016142d5565b9598909750949560400135949350505050565b6000806040838503121561449157600080fd5b61404683614054565b6000806000604084860312156144af57600080fd5b83359250602084013567ffffffffffffffff8111156144cd57600080fd5b6144d9868287016142d5565b9497909650939450505050565b8b8152602081018b9052604081018a9052606081018990526080810188905260a081018790526001600160a01b0386811660c083015285811660e0830152841661010082015261ffff831661012082015261016081016006831061454c5761454c6143ab565b826101408301529c9b505050505050505050505050565b801515811461402557600080fd5b60008060006060848603121561458657600080fd5b61458f84614054565b9250602084013561459f81614010565b9150604084013561429981614563565b6000806000604084860312156145c457600080fd5b6145cd84614054565b9250602084013567ffffffffffffffff8111156144cd57600080fd5b600080602083850312156145fc57600080fd5b823567ffffffffffffffff81111561461357600080fd5b61461f858286016142d5565b90969095509350505050565b60008060006040848603121561464057600080fd5b83356145cd81614010565b6000806040838503121561465e57600080fd5b82359150602083013561409781614010565b60208082526010908201526f125b9d985b1a590813dc99195c88125160821b604082015260600190565b634e487b7160e01b600052603260045260246000fd5b634e487b7160e01b600052601160045260246000fd5b80820180821115610cd057610cd06146b0565b81810381811115610cd057610cd06146b0565b600181811c9082168061470057607f821691505b60208210810361472057634e487b7160e01b600052602260045260246000fd5b50919050565b6000806040838503121561473957600080fd5b505080516020909101519092909150565b60006020828403121561475c57600080fd5b5051919050565b60008261478057634e487b7160e01b600052601260045260246000fd5b500490565b60008154614792816146ec565b8085526020600183811680156147af57600181146147c9576147f7565b60ff1985168884015283151560051b8801830195506147f7565b866000528260002060005b858110156147ef5781548a82018601529083019084016147d4565b890184019650505b505050505092915050565b828152604060208201526000613e586040830184614785565b8082028115828204841417610cd057610cd06146b0565b6060810161484082866143c1565b6001600160a01b0393909316602082015260400152919050565b600061ffff808316818103614871576148716146b0565b6001019392505050565b60208101610cd082846143c1565b60006001820161489b5761489b6146b0565b5060010190565b6020808252601e908201527f5061796d656e74206d6574686f6420646f6573206e6f742065786973742e0000604082015260600190565b602081526000613e426020830184614785565b634e487b7160e01b600052604160045260246000fd5b601f8211156136ad57600081815260208120601f850160051c810160208610156149295750805b601f850160051c820191505b8181101561494857828155600101614935565b505050505050565b67ffffffffffffffff831115614968576149686148ec565b61497c8361497683546146ec565b83614902565b6000601f8411600181146149b057600085156149985750838201355b600019600387901b1c1916600186901b178355613ca8565b600083815260209020601f19861690835b828110156149e157868501358255602094850194600190920191016149c1565b50868210156149fe5760001960f88860031b161c19848701351681555b505060018560011b0183555050505050565b61ffff828116828216039080821115614a2b57614a2b6146b0565b5092915050565b81835281816020850137506000828201602090810191909152601f909101601f19169091010190565b604081526000614a6f604083018587614a32565b9050826020830152949350505050565b61ffff85168152606060208201526000614a9d606083018587614a32565b905082604083015295945050505050565b604081526000614ac16040830185614785565b90508260208301529392505050565b818103614adb575050565b614ae582546146ec565b67ffffffffffffffff811115614afd57614afd6148ec565b614b1181614b0b84546146ec565b84614902565b6000601f821160018114614b455760008315614b2d5750848201545b600019600385901b1c1916600184901b178455613ca8565b600085815260209020601f19841690600086815260209020845b83811015614b7f5782860154825560019586019590910190602001614b5f565b5085831015614b9d5781850154600019600388901b60f8161c191681555b5050505050600190811b01905550565b602081526000613e58602083018486614a32565b61ffff818116838216019080821115614a2b57614a2b6146b0565b600060208284031215614bee57600080fd5b8151613e4281614563565b60008251614c0b8184602087016140a2565b919091019291505056fea2646970667358221220b8e137c749541e9fb66dd5133eb22456a90e4078fd19f11b75d580d6d7fdc99b64736f6c63430008110033",
    "linkReferences": {}
  },
  "methodIdentifiers": {
    "addMetaEvidence(string)": "b6694b7b",
    "addPaymentMethod(string,uint256,address)": "6b7e9eff",
    "admin()": "f851a440",
    "arbitrator()": "6cc6cde1",
    "arbitratorExtraData()": "0c7ac7b6",
    "batchRoundWithdraw(address,uint256,uint256,uint256)": "339ac67c",
    "buyOrder(uint16,address,address,uint256)": "64ac92f2",
    "buyerTimeout()": "4db092b4",
    "changeAdmin(address)": "8f283970",
    "changeArbitrator(address,bytes)": "ba7079ca",
    "changeBuyerTimeout(uint256)": "f07dbd00",
    "changeFees(uint256)": "6cda375b",
    "changeSellerTimeout(uint256)": "e8cfe7ac",
    "completeOrder(uint256)": "b6adaaff",
    "confirmPaid(uint256)": "01e6e515",
    "depositTokens(uint16,address,uint256)": "4b2dd8f4",
    "disputeOrder(uint256)": "a09970b2",
    "fundAppeal(uint256,uint8)": "12b3a2c0",
    "getContributions(uint256,uint256,address)": "68c76ffd",
    "getCountOrders()": "98f1c162",
    "getNumberOfRounds(uint256)": "fc6f8f16",
    "getOrderFeeAmount(uint256)": "bc9ebc5f",
    "getPaymentMethodAddress(uint16,address)": "889d7f15",
    "getPaymentMethodSellerFeeRate(uint16,address)": "6ea8b5ea",
    "getPaymentMethodToken(uint16,address)": "075a5415",
    "getRoundInfo(uint256,uint256)": "8a9bb02a",
    "loserStakeMultiplier()": "1d512085",
    "metaEvidenceUpdates()": "6cdc090f",
    "orders(uint256)": "a85c38ef",
    "paymentMethods(uint16)": "0cd4384d",
    "protocolFeesSum()": "fbef7045",
    "relay()": "b59589d1",
    "rule(uint256,uint256)": "311a6c56",
    "sellerTimeout()": "dc2a7e5f",
    "sharedStakeMultiplier()": "41658341",
    "submitEvidence(uint256,string)": "a6a7f0eb",
    "timeoutByBuyer(uint256)": "870026f1",
    "timeoutBySeller(uint256)": "382a2b86",
    "tokenBalance(address,address)": "1049334f",
    "totalPaymentMethods()": "46639cca",
    "tradeFeeRate()": "6b04b9cf",
    "updatePaymentMetaEvidence(uint16,uint256)": "9e324aea",
    "updatePaymentName(uint16,string)": "ae1a38ed",
    "updateSellerPaymentMethod(uint16,string,uint256)": "96917abe",
    "updateTokenEnabled(uint16,address,bool)": "abaa14ff",
    "winnerStakeMultiplier()": "7b943383",
    "withdrawFees(uint256,address)": "dd2cc3f3",
    "withdrawFeesAndRewards(address,uint256,uint256)": "6e99a23a",
    "withdrawTokens(address,uint256)": "06b091f9"
  },
  "id": 22
}